:1000000002002E75230075240075250075260075E5
:100010002700220000000000000000000000000097
:10002000000000000000000000000002056975816A
:100030005712017FE582600302009A780079007A06
:10004000007B007C007D00EC4D601C88828983E48D
:1000500093A3A882A9838A828B83F0A3AA82AB830D
:100060001CBCFFE31D80E07582007583007C007D71
:1000700000EC4D600AE4F0A31CBCFFF51D80F27596
:1000800082007583007C007D00EC4D600AE4F0A3E3
:100090001CBCFFF51D80F2120003120A7D80FE4594
:1000A0007874656E73696F6E20747970653A202577
:1000B00030327820202530327820202530327820C8
:1000C000202530327820202530327820202530320B
:1000D000780A001B5B324A1B5B313B3148000A0A3D
:1000E00045464D384C423120574949204E756E6384
:1000F0006875636B20493243205265616465720AFA
:10010000004F66667365745F583A253464204F6605
:10011000667365745F593A2534640A0A004275743F
:10012000746F6E73285A3A25632C20433A2563294D
:10013000204A6F79737469636B282534642C2025F9
:1001400034642920416363656C65726F6D65746505
:1001500072282533642C202533642C202533642910
:100160001B5B304A0D00646972656374696F6E3A97
:10017000202563003C4E4F20464C4F41543E0075B5
:10018000A7007597DE7597AD75FF8075EF0675A7AB
:100190001075C12075A70075A90075A900E5A930E3
:1001A000E7FB75A90375A903E5A930E7FB7598106E
:1001B000758DE6858D8B53890F438920D28ED29918
:1001C00043A41075E10575E20075E340438E0453C6
:1001D00089F0438902758C10758A10D28C75C8001D
:1001E000438E1075CAE075CBE375CEFF75CFFFD295
:1001F000ADD2CAD2AF75C15C43C18075820022AA5C
:1002000082ABA775A71043A60175A2C075A3E685AA
:10021000A2A485A3A5C29FD29A7C00C3EC9A5008E1
:10022000109F0280FB0C80F3C29A8BA7228582C2AA
:10023000C2C030C0FD22C2C030C0FD85C28222D201
:10024000C1D2C5C2C4C2C030C0FDC2C522D2C4C260
:10025000C02212023F7582A412022D7582F0120292
:100260002D75825512022D12024D7582011201FF69
:1002700012023F7582A412022D7582FB12022D75A7
:10028000820012022D12024D7582011201FF12022C
:100290003F7582A412022D7582FA12022D12024DB0
:1002A0007582031201FF12023F7582A512022D7A98
:1002B00000BA06005015EA2428F8C002C000120255
:1002C00036E582D000D002F60A80E6C2C112024DA5
:1002D0007582031201FF30004BAA2D7B00AC2C7DF0
:1002E00000852B2E752F00852A3075310085293227
:1002F000753300AE287F00C002C003C004C005C033
:100300002EC02FC030C031C032C033C006C0077409
:100310009FC0E07400C0E07480C0E0120D63E5810E
:1003200024F1F58112023F7582A412022D7582F02C
:1003300012022D7582AA12022D12024D758201122F
:1003400001FF12023F7582A412022D758240120233
:100350002D75820012022D75820012022D75820009
:1003600012022D75820012022D75820012022D7567
:10037000820012022D12024D7582011201FF12023B
:100380003F7582A412022D75824012022D758200E3
:1003900012022D75820012022D75820012022D7537
:1003A000820012022D75820012022D758200120247
:1003B0002D12024D7582011201FF12023F7582A4B7
:1003C00012022D75824012022D75820012022D75C7
:1003D000820012022D75820012022D758200120217
:1003E0002D12024D7582010201FFAA82AB83ACF08F
:1003F000C002C003C00412023F7582A412022D7510
:10040000820012022D12024D7582031201FF1202A8
:100410003F7582A512022DD004D003D0027D00BD0D
:100420000600503AED2AFEE43BFF8C00C002C003F8
:10043000C004C005C006C007C000120236E582D065
:1004400000D007D006D005D004D003D00264172412
:1004500017F98E828F8388F0120D970D80C1C2C16B
:1004600002024DAA82438E407592B87593FF859221
:10047000948593957591047B00C3EB9A500BE5919D
:1004800030E7FB53917F0B80F075910022AA82AB7D
:10049000837C007D00C3EC9AED9B502B7E00BE0454
:1004A00000501D7582FAC002C003C004C005C0061A
:1004B000120463D006D005D004D003D0020E80DE33
:1004C0000CBC00D10D80CE2285823685833785F025
:1004D00038E4F539F53AE53424FFFFE53534FFF823
:1004E00079007A00C3E99FEA648088F063F0809520
:1004F000F05059C002C007C000C001120D84AB8289
:10050000D001D000D007D002BB0A028003BB0D1D72
:10051000E5392536FCE53A3537FDAE388C828D83DA
:100520008EF0E4120D97853982853A8322E92536CB
:10053000FCEA3537FDAE388C828D838EF0EB120DE0
:100540009709B900010A89398A3A8098E539253630
:10055000FAE53A3537FBAC388A828B838CF0E412AB
:100560000D9785348285358322C0E0C0D075D000D8
:10057000C2CF0523E523249B5003752300C3E52444
:1005800095239201B39296C3E52595239201B392E8
:1005900097C3E52695239201B39293C3E52795234C
:1005A0009201B39294D0D0D0E032AA828A248A26D3
:1005B00075250075270022AA827524007526008AF9
:1005C000258A2722AA827524008A268A2575270073
:1005D00022AA828A247526007525008A2722AA82EB
:1005E000C2D575F003EA30E704B2D5F4048430D5FF
:1005F00002F404F524EA2AF5267525007527002261
:10060000E582FA25E0F524C2D575F003EA30E70467
:10061000B2D5F4048430D502F404F52675250075AE
:10062000270022AA828A24C2D575F002EA30E704A4
:10063000B2D5F4048430D502F404F526752500758E
:10064000270022AA82C2D575F002EA30E704B2D5AB
:10065000F4048430D502F404F5248A267525007547
:10066000270022AA828A24C2D575F005EA30E70461
:10067000B2D5F4048430D502F404F526752500754E
:10068000270022AA82C2D575F005EA30E704B2D568
:10069000F4048430D502F404F5248A267525007507
:1006A000270022AA82752400752600C2D575F003A2
:1006B000EA30E704B2D5F4048430D502F404F52519
:1006C0008A2722AA827524007526008A25C2D5753C
:1006D000F003EA30E704B2D5F4048430D502F40420
:1006E000F52722AA827524007526008A25C2D575B1
:1006F000F002EA30E704B2D5F4048430D502F40401
:10070000F52722AA82752400752600C2D575F0024D
:10071000EA30E704B2D5F4048430D502F404F525B8
:100720008A2722AA827524007526008A25C2D575DB
:10073000F005EA30E704B2D5F4048430D502F404BD
:10074000F52722AA82752400752600C2D575F0050A
:10075000EA30E704B2D5F4048430D502F404F52578
:100760008A2722752400752500752600752700222A
:10077000120D3FAA82AB83853B82853C83C002C0B9
:1007800003120D3FAC82AD83D003D002C3EC9AEDCF
:1007900064808BF063F08095F0501A8A068B07C353
:1007A00074559AE464808BF063F08095F0500A7E73
:1007B000647F0080048C068D078E828F8322AA823C
:1007C000AB837C61C3E4953DE46480853EF063F0D7
:1007D0008095F04003020929C3EA940AEB648094EF
:1007E000805041C374F69A747F8BF063F08095F06B
:1007F0005032C37405953DE46480853EF063F0801B
:1008000095F0501BC374FB953D747F853EF063F0FB
:100810008095F0500AC004120763D004020A7A7C63
:1008200061020A7AC3740A9AE464808BF063F080F0
:1008300095F05015C3741E9AE464808BF063F080C9
:1008400095F040057C63020A7AC3741E9AE46480C2
:100850008BF063F08095F05015C374329AE4648095
:100860008BF063F08095F040057C65020A7AC374D2
:10087000329AE464808BF063F08095F05015C37475
:10088000469AE464808BF063F08095F040057C67C5
:10089000020A7AC374469AE464808BF063F0809510
:1008A000F05015C374649AE464808BF063F0809513
:1008B000F040057C69020A7AC3EA94F6EB648094FE
:1008C0007F5010C3EA94E2EB6480947F40057C641F
:1008D000020A7AC3EA94E2EB6480947F5010C3EA80
:1008E00094CEEB6480947F40057C66020A7AC3EA6A
:1008F00094CEEB6480947F5010C3EA94BAEB64808A
:10090000947F40057C68020A7AC3EA94BAEB64805B
:10091000947F5010C3EA9492EB6480947F40057CEE
:100920006A020A7A7C61020A7AE53E20E703020A3B
:100930007AC3EA940AEB648094805041C374F69AB7
:10094000747F8BF063F08095F05032C37405953D51
:10095000E46480853EF063F08095F0501BC374FB27
:10096000953D747F853EF063F08095F0500AC00499
:10097000120763D004020A7A7C62020A7AC3740AFC
:100980009AE464808BF063F08095F05015C3741E78
:100990009AE464808BF063F08095F040057C6B02F4
:1009A0000A7AC3741E9AE464808BF063F08095F039
:1009B0005015C374329AE464808BF063F08095F034
:1009C00040057C6D020A7AC374329AE464808BF02D
:1009D00063F08095F05015C374469AE464808BF000
:1009E00063F08095F040057C6F020A7AC374469AE2
:1009F000E464808BF063F08095F05014C374649AC3
:100A0000E464808BF063F08095F040047C69806A38
:100A1000C3EA94F6EB6480947F500FC3EA94E2EB50
:100A20006480947F40047C6C8050C3EA94E2EB6461
:100A300080947F500FC3EA94CEEB6480947F40048F
:100A40007C6E8036C3EA94CEEB6480947F500FC3F3
:100A5000EA94B0EB6480947F40047C70801CC3EA0D
:100A600094B0EB6480947F500FC3EA9492EB64805F
:100A7000947F40047C6A80027C618C822274D3C0A3
:100A8000E07400C0E07480C0E0120D631581158130
:100A9000158174DEC0E07400C0E07480C0E0120D07
:100AA000631581158115817582C81201FFD200126C
:100AB00002527582641201FF90003F75F0401203EC
:100AC000EAAA3F7B00EA2480F547EB34FFF548AC07
:100AD000407D00EC2480F549ED34FFF54AC049C063
:100AE0004AC047C0487401C0E07401C0E07480C0CF
:100AF000E0120D63E58124F9F58190003F75F04027
:100B00001203EAAE3F7F00EE2480FEEF34FFFFEEDB
:100B1000C39547FEEF9548FFAC407D00EC2480FC78
:100B2000ED34FFFDECC39549F545ED954AF546E5F5
:100B30004175F004A4F54B85F04CE54275F004A432
:100B4000F54D85F04EE54375F004A4F54F85F05062
:100B5000E544139202E544A2E19203E54430E20B3E
:100B60007402254BF54BE4354CF54CE54430E30875
:100B7000054BE4B54B02054CE54430E40B7402250B
:100B80004DF54DE4354EF54EE54430E508054DE4B0
:100B9000B54D02054EE54430E60B7402254FF54F86
:100BA000E43550F550E54430E708054FE4B54F0211
:100BB00005503003047A3180027A30EA3395E0FB45
:100BC0003002057551318003755130E551FC339584
:100BD000E0FDC006C007C04FC050C04DC04EC04B66
:100BE000C04CC045C046C006C007C002C003C00418
:100BF000C005741DC0E07401C0E07480C0E0120D37
:100C000063E58124EFF5817582641201FFD007D07E
:100C1000068E3B8F3C854582854683C006C0071201
:100C20000770AA82AB83D007D00685453D85463E36
:100C30008E828F83C002C0031207BEE582FCFD33A3
:100C400095E0FEC004C005C0067466C0E07401C033
:100C5000E07480C0E0120D63E58124FBF581D004CF
:100C6000D003D002C3EC648094E15003020D39C379
:100C700074F08CF063F08095F05003020D39EC2491
:100C80009FFC25E02C900C8973020CB9020CC10268
:100C90000CE1020CE9020CF1020CD9020CF9020D74
:100CA00001020CD1020CC9020D11020D19020D2115
:100CB000020D09020D29020D318A821205AA020ACB
:100CC000FA8A821205B7020AFA8A821205C4020A57
:100CD000FA8A821205D1020AFA8A821205DE020A13
:100CE000FA8A82120623020AFA8A82120643020A4A
:100CF000FA8A82120600020AFA8A82120663020A3D
:100D0000FA8A82120683020AFA8A821206A3020A69
:100D1000FA8A821206E3020AFA8A82120703020A98
:100D2000FA8A821206C3020AFA8A82120723020A88
:100D3000FA8A82120743020AFA120763020AFAE5E4
:100D40008330E709F4F583E582F4F582A3220213E8
:100D5000D085821885831985F01A85091B900D4E60
:100D6000020E39C008858108E50824FBF51BE5085B
:100D700024FBF8861808861908861A900D4E120E64
:100D800039D0082210980280FBAA998A82C00212E8
:100D900013D0D0028A822220F71030F6118883A85F
:100DA0008220F507F6A88375830022F280F7F022EF
:100DB000AA8274C1C0E0740DC0E0C00AC00B8A8270
:100DC000220511E4B51102051222AA8274302AFA12
:100DD00024C6500A74072AFA3004034302208A8288
:100DE000020DB0E582FAC4540FF582C002120DCA9A
:100DF000D002740F5AF582020DCAAA0CAB0DAC0ECC
:100E0000AD0FAE10751720EE2EFEED235401FF42FC
:100E100006EA2AFAEB33FBEC33FCED33FDC3EE9527
:100E2000134008EEC39513FE430201D517D98A0C6F
:100E30008B0D8C0E8D0F8E102285820A85830BE41C
:100E4000F511F512AA18AB19AC1A8A828B838CF0B3
:100E50001213E5FD74012AF518E43BF5198C1AED1F
:100E6000FA70030213C9BA250280030213C1C20833
:100E7000C209C20AC20BC20CC20DC20EC20FC20509
:100E8000C206C2077513007514007515FFAB18ACC8
:100E900019AD1A8B828C838DF01213E5FAA3AB8205
:100EA000AC838B188C198D1ABA25078A82120DB063
:100EB00080928A06BE3000402E8A06EE24C6402765
:100EC00074FFB51513E51475F00AA4FEEA24D02EBC
:100ED000F51470BFD20980BBE51575F00AA4FEEACF
:100EE00024D02EF51580ACBA2E0A74FFB515A47562
:100EF0001500809F8A06BE6100400E8A06EE24859A
:100F000040075302DFD2048002C204BA2002807577
:100F1000BA2303020F94BA2A03020F99BA2B028054
:100F20005FBA2D028055BA4202805FBA4303020FB6
:100F3000DEBA4403021119BA4503021133BA46035B
:100F400002112FBA4703021137BA4903021119BA25
:100F50004C02803BBA4E0302113BBA4F03021120F0
:100F6000BA50030210B2BA5303021002BA55030278
:100F70001125BA580302112A021165D208020E93F4
:100F8000D20A020E93D20B020E93D20D020E93D20E
:100F90000E020E93D20F020E9374FFB51520300D82
:100FA0000BE51B14F8881B8614020E93E51B24FE28
:100FB000F8881B8606088607188E14020E93300DDB
:100FC0000BE51B14F8881B8615020E93E51B24FE07
:100FD000F8881B8606088607188E15020E93300DBA
:100FE0000AE51B14F8881B8602800FE51B24FEF817
:100FF000881B8603088604188B028A82120DB002B1
:10100000116AE51B24FDF8881B8603088604088600
:101010000518188B0C8C0D8D0E8B828C838DF01225
:101020001401AB82AC838B1674FFB51503851615BE
:1010300020081DC3E51695145016E514C39516F542
:1010400014AB141514EB6008758220120DB080F1FA
:10105000850C82850D83850EF01213E5FBFA60295D
:10106000AB151515C3E464808BF063F08095F050E8
:10107000188A82120DB0AB0CAC0DAD0E0BBB00018B
:101080000C8B0C8C0D8D0E80C720080302116AC3D7
:10109000E5169514400302116AE514C39516F5147C
:1010A000AB141514EB700302116A758220120DB097
:1010B00080EEE51B24FDF8881B860308860408865D
:1010C0000518188B0C8C0D8D0EE50EFB30E7047A9D
:1010D000438013EB546060047A50800AEB30E604DE
:1010E0007A4980027A588A82C002120DB075823A1B
:1010F000120DB0758230120DB0758278120DB0D01D
:1011000002BA4902800BBA50028006850D82120D88
:10111000E3850C82120DE38051D20C75130A804ACC
:10112000751308804575130A8040751310803BD2F3
:10113000058037D2068033D207802FE51B24FDF8C7
:10114000881B860308860408860518188B0C8C0DEE
:101150008D0E8B828C838DF0E511120D97A3E51215
:10116000120D9780058A82120DB020050620060315
:1011700030075AE51B24FCF8881B86030886040800
:1011800086050886061818188B0C8C0D8D0E8E0F90
:10119000750C74750D01750E80850C1C850D1D85F3
:1011A0000E1E7401251CFEE4351DFFAB1E8E0C8F38
:1011B0000D8B0E851C82851D83851EF01213E5FBA9
:1011C000FA7003020E448A82120DB080CCE51370CF
:1011D00003020E447B57300D2BE51B14F8881BE6E9
:1011E000FC3395E0FDFEFF8C0C8D0D8E0E8F0F20D5
:1011F0000C5EAC0C7D007E007F008C0C8D0D8E0E85
:101200008F0F804C300E1FE51B24FCF8881B8604D2
:101210000886050886060886071818188C0C8D0D98
:101220008E0E8F0F802AE51B24FEF8881B8604088B
:10123000860518ED3395E0FEFF8C0C8D0D8E0E8F1C
:101240000F200C0CAC0CAD0D7E007F008E0E8F0FAE
:10125000300F43E50C450D450E450F60397408B558
:10126000130C758230C003120DB0D00380287410A7
:10127000B51323758230C003120DB0D00330040CB7
:10128000758278C003120DB0D003800A758258C0F1
:1012900003120DB0D003300C25AC0CAD0DAE0EE535
:1012A0000FFF30E717C3E49CFCE49DFDE49EFEE4E1
:1012B0009FFF8C0C8D0D8E0E8F0F8002C20C751649
:1012C00000D2108B00751000C000120DFAD0002063
:1012D000100DE510C4FCE6FD4CF61888038002A64C
:1012E000100516B210E50C450D450E450F70D68859
:1012F00003E514700375140120091A200817E51678
:1013000004FCC39514500E758220C003120DB0D09A
:1013100003151480E9300C0E75822DC003120DB038
:10132000D00315148024E5166020300A0E75822B38
:10133000C003120DB0D0031514800F300B0C758252
:1013400020C003120DB0D003151420081EAC1415D4
:1013500014C3E5169C50273009047C3080027C20A1
:101360008C82C003120DB0D00380E2C3E516951441
:101370005009E514C39516F51480037514008B000D
:10138000AB161516EB6022B21020100A08E6C45402
:101390000FFB8B1080078603740F5BF5108510829E
:1013A000C000120DCAD00080D7200803020E44AB43
:1013B000141514EB7003020E44758220120DB080D8
:1013C000EE8A82120DB0020E4485118285128322AC
:1013D000AA82BA0A0810990280FB75990D10990229
:1013E00080FB8A992220F71430F6148883A8822083
:1013F000F507E6A88375830022E280F7E49322E0F4
:1014000022AA82AB83ACF07D007E008A828B838C23
:10141000F01213E5FFA3AA82AB83EF60070DBD00B6
:10142000EA0E80E78D828E8322000000000000001B
:00000001FF
