:1000000002002E75230075240075250075260075E5
:100010002700220000000000000000000000000097
:10002000000000000000000000000002027A75815C
:100030006012010BE582600302009A780079007A71
:10004000007B007C007D00EC4D601C88828983E48D
:1000500093A3A882A9838A828B83F0A3AA82AB830D
:100060001CBCFFE31D80E07582007583007C007D71
:1000700000EC4D600AE4F0A31CBCFFF51D80F27596
:1000800082007583007C007D00EC4D600AE4F0A3E3
:100090001CBCFFF51D80F212000312033C80FE1B06
:1000A0005B324A004472697665207468652063613A
:1000B00072210D0A557365204153574451452074F0
:1000C0006F20636F6E74726F6C2069747320646943
:1000D00072656374696F6E21200D0A00456E746548
:1000E0007220612073706565642062657477656550
:1000F0006E203020616E64203130300A00256900A6
:100100003C4E4F20464C4F41543E0075A70075971A
:10011000DE7597AD75FF8075EF0675A71075C12068
:1001200075A70075A90075A900E5A930E7FB75A9B9
:100130000375A903E5A930E7FB43A41075E1017538
:10014000E20075E340759810758DE6858D8B5389B7
:100150000F438920D28ED29975C800438E1075CA7C
:10016000E075CBE375CEFF75CFFFD2ADD2CAD2AF6B
:1001700075820022AA82438E407592B87593FF85DE
:1001800092948593957591047B00C3EB9A500BE58F
:100190009130E7FB53917F0B80F075910022AA828A
:1001A000AB837C007D00C3EC9AED9B502B7E00BEA0
:1001B0000400501D7582FAC002C003C004C005C00F
:1001C00006120174D006D005D004D003D0020E80F0
:1001D000DE0CBC00D10D80CE2285822A85832B8542
:1001E000F02CE4F52DF52EE52824FFFFE52934FF5A
:1001F000F879007A00C3E99FEA648088F063F080B0
:1002000095F05059C002C007C000C001120510ABE4
:1002100082D001D000D007D002BB0A028003BB0D00
:100220001DE52D252AFCE52E352BFDAE2C8C828D6F
:10023000838EF0E4120523852D82852E8322E92505
:100240002AFCEA352BFDAE2C8C828D838EF0EB12CE
:10025000052309B900010A892D8A2E8098E52D25EC
:100260002AFAE52E352BFBAC2C8A828B838CF0E4AA
:1002700012052385288285298322C0E0C0D075D04D
:1002800000C2CF0523E523249B5003752300C3E55B
:100290002495239200B39296C3E52595239200B34B
:1002A0009297C3E52695239200B39293C3E52795D1
:1002B000239200B39294D0D0D0E032AA828A248ACA
:1002C0002675250075270022AA8275240075260050
:1002D0008A258A2722AA827524008A268A257527DC
:1002E0000022AA828A247526007525008A2722AA60
:1002F000828A24C2D575F002EA30E704B2D5F4044C
:100300008430D502F404F52675250075270022AA4D
:1003100082C2D575F002EA30E704B2D5F404843025
:10032000D502F404F5248A26752500752700227568
:10033000240075250075260075270022753300906E
:1003400003E812019E749FC0E07400C0E07480C096
:10035000E01204EF15811581158174A4C0E07400CA
:10036000C0E07480C0E01204EF158115811581741E
:10037000DCC0E07400C0E07480C0E01204EF1581BE
:1003800015811581752804E4F52990002F75F0403A
:100390001201D97433C0E07400C0E07440C0E0744E
:1003A000FDC0E07400C0E07480C0E0742FC0E07451
:1003B00000C0E07440C0E01204ACE58124F7F58190
:1003C000120510AA82BA0D5174DCC0E07400C0E0BE
:1003D0007480C0E01204EF15811581158175280421
:1003E000E4F52990002F75F0401201D97433C0E074
:1003F0007400C0E07440C0E074FDC0E07400C0E070
:100400007480C0E0742FC0E07400C0E07440C0E0AD
:100410001204ACE58124F7F581120510AA82BA61B5
:10042000028029BA6402802DBA65028031BA710255
:100430008035BA7302800CBA77368533821202BBDC
:100440000203C08533821202C80203C085338212C0
:1004500002D50203C08533821202E20203C0853353
:10046000821202EF0203C085338212030F0203C01F
:1004700012032F0203C0AA08AB09AC0A8A828B833D
:100480008CF012053CFA0508E4B5080205098A82D9
:100490002285820885830985F00A850B44850C45F1
:1004A000850D46850E47900476020768C00F85814A
:1004B0000FE50F24F8F547E50F24FBF886080886BA
:1004C0000908860AE50F24F8F88644088645088658
:1004D00046900476120768D00F22021130858242BE
:1004E00085834385F0448510459004DA020B99C05A
:1004F0000F85810FE50F24FBF545E50F24FBF886FA
:10050000420886430886449004DA120B99D00F22E1
:1005100010980280FBAA998A82C002121130D00280
:100520008A822220F71030F6118883A88220F507EE
:10053000F6A88375830022F280F7F02220F71430AA
:10054000F6148883A88220F507E6A8837583002225
:10055000E280F7E49322E02285348285358312110C
:10056000B3858243E543600A053DE4B53D06053E9B
:100570008002D204854382227A007B003004057811
:1005800051760022C002C003120558AC82D003D0BD
:1005900002BC0002802DBC08028014BC090280232A
:1005A000BC0A02801EBC0D028019BC20218014EA06
:1005B0004B60D11ABAFF011B153D74FFB53D021502
:1005C0003E80C1EA4B60BDEA2451F8760022EC700F
:1005D00009EA2451F87600D20422ECB54207EA2455
:1005E00051F8760022C3EA940FEB940050968A05E6
:1005F0008B060ABA00010BED2451F8A6040205840B
:10060000AA827B7FC3EA648094B0401174B98AF0F7
:1006100063F08095F04006EA24D0FB8030C3EA64A2
:100620008094C1401174C68AF063F08095F0400652
:1006300074C92AFB8017C3EA648094E1400F74E612
:100640008AF063F08095F0400474A92AFBC3EB950F
:100650003F50038B822275827F22AA8275390075F2
:100660003A00753B00753C008A00E6FA60148A8205
:10067000C000120600AB82D000C3EB953F400308D8
:1006800080E886038B82C000120600AA82D000C3D5
:10069000E53F9A4050853F1175120075130075149F
:1006A00000853982853A83853BF0E53CC002C00075
:1006B000121145AB82AC83ADF0FED000D0028B3975
:1006C0008C3A8D3B8E3CE4FBFCFDEA2539FAEB3598
:1006D0003AFBEC353BFCED353CFD8A398B3A8C3BE3
:1006E0008D3C08809D853982853A83853BF0E53CC9
:1006F00022AA82753900753A00753B00753C008A64
:1007000000E6FB60228B82C003C000120600AC82B0
:10071000D000D003C3EC953F400DBB2D028008BB39
:100720002B0280030880DA88028603BB2D03D38066
:1007300001C39207BB2D028003BB2B010A8A8212E0
:10074000065A300713C3E49539FAE4953AFBE49569
:100750003BFCE4953CFD8008AA39AB3AAC3BAD3C90
:100760008A828B838CF0ED22858234858335E4F593
:100770003DF53EF541C204AA44AB45AC468A828BA6
:10078000838CF012053CFD74012AF544E43BF545E9
:100790008C46EDFA7003020B07BA25028003020AA9
:1007A000A0D203C201753F00754000C205C206AB6E
:1007B00044AC45AD468B828C838DF012053CFAA388
:1007C000AB82AC838B448C458D468B828C838DF0C1
:1007D00012053CF5428A06BE300040168A06EE2419
:1007E000C6400FE54075F00AA4FEEA24D02EF5407D
:1007F00080C38A06BE6100400A8A06EE2485400353
:100800005302DFBA250280ADBA2A028045BA4202FD
:100810008036BA43028040BA440302091BBA490336
:1008200002091BBA4C028025BA4E0302092EBA4FA8
:1008300003020920BA53028020BA5503020919BAEB
:100840005803020927020956D2010207B5D2020253
:1008500007B5D2050207B5D206200517E54724FDE6
:10086000F88847860308860408860518188B368C96
:10087000378D38E540700B3006047B0180027BFF2A
:100880008B40753F00C3E53F95405005120558AABF
:1008900082300407E53F7003020956EA601ABA2065
:1008A00002800DBA09028008BA0D028003BA0A0359
:1008B000300605E540B53F1FE53F60C9200512053C
:1008C00041AB36AC37AD388B828C838DF0E41205AA
:1008D00023753F00020956BA081CE53F60A72005B2
:1008E00011AB36AC37AD381BBBFF011C8B368C37D8
:1008F0008D38153F808F20051BAB36AC37AD388B5C
:10090000828C838DF0EA1205230BBB00010C8B3621
:100910008C378D38053F020885C203753F0A803643
:10092000C203753F08802FC203753F108028E5473A
:1009300024FDF88847860308860408860518188B66
:10094000368C378D388B828C838DF0E53D120523F4
:10095000A3E53E120523E53F7003020AA0120578C5
:100960007851E67003020AA0300503020AA0E547A9
:1009700024FDF88847860308860408860518188B26
:10098000368C378D380541200303020A19300235B1
:1009900085364885374985384A7582511206F1AE49
:1009A00082AF83ABF0FC854882854983854AF0EEAF
:1009B000120523A3EF120523A3EB120523A3EC12C8
:1009C0000523020AA0300126853648853749853837
:1009D0004A7582511206F1AE82AF83ABF0FC8548B6
:1009E00082854983854AF0EE120523020AA08536E6
:1009F0004885374985384A7582511206F1AE82AF73
:100A000083ABF0FC854882854983854AF0EE120568
:100A100023A3EF120523020AA0300234853648854D
:100A2000374985384A75825112065AAE82AF83AB78
:100A3000F0FC854882854983854AF0EE120523A3A0
:100A4000EF120523A3EB120523A3EC12052380501C
:100A500030012585364885374985384A75825112D7
:100A6000065AAE82AF83ABF0FC8548828549838508
:100A70004AF0EE12052380288536488537498538A7
:100A80004A75825112065AAE82AF83ABF0FC85489C
:100A900082854983854AF0EE120523A3EF120523D0
:100AA000200403020777AB44AC45AD468B828C83B0
:100AB0008DF012053CFEA3AB82AC838B448C458D3C
:100AC00046EEFA7003020777BA25E18B828C838D9C
:100AD000F012053CFABA6E028003BA4ECFE5472405
:100AE000FDF88847860208860608860718188A36A1
:100AF0008E378F388A828E838FF0E53D120523A3CF
:100B0000E53E12052380A5AA417B008A828B8322C1
:100B1000AA827421C0E0740BC0E0C034C0358A8260
:100B200022053BE4B53B02053C22AA8274302AFA36
:100B300024C6500A74072AFA3008034302208A8226
:100B4000020B10E582FAC4540FF582C002120B2A80
:100B5000D002740F5AF582020B2AAA36AB37AC3892
:100B6000AD39AE3A754120EE2EFEED235401FF4221
:100B700006EA2AFAEB33FBEC33FCED33FDC3EE95CA
:100B80003D4008EEC3953DFE430201D541D98A366A
:100B90008B378C388D398E3A22858234858335E4C3
:100BA000F53BF53CAA42AB43AC448A828B838CF084
:100BB00012053CFD74012AF542E43BF5438C44EDFB
:100BC000FA7003021129BA25028003021121C20C16
:100BD000C20DC20EC20FC210C211C212C213C2098C
:100BE000C20AC20B753D00753E00753FFFAB42ACBB
:100BF00043AD448B828C838DF012053CFAA3AB820B
:100C0000AC838B428C438D44BA25078A82120B1029
:100C100080928A06BE3000402E8A06EE24C6402707
:100C200074FFB53F13E53E75F00AA4FEEA24D02E0A
:100C3000F53E70BFD20D80BBE53F75F00AA4FEEA19
:100C400024D02EF53F80ACBA2E0A74FFB53FA475B0
:100C50003F00809F8A06BE6100400E8A06EE248512
:100C600040075302DFD2088002C208BA2002807512
:100C7000BA2303020CF4BA2A03020CF9BA2B02803D
:100C80005FBA2D028055BA4202805FBA4303020D5B
:100C90003EBA4403020E79BA4503020E93BA4603E4
:100CA000020E8FBA4703020E97BA4903020E79BAB1
:100CB0004C02803BBA4E03020E9BBA4F03020E80D9
:100CC000BA5003020E12BA5303020D62BA55030260
:100CD0000E85BA5803020E8A020EC5D20C020BF31F
:100CE000D20E020BF3D20F020BF3D211020BF3D28E
:100CF00012020BF3D213020BF374FFB53F20301135
:100D00000BE54514F88845863E020BF3E54524FEC5
:100D1000F888458606088607188E3E020BF33011C8
:100D20000BE54514F88845863F020BF3E54524FEA4
:100D3000F888458606088607188E3F020BF33011A7
:100D40000AE54514F888458602800FE54524FEF83B
:100D500088458603088604188B028A82120B1002CB
:100D60000ECAE54524FDF8884586030886040886F2
:100D70000518188B368C378D388B828C838DF0124A
:100D800011B5AB82AC838B4074FFB53F0385403F08
:100D9000200C1DC3E540953E5016E53EC39540F539
:100DA0003EAB3E153EEB6008758220120B1080F1C1
:100DB0008536828537838538F012053CFBFA602939
:100DC000AB3F153FC3E464808BF063F08095F05037
:100DD000188A82120B10AB36AC37AD380BBB000152
:100DE0000C8B368C378D3880C7200C03020ECAC39B
:100DF000E540953E4003020ECAE53EC39540F53EF0
:100E0000AB3E153EEB7003020ECA758220120B102A
:100E100080EEE54524FDF8884586030886040886AB
:100E20000518188B368C378D38E538FB30E7047A97
:100E3000438013EB546060047A50800AEB30E60480
:100E40007A4980027A588A82C002120B1075823A5F
:100E5000120B10758230120B10758278120B10D0A5
:100E600002BA4902800BBA50028006853782120B03
:100E700043853682120B438051D210753D0A804A59
:100E8000753D088045753D0A8040753D10803BD218
:100E9000098037D20A8033D20B802FE54524FDF834
:100EA0008845860308860408860518188B368C3713
:100EB0008D388B828C838DF0E53B120523A3E53CB6
:100EC00012052380058A82120B10200906200A03CE
:100ED000300B5AE54524FCF888458603088604084B
:100EE00086050886061818188B368C378D388E398B
:100EF00075360075370175388085364685374785E4
:100F0000384874012546FEE43547FFAB488E368FDE
:100F1000378B388546828547838548F012053CFB30
:100F2000FA7003020BA48A82120B1080CCE53D708C
:100F300003020BA47B5030112BE54514F88845E6DD
:100F4000FC3395E0FDFEFF8C368D378E388F3920CF
:100F5000105EAC367D007E007F008C368D378E387B
:100F60008F39804C30121FE54524FCF888458604F3
:100F70000886050886060886071818188C368D37E7
:100F80008E388F39802AE54524FEF8884586040886
:100F9000860518ED3395E0FEFF8C368D378E388F41
:100FA0003920100CAC36AD377E007F008E388F397B
:100FB000301343E53645374538453960397408B54F
:100FC0003D0C758230C003120B10D00380287410C2
:100FD000B53D23758230C003120B10D00330080CCE
:100FE000758278C003120B10D003800A758258C036
:100FF00003120B10D003301025AC36AD37AE38E5F8
:1010000039FF30E717C3E49CFCE49DFDE49EFEE459
:101010009FFF8C368D378E388F398002C210754015
:1010200000D2148B00753A00C000120B5AD0002079
:10103000140DE53AC4FCE6FD4CF61888038002A6C0
:101040003A0540B214E53645374538453970D688FB
:1010500003E53E7003753E01200D1A200C17E54094
:1010600004FCC3953E500E758220C003120B10D0B5
:1010700003153E80E930100E75822DC003120B104F
:10108000D003153E8024E5406020300E0E75822B83
:10109000C003120B10D003153E800F300F0C758269
:1010A00020C003120B10D003153E200C1EAC3E15C1
:1010B0003EC3E5409C5027300D047C3080027C20EC
:1010C0008C82C003120B10D00380E2C3E540953E32
:1010D0005009E53EC39540F53E8003753E008B0008
:1010E000AB401540EB6022B21420140A08E6C45449
:1010F0000FFB8B3A80078603740F5BF53A853A82C3
:10110000C000120B2AD00080D7200C03020BA4AB26
:101110003E153EEB7003020BA4758220120B10806B
:10112000EE8A82120B10020BA4853B82853C83223F
:10113000AA82BA0A0810990280FB75990D109902CB
:1011400080FB8A9922AAF0FBE5828511F0A4FCAD10
:10115000F0E5838511F0A42DFDE435F0FEE58285F0
:1011600012F0A42DFDE5F03EFEE433FFEA8511F018
:10117000A42EFEE5F03FFFE5838512F0A42EFEE5E8
:10118000F03FFFE5828513F0A42EFEE5F03FFFEB74
:101190008511F0A42FFFEA8512F0A42FFFE58385C7
:1011A00013F0A42FFFE5828514F0A42F8EF08D8319
:1011B0008C8222E473AA82AB83ACF07D007E008A2D
:1011C000828B838CF012053CFFA3AA82AB83EF6075
:1011D000070DBD00EA0E80E78D828E83220000009D
:00000001FF
