:030000000204F403
:0100030032CA
:03000B0002036588
:0100130032BA
:01001B0032B2
:0100230032AA
:03002B000203814C
:10002E00C0E0C0D0C000C001C002E4F53CF53DF513
:10003E003EF53FF5407A20E537A2E779047834E6BD
:10004E0033F608D9FA7905783CE636D4F608D9F9AC
:10005E00DAE5D002D001D000D0D0D0E022C0E0C08E
:10006E00D0C000C001C002E4F53CF53DF53EF53FC1
:10007E00F5407A20E537A2E779047834E633F608BE
:10008E00D9FA7905783CC0D0E6243320E70224D093
:10009E0020E30224FDD0D033F608D9EADAD6D00216
:1000AE00D001D000D0D0D0E022C0E0C0D0C000C07F
:1000BE0001C0027A207905C37840E613C0D030E73C
:1000CE000224D030E30224FDF618D0D0D9EC790406
:1000DE007837E613F618D9FADADBD002D001D00061
:1000EE00D0D0D0E022C0E0C0D0E5342538F534E5DC
:1000FE00353539F535E536353AF536E537353BF5EF
:10010E0037D0D0D0E022C0E0C0D0C3E5349538F56A
:10011E0034E5359539F535E536953AF536E53795C5
:10012E003BF537D0D0D0E022C0E0C0D0C3E5349547
:10013E0038E5359539E536953AE537953B9200D059
:10014E00D0D0E022C0E0C0D0C3E5389534E5399573
:10015E0035E53A9536E53B95379200D0D0D0E02282
:10016E00C0E0C0D0C200C3E53895347014E53995AF
:10017E0035700EE53A95367008E53B95377002D22C
:10018E0000D0D0D0E02212016E20000302015222D4
:10019E0012016E20000302013622C0E0C0F0C0D072
:1001AE00C000C001C002C003E5348538F0A4F8A930
:1001BE00F0E5358538F0A429F9E435F0FAE5348513
:1001CE0039F0A429F9E5F03AFAE433FBE53685383F
:1001DE00F0A42AFAE5F03BFBE5358539F0A42AFABE
:1001EE00E5F03BFBE534853AF0A42AFAE5F03BFB5B
:1001FE00E5378538F0A42BFBE5368539F0A42BFBCB
:10020E00E535853AF0A42BFBE534853BF0A42BFBBA
:10021E008B378A3689358834D003D002D001D0008E
:10022E00D0D0D0F0D0E022C0E0C0D0C000C001C01D
:10023E0002C003C0047C20E4F8F9FAFBC3E53433B2
:10024E00F534E53533F535E53633F536E53733F543
:10025E0037E833F8E933F9EA33FAEB33FBC3E895C1
:10026E0038E99539EA953AEB953B4013E89538F81D
:10027E00E99539F9EA953AFAEB953BFB433401DC03
:10028E00BBD004D003D002D001D000D0D0D0E02219
:10029E00C00078B10000D8FCD00022C000C00179A7
:1002AE002D78A6D8FED9FADAF6D001D00022D29354
:1002BE0012029EC29322A2E792B5A2E692B4A2E5E2
:1002CE0092B3A2E492B21202BC12029EA2E392B5C3
:1002DE00A2E292B4A2E192B3A2E092B21202BC22C6
:1002EE00D2910202C4C2910202C4C293C29274336A
:1002FE001202F374331202F374321202F3742812E0
:10030E0002F3740C1202F374011202F3C0027A02A9
:10031E001202A9D00222E49360061202EEA380F626
:10032E0022444044800202F3C0E0E8C4540F44303B
:10033E001202EEE8540F44301202EED0E022E589AC
:10034E0054F04401F589758CEA758AE875F4EA75FE
:10035E00F2E8D2A9D28C2280003275C80075CDA9E0
:10036E0075CC9A75CBA975CA9AE4F530F531D2AD34
:10037E00D2CA22C2CFB2B6C0E0C0D00530E53070CE
:10038E00020531D0D0D0E03279DE78A6D8FED9FA87
:10039E00438780759852759B00759AF4759B1E2243
:1003AE003099FDC299F59922E49360061203AEA32B
:1003BE0080F622D2A6C2A722C0E079007A08E833DE
:1003CE00F892A5D2A7A2A6E933F9C2A7DAF0D0E037
:1003DE002248656C6C6F2C20576F726C64210D0A6D
:1003EE000079DE78A6D8FED9FA32C0E0740714126E
:1003FE00032FD0E0C000A840120336D000C000A8E2
:10040E003F120336D000C000A83E120336D000C003
:10041E0000A83D120336D000C000A83C120336D00F
:10042E0000C0E074071412032FD0E0E54054F0C46E
:10043E0060030204DDC0E074201202EED0E0E5405D
:10044E00540F60030204DDC0E074201202EED0E00F
:10045E00E53F54F0C460030204DDC0E074201202D4
:10046E00EED0E0E53F540F60030204DDC0E07420DF
:10047E001202EED0E0E53E54F0C460030204DDC08B
:10048E00E074201202EED0E0E53E540F6003020449
:10049E00DDC0E074201202EED0E0E53D54F0C46001
:1004AE00030204DDC0E074201202EED0E0E53D54FC
:1004BE000F60030204DDC0E074201202EED0E0E50E
:1004CE003C54F0C47009C0E074201202EED0E02259
:1004DE00C0E0E8C4540F44301203AEE8540F443069
:1004EE001203AED0E02275817F12034C12036875A1
:1004FE00E60075E700D2AF1203969003DF1203B643
:03050E0002050ED5
:00000001FF
