:03000000020604F1
:0100030032CA
:03000B0002037C71
:0100130032BA
:01001B0032B2
:0100230032AA
:03002B0002039835
:10002E00C0E0C0D0C000C001C002E4F540F541F50B
:10003E0042F543F5447A20E53BA2E779047838E6A9
:10004E0033F608D9FA79057840E636D4F608D9F9A8
:10005E00DAE5D002D001D000D0D0D0E022C0E0C08E
:10006E00D0C000C001C002E4F540F541F542F543B1
:10007E00F5447A20E53BA2E779047838E633F608B2
:10008E00D9FA79057840C0D0E6243320E70224D08F
:10009E0020E30224FDD0D033F608D9EADAD6D00216
:1000AE00D001D000D0D0D0E022C0E0C0D0C000C07F
:1000BE0001C0027A207905C37844E613C0D030E738
:1000CE000224D030E30224FDF618D0D0D9EC790406
:1000DE00783BE613F618D9FADADBD002D001D0005D
:1000EE00D0D0D0E022C0E0C0D0E538253CF538E5D0
:1000FE0039353DF539E53A353EF53AE53B353FF5CF
:10010E003BD0D0D0E022C0E0C0D0C3E538953CF55E
:10011E0038E539953DF539E53A953EF53AE53B95A5
:10012E003FF53BD0D0D0E022C0E0C0D0C3E538953B
:10013E003CE539953DE53A953EE53B953F9200D03D
:10014E00D0D0E022C0E0C0D0C3E53C9538E53D9567
:10015E0039E53E953AE53F953B9200D0D0D0E0226E
:10016E00C0E0C0D0C200C3E53C95387014E53D95A3
:10017E0039700EE53E953A7008E53F953B7002D218
:10018E0000D0D0D0E02212016E20000302015222D4
:10019E0012016E20000302013622C0E0C0F0C0D072
:1001AE00C000C001C002C003E538853CF0A4F8A928
:1001BE00F0E539853CF0A429F9E435F0FAE5388507
:1001CE003DF0A429F9E5F03AFAE433FBE53A853C33
:1001DE00F0A42AFAE5F03BFBE539853DF0A42AFAB6
:1001EE00E5F03BFBE538853EF0A42AFAE5F03BFB53
:1001FE00E53B853CF0A42BFBE53A853DF0A42BFBBB
:10020E00E539853EF0A42BFBE538853FF0A42BFBAA
:10021E008B3B8A3A89398838D003D002D001D0007E
:10022E00D0D0D0F0D0E022C0E0C0D0C000C001C01D
:10023E0002C003C0047C20E4F8F9FAFBC3E53833AE
:10024E00F538E53933F539E53A33F53AE53B33F52B
:10025E003BE833F8E933F9EA33FAEB33FBC3E895BD
:10026E003CE9953DEA953EEB953F4013E8953CF809
:10027E00E9953DF9EA953EFAEB953FFB433801DCF3
:10028E00BBD004D003D002D001D000D0D0D0E02219
:10029E005465737420537472696E67006164636A87
:0702AE006D70676F6F6400C3
:1002B500C00078B10000D8FCD00022C000C0017990
:1002C5002D78A6D8FED9FADAF6D001D00022D2933D
:1002D5001202B5C29322A2E792B6A2E692B4A2E5B3
:1002E50092B3A2E492B21202D31202B5A2E392B67D
:1002F500A2E292B4A2E192B3A2E092B21202D32298
:10030500D2910202DBC2910202DBC293C292743324
:1003150012030A743312030A743212030A74281280
:10032500030A740C12030A740112030AC0027A024A
:100335001202C0D00222E4936006120305A380F6E0
:10034500224440448002030AC0E0E8C4540F44300C
:10035500120305E8540F4430120305D0E022E58965
:1003650054F04401F589758CEA758AE875F4EA75E7
:10037500F2E8D2A9D28C2280003275C80075CDA9C9
:1003850075CC9A75CBA975CA9AE4F530F531D2AD1D
:10039500D2CA22C2CFC0E0C0D00530E530B41016B5
:1003A500753000C000A8401205EE740D1203D87414
:1003B5000A1203D8D000D0D0D0E03279DE78A6D8A2
:1003C500FED9FA438780759852759B00759AF47526
:1003D5009B1E223099FDC299F59922E4936006127D
:1003E50003D8A380F622D2A2C2A322C0E079007A64
:1003F50008E833F892A1D2A3A2A2E933F9C2A3DA9D
:10040500F0D0E02248656C6C6F2C20576F726C64DD
:10041500210D0A0079DE78A6D8FED9FA32C0E0743B
:100425000714120346D0E0C000A84412034DD000C3
:10043500C000A84312034DD000C000A84212034DCE
:10044500D000C000A84112034DD000C000A8401242
:10045500034DD000C0E0740714120346D0E0E54414
:1004650054F0C46003020507C0E07420120305D0F0
:10047500E0E544540F6003020507C0E07420120351
:1004850005D0E0E54354F0C46003020507C0E074FD
:1004950020120305D0E0E543540F6003020507C0B1
:1004A500E07420120305D0E0E54254F0C460030275
:1004B5000507C0E07420120305D0E0E542540F6043
:1004C50003020507C0E07420120305D0E0E541549E
:1004D500F0C46003020507C0E07420120305D0E0F4
:1004E500E541540F6003020507C0E07420120305BF
:1004F500D0E0E54054F0C47009C0E0742012030553
:10050500D0E022C0E0740714120348D0E0C000A870
:100515004412034DD000C000A84312034DD000C0C3
:1005250000A84212034DD000C000A84112034DD0CF
:1005350000C000A84012034DD000C0E0740714129B
:100545000348D0E0E54454F0C460030205EDC0E083
:100555007420120305D0E0E544540F60030205ED55
:10056500C0E07420120305D0E0E54354F0C46003F5
:100575000205EDC0E07420120305D0E0E543540FF9
:1005850060030205EDC0E07420120305D0E0E542EA
:1005950054F0C460030205EDC0E07420120305D0D9
:1005A500E0E542540F60030205EDC0E0742012033C
:1005B50005D0E0E54154F0C460030205EDC0E074E8
:1005C50020120305D0E0E541540F60030205EDC09C
:1005D500E07420120305D0E0E54054F0C47009C072
:1005E500E07420120305D0E022C0E0E8C4540F44B3
:1005F500301203D8E8540F44301203D8D0E02275E6
:10060500817F12037F75E60075E700D2AF1203C044
:100615009004091203E01203EB12030FC2A0780144
:100625001203F078801203F0E95403F5337855127C
:1006350003F08932D2A0853238853339753A007591
:100645003B00753CFB753D0F753E00753F00120183
:10065500A8753CFF753D03753E00753F00120235D8
:10066500753CAA753D0A753E00753F00120114756B
:100675003C0A753D00753E00753F001202351200BB
:100685002E120422120419C2A078011203F078A0D8
:100695001203F0E95403F53778551203F08936D281
:1006A500A0853638853739753A00753B00753CFBB2
:1006B500753D0F753E00753F001201A8753CFF752D
:1006C5003D03753E00753F00120235753CE8753DEA
:1006D50003753E00753F00120235C2A07801120372
:1006E500F078A01203F0E95403F53778551203F0BA
:1006F5008936D2A0853638853739753A00753B007D
:10070500753CFB753D0F753E00753F001201A875E0
:100715003CFF753D03753E00753F00120235753C83
:10072500E8753D03753E00753F00120235E537B4A7
:100735000002805BC2A078011203F078A01203F0DA
:10074500E95403F53778551203F08936D2A085367A
:1007550038853739753A00753B00753CFB753D0F9B
:10076500753E00753F001201A8753CFF753D037588
:100775003E00753F00120235753CE8753D03753E38
:1007850000753F00120235E537B400A8020797024D
:100795000621C0E0740114120348D0E0C083C08272
:1007A500C0E09002AA12033BD0E0D082D0830206BB
:0107B5002122
:00000001FF
