:03000000020735BF
:0100030032CA
:03000B0002036588
:0100130032BA
:01001B0032B2
:0100230032AA
:03002B000203814C
:10002E00C0E0C0D0C000C001C002E4F53FF540F50D
:10003E0041F542F5437A20E53AA2E779047837E6AE
:10004E0033F608D9FA7905783FE636D4F608D9F9A9
:10005E00DAE5D002D001D000D0D0D0E022C0E0C08E
:10006E00D0C000C001C002E4F53FF540F541F542B5
:10007E00F5437A20E53AA2E779047837E633F608B5
:10008E00D9FA7905783FC0D0E6243320E70224D090
:10009E0020E30224FDD0D033F608D9EADAD6D00216
:1000AE00D001D000D0D0D0E022C0E0C0D0C000C07F
:1000BE0001C0027A207905C37843E613C0D030E739
:1000CE000224D030E30224FDF618D0D0D9EC790406
:1000DE00783AE613F618D9FADADBD002D001D0005E
:1000EE00D0D0D0E022C0E0C0D0E537253BF537E5D3
:1000FE0038353CF538E539353DF539E53A353EF5D7
:10010E003AD0D0D0E022C0E0C0D0C3E537953BF561
:10011E0037E538953CF538E539953DF539E53A95AD
:10012E003EF53AD0D0D0E022C0E0C0D0C3E537953E
:10013E003BE538953CE539953DE53A953E9200D044
:10014E00D0D0E022C0E0C0D0C3E53B9537E53C956A
:10015E0038E53D9539E53E953A9200D0D0D0E02273
:10016E00C0E0C0D0C200C3E53B95377014E53C95A6
:10017E0038700EE53D95397008E53E953A7002D21D
:10018E0000D0D0D0E02212016E20000302015222D4
:10019E0012016E20000302013622C0E0C0F0C0D072
:1001AE00C000C001C002C003E537853BF0A4F8A92A
:1001BE00F0E538853BF0A429F9E435F0FAE537850A
:1001CE003CF0A429F9E5F03AFAE433FBE539853B36
:1001DE00F0A42AFAE5F03BFBE538853CF0A42AFAB8
:1001EE00E5F03BFBE537853DF0A42AFAE5F03BFB55
:1001FE00E53A853BF0A42BFBE539853CF0A42BFBBF
:10020E00E538853DF0A42BFBE537853EF0A42BFBAE
:10021E008B3A8A3989388837D003D002D001D00082
:10022E00D0D0D0F0D0E022C0E0C0D0C000C001C01D
:10023E0002C003C0047C20E4F8F9FAFBC3E53733AF
:10024E00F537E53833F538E53933F539E53A33F531
:10025E003AE833F8E933F9EA33FAEB33FBC3E895BE
:10026E003BE9953CEA953DEB953E4013E8953BF80E
:10027E00E9953CF9EA953DFAEB953EFB433701DCF7
:10028E00BBD004D003D002D001D000D0D0D0E02219
:10029E00C00078B10000D8FCD00022C000C00179A7
:1002AE002D78A6D8FED9FADAF6D001D00022D29354
:1002BE0012029EC29322A2E792B6A2E692B4A2E5E1
:1002CE0092B3A2E492B21202BC12029EA2E392B6C2
:1002DE00A2E292B4A2E192B3A2E092B21202BC22C6
:1002EE00D2910202C4C2910202C4C293C29274336A
:1002FE001202F374331202F374321202F3742812E0
:10030E0002F3740C1202F374011202F3C0027A02A9
:10031E001202A9D00222E49360061202EEA380F626
:10032E0022444044800202F3C0E0E8C4540F44303B
:10033E001202EEE8540F44301202EED0E022E589AC
:10034E0054F04401F589758CEA758AE875F4EA75FE
:10035E00F2E8D2A9D28C2280003275C80075CDA9E0
:10036E0075CC9A75CBA975CA9AE4F530F531D2AD34
:10037E00D2CA22C2CFB2B6C0E0C0D00530E53070CE
:10038E00150531C000A83F120651740D1203DB741F
:10039E000A1203DBD000E530B4C815E531B4001005
:1003AE00D201B28CE4F530F531E5362401D4F536C0
:1003BE00D0D0D0E03279DE78A6D8FED9FA43878045
:1003CE00759852759B00759AF4759B1E223099FD97
:1003DE00C299F59922E49360061203DBA380F622FC
:1003EE00D2A2C2A322C0E079007A08E833F892A123
:1003FE00D2A3A2A2E933F9C2A3DAF0D0E022486573
:10040E006C6C6F2C20576F726C64210D0A0079DEB4
:10041E0078A6D8FED9FA32C0E074071412032FD092
:10042E00E0C000A843120336D000C000A842120359
:10043E0036D000C000A841120336D000C000A8403C
:10044E00120336D000C000A83F120336D000C0E021
:10045E0074071412032FD0E0E54354F0C460030276
:10046E00050AC0E074201202EED0E0E543540F609E
:10047E000302050AC0E074201202EED0E0E54254F9
:10048E00F0C4600302050AC0E074201202EED0E050
:10049E00E542540F600302050AC0E074201202EE1A
:1004AE00D0E0E54154F0C4600302050AC0E07420B8
:1004BE001202EED0E0E541540F600302050AC0E0DF
:1004CE0074201202EED0E0E54054F0C46003020541
:1004DE000AC0E074201202EED0E0E540540F600333
:1004EE0002050AC0E074201202EED0E0E53F54F09F
:1004FE00C47009C0E074201202EED0E022C0E07495
:10050E000714120331D0E0C000A843120336D00006
:10051E00C000A842120336D000C000A84112033614
:10052E00D000C000A840120336D000C000A83F1271
:10053E000336D000C0E0740714120331D0E0E54357
:10054E0054F0C460030205F0C0E074201202EED035
:10055E00E0E543540F60030205F0C0E07420120280
:10056E00EED0E0E54254F0C460030205F0C0E07442
:10057E00201202EED0E0E542540F60030205F0C0F7
:10058E00E074201202EED0E0E54154F0C4600302A4
:10059E0005F0C0E074201202EED0E0E541540F6089
:1005AE00030205F0C0E074201202EED0E0E54054E4
:1005BE00F0C460030205F0C0E074201202EED0E039
:1005CE00E540540F60030205F0C0E074201202EE05
:1005DE00D0E0E53F54F0C47009C0E074201202EE82
:1005EE00D0E022C000A843120651740D1203DB7432
:1005FE000A1203DBD000C000A842120651740D127D
:10060E0003DB740A1203DBD000C000A841120651AE
:10061E00740D1203DB740A1203DBD000C000A84075
:10062E00120651740D1203DB740A1203DBD000C0E4
:10063E0000A83F120651740D1203DB740A1203DB7D
:10064E00D00022C0E0E8C4540F44301203DBE8545B
:10065E000F44301203DBD0E022C2A078011203F364
:10066E0078801203F3E95403F53378551203F389B6
:10067E0032D2A0853237853338753900753A00226B
:10068E00C2A078011203F378901203F3E95403F534
:10069E003578551203F38934D2A085343785353831
:1006AE00753900753A0022753B00753C10753D009A
:1006BE00753E001201A8753BFF753C03753D007534
:1006CE003E00120235753BAA753C0A753D00753E1B
:1006DE0000120114753B0A753C00753D00753E0015
:1006EE0012023512002E22753BF1753C0F753D003E
:1006FE00753E001201A8753BFF753C03753D0075F4
:10070E003E00120235753BF7753C00753D00753E97
:10071E00001201A8753BD0753C07753D00753E0073
:10072E0012023512002E2275817F12036875E600C3
:10073E0075E700D2AF1203C390040C1203E3120349
:10074E00EE1202F8003001FDC2011206671206B564
:10075E0012042512068E1206F51205F112050B1261
:06076E00041C02075222E8
:00000001FF
