:1000000002002E752300752400752500C200220011
:10002000000000000000000000000002026E758168
:1000300075120758E582600302009A780079007A09
:10004000007B007C007D00EC4D601C88828983E48D
:1000500093A3A882A9838A828B83F0A3AA82AB830D
:100060001CBCFFE31D80E07582007583007C007D71
:1000700000EC4D600AE4F0A31CBCFFF51D80F27596
:1000800082007583007C007D00EC4D600AE4F0A3E3
:100090001CBCFFF51D80F212000312084F80FE25E4
:1000A0002A732025640044757479204379636C6554
:1000B00020302073657420746F3A2025750D0A0076
:1000C00044757479204379636C65203120736574BD
:1000D00020746F3A2025750D0A00252A7320257596
:1000E00000496E76616C6964206469726563746945
:1000F0006F6E2E20557365202D6377206F72202D33
:100100006363770D0A0048656C70204D656E750D50
:100110000A4C697374206F6620436F6D6D616E6465
:10012000733A200D0A2D6377205B6475747920760D
:10013000616C75655D0D0A2D636377205B64757472
:10014000792076616C75655D0D0A2D6430205B64E5
:100150007574792076616C75655D0D0A2D643120AA
:100160005B647574792076616C75655D0D0A2D662A
:10017000205B667265712076616C75655D0D0A2D78
:1001800072205B72656C6F61642076616C75655D71
:100190000D0A2D6F0D0A2D730D0A2D690D0A0A0027
:1001A00052656C6F61643A2025752C20467265712A
:1001B0003A2025642C2064757479303A2025642C0B
:1001C0002064757479313A2025640D0A0022257364
:1001D0002220696E76616C696420636F6D6D616E5B
:1001E000640D0A004E6F742056616C696420696E5C
:1001F0007075740D0A004C41422036204D696372BF
:100200006F636F6E74726F6C6C65720D0A576974F0
:1002100068206578747261206665617475726573B3
:100220000D0A0A0044757479206379636C653A009D
:1002300025642563202564256300456E746572205E
:10024000636F6D6D616E643A200D0A003C4E4F2065
:10025000464C4F41543E0075C800858E8E75CAA825
:1002600075CBFD75CEFF75CFFFD2ADD2CA22C0E0EF
:10027000C0D075D000D200C2CF0523E523249B5007
:1002800003752300C3E52495239201B392A0C3E52F
:100290002595239201B39297C200D0D0D0E032AA24
:1002A00082AB83ACF07427C0E07400C0E07440C03F
:1002B000E0749FC0E07400C0E07480C0E0C002C081
:1002C00003C0041209B2E58124F7F581C374649573
:1002D00027E495285006752764E4F528E526702064
:1002E000852724AA24FBC002C00374A6C0E07400C2
:1002F000C0E07480C0E0120A47E58124FBF581224A
:100300007401B52620852725AA257B00C002C003DD
:1003100074C0C0E07400C0E07480C0E0120A47E519
:100320008124FBF58122AA82AB838A188B19751A66
:1003300000751B0090EA60E4F5F01209E0AA82ABB8
:1003400083ACF0FDE4C39AFAE49BFB74019CE49D4A
:100350008A828B8322AA82AB837C00E4FDC39AF558
:1003600018E49BF51974019CF51AE49DF51B908D1A
:100370008075F05BE41209E0AA82AB83ACF0FD75F6
:100380001864E4F519F51AF51B8A828B838CF0ED5D
:100390000209E0AA82AB83ACF07429C0E07400C00B
:1003A000E07440C0E074DAC0E07400C0E07480C063
:1003B000E0C002C003C0041209B2E58124F7F58150
:1003C0002000FD852982852A831203268582CA851D
:1003D00083CB22AA82AB83ACF0742BC0E07400C044
:1003E000E07440C0E074DAC0E07400C0E07480C023
:1003F000E0C002C003C0041209B2E58124F7F58110
:100400002000FD852BCA852CCB22AA82AB83ACF0C1
:10041000C002C003C004742DC0E07400C0E074408A
:10042000C0E074DAC0E07400C0E07480C0E0C002D4
:10043000C003C0041209B2E58124F7F581D004D0CD
:1004400003D00274022AFAE43BFB8A828B838CF08D
:100450001208FBFABA7707852D2475250022BA63A6
:1004600007852D257524002274E1C0E07400C0E0EA
:100470007480C0E0120A4715811581158122C2A03F
:10048000C297C2CA22D2CA22AA82AB83ACF0120897
:10049000FBFDBD2D0280030205C474012AFDE43B6F
:1004A000FE8C078D828E838FF01208FBFDBD6302E8
:1004B0008029BD6402802DBD66028059BD6802801E
:1004C0005DBD6902806EBD6F03020591BD720302BE
:1004D0000571BD730302057A0205A88A828B838C9D
:1004E000F002040A74022AFDE43BFE8C078D828E22
:1004F000838FF01208FBFDBD300C7526008A828BBD
:10050000838CF002029FBD310C7526018A828B8399
:100510008CF002029F8A828B838CF0020393740614
:10052000C0E07401C0E07480C0E0120A4715811574
:1005300081158122AD257E0085242F75300085CA66
:100540008285CB83C005C006120355A982AF83C044
:100550002FC030C001C007C0CAC0CB74A0C0E074B7
:1005600001C0E07480C0E0120A47E58124F5F581FE
:10057000228A828B838CF00203D374022AFDE43B2F
:10058000FE8C078D828E838FF01208FB704B020465
:100590008574022AFDE43BFE8C078D828E838FF0EA
:1005A0001208FB703402047EC002C003C00474CD84
:1005B000C0E07401C0E07480C0E0120A47E5812405
:1005C000FAF5812274E4C0E07401C0E07480C0E0F8
:1005D000120A4715811581158122AA82438E407522
:1005E00092B87593FF8592948593957591047B00DD
:1005F000C3EB9A500BE59130E7FB53917F0B80F0F2
:1006000075910022AA82AB837C007D00C3EC9AED39
:100610009B502B7E00BE0400501D7582FAC002C0A4
:1006200003C004C005C0061205DAD006D005D00408
:10063000D003D0020E80DE0CBC00D10D80CE22D2C1
:10064000A57582281205DAC2A522AA828AE0A2E74D
:1006500092A1A2E692A2A2E592A3A2E492A4C00271
:1006600012063F7582281205DAD0028AE0A2E392D0
:10067000A1A2E292A2A2E192A3A2E092A402063F6A
:10068000AA82D2A68A8212064A900002020604AA10
:1006900082C2A68A8212064A900005020604C2A5FA
:1006A00090001412060475823312068F758233127D
:1006B000068F75823212068F75822812068F758218
:1006C0000C12068F75820112068F90001402060428
:1006D000AA82AB83ACF07402B531047DC080027D88
:1006E000808D82C002C003C00412068F90000512E4
:1006F0000604D004D003D0027D007E00ED2AFFEE78
:100700003BF88C018F82888389F01208FBFF602000
:100710008F82C002C003C004C005C006120680D08C
:1007200006D005D004D003D0020DBD00CF0E80CC82
:100730003002248D028E03C3EA9410EB648094800F
:100740005015758220C002C003120680D003D0026B
:100750000ABA00E30B80E02275A7007597DE759753
:10076000AD43FF8075EF0275A71075C12075A70016
:1007700075A90075A900E5A930E7FB75A90375A95E
:1007800003E5A930E7FB43A41075E10175E210759C
:10079000E340759810858E8E758DE6858D8B538917
:1007A0000F438920D28ED299D2AF758200228582E2
:1007B0003485833585F036E4F537F538E53224FFA6
:1007C000FFE53334FFF879007A00C3E99FEA6480DB
:1007D00088F063F08095F05059C002C007C000C097
:1007E00001120A68AB82D001D000D007D002BB0A48
:1007F000028003BB0D1DE5372534FCE5383535FD9A
:10080000AE368C828D838EF0E4120A7B853782852A
:10081000388322E92534FCEA3535FDAE368C828DED
:10082000838EF0EB120A7B09B900010A89378A38F6
:100830008098E5372534FAE5383535FBAC368A82C1
:100840008B838CF0E4120A7B8532828533832212FB
:10085000025712069E9001F412060474F6C0E0746A
:1008600001C0E07480C0E0120A471581158115812E
:10087000753101D20290022475F0801206D0AA25AB
:100880007B00AC247D007425C0E0E4C0E0C002C061
:10089000037425C0E0E4C0E0C004C0057430C0E0CB
:1008A0007402C0E07480C0E07439C0E07400C0E03D
:1008B0007440C0E0120AE3E58124F2F5817531024B
:1008C000D20290003975F0401206D0743AC0E0743C
:1008D00002C0E07480C0E0120A47158115811581BD
:1008E000753210E4F53390003975F0401207AE9080
:1008F000003975F04012048802087E20F71430F6A3
:10090000148883A88220F507E6A88375830022E275
:1009100080F7E49322E022FB7A20E4FCFDFEFFE571
:10092000822582F582E58333F583E5F033F5F0EB3C
:1009300033FB4017DAE98042E5822582F582E583C0
:1009400033F583E5F033F5F0EB33FBEC33FCED33BB
:10095000FDEE33FEEF33FFEC9518ED9519EE951A89
:10096000EF951B4013EC9518FCED9519FDEE951ACB
:10097000FEEF951BFF438201DABEEB22AA08AB090A
:10098000AC0A8A828B838CF01208FBFA0508E4B566
:10099000080205098A822285820885830985F00A72
:1009A000850B59850C5A850D5B850E5C90097C0280
:1009B0000D39C00F85810FE50F24F8F55CE50F2494
:1009C000FBF8860808860908860AE50F24F8F886E9
:1009D0005908865A08865B90097C120D39D00F227F
:1009E000FBC2D530E715D2D5E4C39582F582E495F4
:1009F00083F583E495F0F5F0E49BFBE51B30E71706
:100A0000B2D5E4C39518F518E49519F519E4951ACB
:100A1000F51AE4951BF51BEB12091730D513FBE40F
:100A2000C39582F582E49583F583E495F0F5F0E4CF
:100A30009B2202170185825785835885F0598517B7
:100A40005A900A3202116AC00F85810FE50F24FB0C
:100A5000F55AE50F24FBF886570886580886599002
:100A60000A3212116AD00F2210980280FBAA998ACA
:100A700082C002121701D0028A822220F71030F6BB
:100A8000118883A88220F507F6A88375830022F2D7
:100A900080F7F022AA82AB10AC11AD128B828C834E
:100AA0008DF0EA120A7B0510E4B5100205112285CB
:100AB000821085831185F01285135785145885158A
:100AC0005985165A900A9412116AAA82AB83AC1007
:100AD000AD11AE128C828D838EF0E4120A7B8A8275
:100AE0008B8322C00F85810FE50F24F8F55AE50F9F
:100AF00024FBF88610088611088612E50F24F8F802
:100B00008657088658088659900A9412116AAA8254
:100B1000AB83AC10AD11AE128C828D838EF0E412DB
:100B20000A7B8A828B83D00F22854982854A831271
:100B30001784858258E558600A0552E4B5520605C7
:100B4000538002D206855882227A007B0030060547
:100B50007866760022C002C003120B29AC82D00353
:100B6000D002BC0002802DBC08028014BC090280A7
:100B700023BC0A02801EBC0D028019BC20218014F7
:100B8000EA4B60D11ABAFF011B155274FFB552022D
:100B9000155380C1EA4B60BDEA2466F8760022EC6A
:100BA0007009EA2466F87600D20622ECB55707EA07
:100BB0002466F8760022C3EA940FEB940050968ADC
:100BC000058B060ABA00010BED2466F8A604020B99
:100BD00055AA827B7FC3EA648094B0401174B98ABD
:100BE000F063F08095F04006EA24D0FB8030C3EA41
:100BF000648094C1401174C68AF063F08095F0401F
:100C00000674C92AFB8017C3EA648094E1400F741C
:100C1000E68AF063F08095F0400474A92AFBC3EBE8
:100C2000955450038B822275827F22AA82754E00D2
:100C3000754F007550007551008A00E6FA60148AFD
:100C400082C000120BD1AB82D000C3EB955440039D
:100C50000880E886038B82C000120BD1AA82D000E4
:100C6000C3E5549A4050855418751900751A0075DB
:100C70001B00854E82854F838550F0E551C002C030
:100C800000121716AB82AC83ADF0FED000D0028B01
:100C90004E8C4F8D508E51E4FBFCFDEA254EFAEB55
:100CA000354FFBEC3550FCED3551FD8A4E8B4F8CAA
:100CB000508D5108809D854E82854F838550F0E58B
:100CC0005122AA82754E00754F0075500075510073
:100CD0008A00E6FB60228B82C003C000120BD1ACFD
:100CE00082D000D003C3EC9554400DBB2D02800888
:100CF000BB2B0280030880DA88028603BB2D03D356
:100D00008001C39209BB2D028003BB2B010A8A829A
:100D1000120C2B300913C3E4954EFAE4954FFBE413
:100D20009550FCE49551FD8008AA4EAB4FAC50ADF8
:100D3000518A828B838CF0ED2285824985834AE437
:100D4000F552F553F556C206AA59AB5AAC5B8A82E6
:100D50008B838CF01208FBFD74012AF559E43BF5F6
:100D60005A8C5BEDFA70030210D8BA250280030298
:100D70001071D205C203755400755500C207C20830
:100D8000AB59AC5AAD5B8B828C838DF01208FBFAA9
:100D9000A3AB82AC838B598C5A8D5B8B828C838DF9
:100DA000F01208FBF5578A06BE300040168A06EEA0
:100DB00024C6400FE55575F00AA4FEEA24D02EF5AE
:100DC0005580C38A06BE6100400A8A06EE2485402B
:100DD000035302DFBA250280ADBA2A028045BA4227
:100DE000028036BA43028040BA4403020EECBA498C
:100DF00003020EECBA4C028025BA4E03020EFFBA73
:100E00004F03020EF1BA53028020BA5503020EEAD4
:100E1000BA5803020EF8020F27D203020D86D2043D
:100E2000020D86D207020D86D208200717E55C2442
:100E3000FDF8885C860308860408860518188B4B25
:100E40008C4C8D4DE555700B3008047B0180027B86
:100E5000FF8B55755400C3E55495555005120B2969
:100E6000AA82300607E5547003020F27EA601ABA17
:100E70002002800DBA09028008BA0D028003BA0A66
:100E800003300805E555B5541FE55460C920071225
:100E90000556AB4BAC4CAD4D8B828C838DF0E41280
:100EA0000A7B755400020F27BA081CE55460A7207E
:100EB0000711AB4BAC4CAD4D1BBBFF011C8B4B8CDE
:100EC0004C8D4D1554808F20071BAB4BAC4CAD4D5A
:100ED0008B828C838DF0EA120A7B0BBB00010C8B9A
:100EE0004B8C4C8D4D0554020E56C20575540A802C
:100EF00036C205755408802FC2057554108028E548
:100F00005C24FDF8885C86030886040886051818AA
:100F10008B4B8C4C8D4D8B828C838DF0E552120A5D
:100F20007BA3E553120A7BE5547003021071120B88
:100F3000497866E67003021071300703021071E50C
:100F40005C24FDF8885C860308860408860518186A
:100F50008B4B8C4C8D4D0556200503020FEA300457
:100F600035854B5D854C5E854D5F758266120CC282
:100F7000AE82AF83ABF0FC855D82855E83855FF0DA
:100F8000EE120A7BA3EF120A7BA3EB120A7BA3ECFF
:100F9000120A7B021071300326854B5D854C5E85FD
:100FA0004D5F758266120CC2AE82AF83ABF0FC85DA
:100FB0005D82855E83855FF0EE120A7B021071858B
:100FC0004B5D854C5E854D5F758266120CC2AE82AC
:100FD000AF83ABF0FC855D82855E83855FF0EE12AA
:100FE0000A7BA3EF120A7B021071300434854B5D3B
:100FF000854C5E854D5F758266120C2BAE82AF8389
:10100000ABF0FC855D82855E83855FF0EE120A7B26
:10101000A3EF120A7BA3EB120A7BA3EC120A7B80DC
:1010200050300325854B5D854C5E854D5F7582662E
:10103000120C2BAE82AF83ABF0FC855D82855E83A4
:10104000855FF0EE120A7B8028854B5D854C5E85BE
:101050004D5F758266120C2BAE82AF83ABF0FC85C0
:101060005D82855E83855FF0EE120A7BA3EF120A34
:101070007B200603020D48AB59AC5AAD5B8B828CCA
:10108000838DF01208FBFEA3AB82AC838B598C5A84
:101090008D5BEEFA7003020D48BA25E18B828C83DA
:1010A0008DF01208FBFABA6E028003BA4ECFE55CEF
:1010B00024FDF8885C860208860608860718188AC8
:1010C0004B8E4C8F4D8A828E838FF0E552120A7BB5
:1010D000A3E553120A7B80A5AA567B008A828B83E4
:1010E00022AA8274F2C0E07410C0E0C049C04A8AEB
:1010F00082220550E4B55002055122AA8274302A9A
:10110000FA24C6500A74072AFA300A034302208AD6
:10111000820210E1E582FAC4540FF582C002121077
:10112000FBD002740F5AF5820210FBAA4BAB4CACF9
:101130004DAD4EAE4F755620EE2EFEED235401FF01
:101140004206EA2AFAEB33FBEC33FCED33FDC3EE47
:1011500095524008EEC39552FE430201D556D98AF6
:101160004B8B4C8C4D8D4E8E4F2285824985834A08
:10117000E4F550F551AA57AB58AC598A828B838C51
:10118000F01208FBFD74012AF557E43BF5588C5921
:10119000EDFA70030216FABA250280030216F2C2B3
:1011A0000EC20FC210C211C212C213C214C215C2A3
:1011B0000BC20CC20D7552007553007554FFAB572E
:1011C000AC58AD598B828C838DF01208FBFAA3AB1F
:1011D00082AC838B578C588D59BA25078A8212109E
:1011E000E180928A06BE3000402E8A06EE24C64078
:1011F0002774FFB55413E55375F00AA4FEEA24D012
:101200002EF55370BFD20F80BBE55475F00AA4FED3
:10121000EA24D02EF55480ACBA2E0A74FFB554A43B
:10122000755400809F8A06BE6100400E8A06EE2437
:101230008540075302DFD20A8002C20ABA20028028
:1012400075BA23030212C5BA2A030212CABA2B02C4
:10125000805FBA2D028055BA4202805FBA43030212
:10126000130FBA440302144ABA4503021464BA467F
:1012700003021460BA4703021468BA490302144A0D
:10128000BA4C02803BBA4E0302146CBA4F030214EC
:1012900051BA50030213E3BA5303021333BA55038E
:1012A000021456BA580302145B021496D20E0211AD
:1012B000C4D2100211C4D2110211C4D2130211C43B
:1012C000D2140211C4D2150211C474FFB5542030D7
:1012D000130BE55A14F8885A86530211C4E55A24B0
:1012E000FEF8885A8606088607188E530211C43005
:1012F000130BE55A14F8885A86540211C4E55A248F
:10130000FEF8885A8606088607188E540211C430E3
:10131000130AE55A14F8885A8602800FE55A24FE0B
:10132000F8885A8603088604188B028A821210E114
:1013300002149BE55A24FDF8885A8603088604089F
:10134000860518188B4B8C4C8D4D8B828C838DF0C1
:10135000121786AB82AC838B5574FFB55403855549
:1013600054200E1DC3E55595535016E553C39555AE
:10137000F553AB531553EB60087582201210E180D2
:10138000F1854B82854C83854DF01208FBFBFA609A
:1013900029AB541554C3E464808BF063F08095F05E
:1013A00050188A821210E1AB4BAC4CAD4D0BBB0018
:1013B000010C8B4B8C4C8D4D80C7200E0302149B6F
:1013C000C3E5559553400302149BE553C39555F56A
:1013D00053AB531553EB700302149B75822012100C
:1013E000E180EEE55A24FDF8885A86030886040851
:1013F000860518188B4B8C4C8D4DE54DFB30E70462
:101400007A438013EB546060047A50800AEB30E634
:10141000047A4980027A588A82C0021210E17582E9
:101420003A1210E17582301210E17582781210E1E3
:10143000D002BA4902800BBA50028006854C821253
:101440001114854B821211148051D21275520A80E8
:101450004A755208804575520A8040755210803B8B
:10146000D20B8037D20C8033D20D802FE55A24FD69
:10147000F8885A860308860408860518188B4B8C52
:101480004C8D4D8B828C838DF0E550120A7BA3E549
:1014900051120A7B80058A821210E1200B06200C73
:1014A00003300D5AE55A24FCF8885A86030886044E
:1014B0000886050886061818188B4B8C4C8D4D8EA7
:1014C0004E754B4C754C02754D80854B5B854C5C65
:1014D000854D5D7401255BFEE4355CFFAB5D8E4B95
:1014E0008F4C8B4D855B82855C83855DF01208FB9C
:1014F000FBFA70030211758A821210E180CCE5526A
:1015000070030211757B6530132BE55A14F8885A65
:10151000E6FC3395E0FDFEFF8C4B8D4C8E4D8F4EDF
:1015200020125EAC4B7D007E007F008C4B8D4C8E7C
:101530004D8F4E804C30141FE55A24FCF8885A8693
:10154000040886050886060886071818188C4B8D2F
:101550004C8E4D8F4E802AE55A24FEF8885A860418
:1015600008860518ED3395E0FEFF8C4B8D4C8E4DB3
:101570008F4E20120CAC4BAD4C7E007F008E4D8FF9
:101580004E301543E54B454C454D454E603974088A
:10159000B5520C758230C0031210E1D0038028745C
:1015A00010B55223758230C0031210E1D003300A07
:1015B0000C758278C0031210E1D003800A7582583E
:1015C000C0031210E1D003301225AC4BAD4CAE4D30
:1015D000E54EFF30E717C3E49CFCE49DFDE49EFE6E
:1015E000E49FFF8C4B8D4C8E4D8F4E8002C2127546
:1015F0005500D2168B00754F00C00012112BD00081
:1016000020160DE54FC4FCE6FD4CF6188803800259
:10161000A64F0555B216E54B454C454D454E70D687
:101620008803E5537003755301200F1A200E17E548
:101630005504FCC39553500E758220C0031210E16F
:10164000D003155380E930120E75822DC00312109D
:10165000E1D00315538024E555602030100E7582CB
:101660002BC0031210E1D0031553800F30110C75FD
:101670008220C0031210E1D0031553200E1EAC537C
:101680001553C3E5559C5027300F047C3080027CF5
:10169000208C82C0031210E1D00380E2C3E555958F
:1016A000535009E553C39555F55380037553008B8B
:1016B00000AB551555EB6022B21620160A08E6C499
:1016C000540FFB8B4F80078603740F5BF54F854FDC
:1016D00082C0001210FBD00080D7200E03021175CB
:1016E000AB531553EB70030211757582201210E194
:1016F00080EE8A821210E102117585508285518335
:1017000022AA82BA0A0810990280FB75990D1099D5
:101710000280FB8A9922AAF0FBE5828518F0A4FCDE
:10172000ADF0E5838518F0A42DFDE435F0FEE582EB
:101730008519F0A42DFDE5F03EFEE433FFEA85189F
:10174000F0A42EFEE5F03FFFE5838519F0A42EFE00
:10175000E5F03FFFE582851AF0A42EFEE5F03FFF9D
:10176000EB8518F0A42FFFEA8519F0A42FFFE5837D
:10177000851AF0A42FFFE582851BF0A42F8EF08D33
:10178000838C8222E473AA82AB83ACF07D007E005E
:101790008A828B838CF01208FBFFA3AA82AB83EFB3
:1017A00060070DBD00EA0E80E78D828E8322000067
:00000001FF
