:1000000002008E752300752432752500C20022007F
:100020000000000000000000000000020379000052
:1000800000000000000000000000000203BE7581B7
:100090007812096FE58260030200FA780079007A2D
:1000A000007B007C007D00EC4D601C88828983E42D
:1000B00093A3A882A9838A828B83F0A3AA82AB83AD
:1000C0001CBCFFE31D80E07582007583007C007D11
:1000D00000EC4D600AE4F0A31CBCFFF51D80F27536
:1000E00082007583007C007D00EC4D600AE4F0A383
:1000F0001CBCFFF51D80F2120003120A6B80FE5338
:10010000656E743A2025640D0A0063206572720DD5
:100110000A00252A7320256320256300252A7320E1
:1001200025640044757479204379636C6520302020
:1001300073657420746F3A2025750D0A0044757438
:1001400079204379636C6520312073657420746F66
:100150003A2025750D0A00252A7320257500496E61
:1001600076616C696420646972656374696F6E2E70
:1001700020557365202D6377206F72202D63637780
:100180000D0A0048656C70204D656E750D0A4C694E
:100190007374206F6620436F6D6D616E64733A20D7
:1001A0000D0A2D6377205B647574792076616C7518
:1001B000655D0D0A2D636377205B64757479207625
:1001C000616C75655D0D0A2D6430205B6475747912
:1001D0002076616C75655D0D0A2D6431205B647558
:1001E00074792076616C75655D0D0A2D66205B66FD
:1001F0007265712076616C75655D0D0A2D72205BEC
:1002000072656C6F61642076616C75655D0D0A2D99
:100210006F0D0A2D730D0A2D690D0A0A0052656CC7
:100220006F61643A2025752C20467265713A20254D
:10023000642C2064757479303A2025642C20647510
:100240007479313A2025640D0A0022257322206931
:100250006E76616C696420636F6D6D616E640D0A0A
:10026000004E6F742056616C696420696E707574FD
:100270000D0A004C41422036204D6963726F636F56
:100280006E74726F6C6C65720D0A576974682065C4
:10029000787472612066656174757265730D0A0AFF
:1002A0000044757479206379636C653A0025642590
:1002B00063202564256300456E74657220636F6D4D
:1002C0006D616E643A200D0A003C4E4F20464C4F43
:1002D00041543E00AA82AB83ACF0FD75A720759314
:1002E0000C75C8107594008A188B198C1A8D1B9088
:1002F000A20075F04A7404120B3AAA82AB83ACF0E8
:10030000FD751818E4F519F51AF51B8A828B838C94
:10031000F0ED120B3AAA82AB83ACF0FDE4C39AFA7B
:10032000E49BFB74019CE49D8A958B96D2C943940F
:100330004075A70022AA8275A720BA0A0810C90230
:1003400080FB75920D10C90280FB8A9275A700226E
:1003500075A72010C80280FB53C83F85928275A7FD
:10036000002275C800858E8E75CAA875CBFD75CE26
:10037000FF75CFFFD2ADD2CA22C0E0C0D075D00089
:1003800075A700D200C2CF0523E523249B50037537
:100390002300C3E52495239201B392A0C200D0D0DC
:1003A000D0E03275A71075980075FF6075A2907542
:1003B000A3E875A4FF75A5FF43F304D29A22C29F58
:1003C000B29632AA82BA0800504474E02526403E14
:1003D000EAC42354E0FBE5262BF582C00212033564
:1003E000D002EA75F020A4FAABF0AC267D00EC2A2E
:1003F000FAED3BFBC002C00374FFC0E07400C0E034
:100400007480C0E0120C6AE58124FBF58122740A35
:10041000C0E07401C0E07480C0E0120C6A15811560
:1004200081158122AA82AB83ACF07428C0E07400ED
:10043000C0E07440C0E07427C0E07400C0E07440C5
:10044000C0E07412C0E07401C0E07480C0E0C0027B
:10045000C003C004120BD5E58124F4F581AA27BAA4
:100460006602800F8A03BB7202800DBA730F752774
:1004700000800B75270180067527028001228528E0
:10048000268527820203C3AA82AB83ACF0742AC0FC
:10049000E07400C0E07440C0E0741CC0E07401C0AF
:1004A000E07480C0E0C002C003C004120BD5E58137
:1004B00024F7F581C37464952AE4952B5006752AB8
:1004C00064E4F52BE5297020852A24AA24FBC002C8
:1004D000C0037423C0E07401C0E07480C0E0120C5B
:1004E0006AE58124FBF581227401B52920852A253E
:1004F000AA257B00C002C003743DC0E07401C0E0C7
:100500007480C0E0120C6AE58124FBF58122AA8286
:10051000AB838A188B19751A00751B0090EA60E48A
:10052000F5F0120C03AA82AB83ACF0FDE4C39AFA97
:10053000E49BFB74019CE49D8A828B8322AA82AB9C
:10054000837C00E4FDC39AF518E49BF51974019CC3
:10055000F51AE49DF51B908D8075F05BE4120C0399
:10056000AA82AB83ACF0FD751864E4F519F51AF5B1
:100570001B8A828B838CF0ED020C03AA82AB83ACC6
:10058000F0742CC0E07400C0E07440C0E07457C048
:10059000E07401C0E07480C0E0C002C003C0041277
:1005A0000BD5E58124F7F5812000FD852C82852D72
:1005B0008312050E8582CA8583CB22AA82AB83ACC7
:1005C000F0742EC0E07400C0E07440C0E07457C006
:1005D000E07401C0E07480C0E0C002C003C0041237
:1005E0000BD5E58124F7F5812000FD852ECA852FE6
:1005F000CB22AA82AB83ACF0C002C003C00474302B
:10060000C0E07400C0E07440C0E07457C0E0740102
:10061000C0E07480C0E0C002C003C004120BD5E586
:100620008124F7F581D004D003D00274022AFAE4C1
:100630003BFB8A828B838CF0120B1EFABA770785FC
:10064000302475250022BA630785302575240022E1
:10065000745EC0E07401C0E07480C0E0120C6A15E2
:10066000811581158122C2A0C296C2CA22D2CA2295
:10067000AA82AB83ACF0120B1EFDBD2D02800302DB
:1006800007BA74012AFDE43BFE8C078D828E838FAE
:10069000F0120B1EFDBD2F02802EBD63028032BD05
:1006A00064028036BD66028062BD68028066BD69F4
:1006B000028077BD6F03020767BD720302077EBD2C
:1006C000730302078702079E8A828B838CF00204E1
:1006D000248A828B838CF00205F274022AFDE43BAB
:1006E000FE8C078D828E838FF0120B1EFDBD300CA9
:1006F0007529008A828B838CF0020487BD310C75CA
:1007000029018A828B838CF00204878A828B838CF6
:10071000F002057B7483C0E07401C0E07480C0E027
:10072000120C6A15811581158122AD257E00852464
:100730003275330085CA8285CB83C005C006120599
:100740003DA982AF83C032C033C001C007C0CAC058
:10075000CB741DC0E07402C0E07480C0E0120C6A6B
:10076000E58124F5F5812274022AFDE43BFE8C0725
:100770008D828E838FF0120B1E70540206668A8261
:100780008B838CF00205BB74022AFDE43BFE8C07D0
:100790008D828E838FF0120B1E703402066DC002A4
:1007A000C003C004744AC0E07402C0E07480C0E0BA
:1007B000120C6AE58124FAF581227461C0E07402AA
:1007C000C0E07480C0E0120C6A1581158115812289
:1007D000AA82AB83ACF0FDC002C003C004C0051206
:1007E00003621203A3D005D004D003D0028A828B07
:1007F000838CF0ED0202D4AA8275A700438E407567
:1008000092B87593FF8592948593957591047B00BA
:10081000C3EB9A500BE59130E7FB53917F0B80F0CF
:1008200075910022AA82AB83BA0004BB0001227535
:1008300082F9C002C0031207F77582F91207F77533
:1008400082F91207F77582FA1207F7D003D0021A5D
:10085000BAFF011B80D2D2A57582281207F7C2A564
:1008600022AA828AE0A2E792A1A2E692A2A2E5923F
:10087000A3A2E492A4C0021208567582281207F7B8
:10088000D0028AE0A2E392A1A2E292A2A2E192A304
:10089000A2E092A4020856AA82D2A68A8212086115
:1008A000900002020824AA82C2A68A8212086190DD
:1008B0000005020824C2A590001412082475823392
:1008C0001208A67582331208A67582321208A67520
:1008D00082281208A675820C1208A67582011208D9
:1008E000A6900014020824AA82AB83ACF07402B56F
:1008F00034047DC080027D808D82C002C003C004AC
:100900001208A6900005120824D004D003D0027D5E
:10091000007E00ED2AFFEE3BF88C018F82888389F0
:10092000F0120B1EFF60208F82C002C003C004C003
:1009300005C006120897D006D005D004D003D00217
:100940000DBD00CF0E80CC3002248D028E03C3EA91
:100950009410EB648094805015758220C002C0030F
:10096000120897D003D0020ABA00E30B80E0227588
:10097000A7007597DE7597AD43FF8075EF0275A7E9
:100980001075C12075A70075A90075A900E5A930EB
:10099000E7FB75A90375A903E5A930E7FB43A4109C
:1009A000E5A575A5FF75E10175E20075E340759851
:1009B00010858E8E758DE6858D8B53890F4389202A
:1009C000D28ED299D2AF7582002285823785833844
:1009D00085F039E4F53AF53BE53524FFFFE536349B
:1009E000FFF879007A00C3E99FEA648088F063F039
:1009F0008095F05059C002C007C000C001120C8B96
:100A0000AB82D001D000D007D002BB0A028003BB6A
:100A10000D1DE53A2537FCE53B3538FDAE398C82B6
:100A20008D838EF0E4120C9E853A82853B8322E909
:100A30002537FCEA3538FDAE398C828D838EF0EB9C
:100A4000120C9E09B900010A893A8A3B8098E53A5E
:100A50002537FAE53B3538FBAC398A828B838CF03D
:100A6000E4120C9E8535828536832290C20075F093
:100A700001E41207D01208B59001F412082474732F
:100A8000C0E07402C0E07480C0E0120C6A158115E9
:100A9000811581753401D2029002A175F08012088F
:100AA000E7AA257B00AC247D007425C0E0E4C0E00B
:100AB000C002C0037425C0E0E4C0E0C004C00574F7
:100AC000ADC0E07402C0E07480C0E0743CC0E0746B
:100AD00000C0E07440C0E0120D06E58124F2F5810B
:100AE000753402D20290003C75F0401208E774B7EA
:100AF000C0E07402C0E07480C0E0120C6A15811579
:100B0000811581753510E4F53690003C75F0401282
:100B100009CA90003C75F040120670020AA120F745
:100B20001430F6148883A88220F507E6A88375831D
:100B30000022E280F7E49322E022FB7A20E4FCFD2D
:100B4000FEFFE5822582F582E58333F583E5F03308
:100B5000F5F0EB33FB4017DAE98042E5822582F5B8
:100B600082E58333F583E5F033F5F0EB33FBEC33CB
:100B7000FCED33FDEE33FEEF33FFEC9518ED9519E8
:100B8000EE951AEF951B4013EC9518FCED9519FDA9
:100B9000EE951AFEEF951BFF438201DABEEB22AA07
:100BA00008AB09AC0A8A828B838CF0120B1EFA0503
:100BB00008E4B5080205098A82228582088583092E
:100BC00085F00A850B5C850C5D850D5E850E5F905A
:100BD0000B9F020F5CC00F85810FE50F24F8F55FB6
:100BE000E50F24FBF8860808860908860AE50F2425
:100BF000F8F8865C08865D08865E900B9F120F5C95
:100C0000D00F22FBC2D530E715D2D5E4C39582F5CB
:100C100082E49583F583E495F0F5F0E49BFBE51B16
:100C200030E717B2D5E4C39518F518E49519F5190E
:100C3000E4951AF51AE4951BF51BEB120B3A30D527
:100C400013FBE4C39582F582E49583F583E495F084
:100C5000F5F0E49B2202192485825A85835B85F096
:100C60005C85175D900C5502138DC00F85810FE5D3
:100C70000F24FBF55DE50F24FBF8865A08865B0818
:100C8000865C900C5512138DD00F2210980280FBB9
:100C9000AA998A82C002121924D0028A822220F7DD
:100CA0001030F6118883A88220F507F6A883758393
:100CB0000022F280F7F022AA82AB10AC11AD128BA9
:100CC000828C838DF0EA120C9E0510E4B5100205AB
:100CD000112285821085831185F01285135A85149F
:100CE0005B85155C85165D900CB712138DAA82ABDF
:100CF00083AC10AD11AE128C828D838EF0E4120C99
:100D00009E8A828B8322C00F85810FE50F24F8F520
:100D10005DE50F24FBF88610088611088612E50FA2
:100D200024F8F8865A08865B08865C900CB7121384
:100D30008DAA82AB83AC10AD11AE128C828D838EE6
:100D4000F0E4120C9E8A828B83D00F22854C828520
:100D50004D831219A785825BE55B600A0555E4B5F2
:100D6000550605568002D206855B82227A007B00FA
:100D70003006057869760022C002C003120D4CAC23
:100D800082D003D002BC0002802DBC08028014BCBB
:100D900009028023BC0A02801EBC0D028019BC20FF
:100DA000218014EA4B60D11ABAFF011B155574FF5C
:100DB000B55502155680C1EA4B60BDEA2469F87644
:100DC0000022EC7009EA2469F87600D20622ECB51C
:100DD0005A07EA2469F8760022C3EA940FEB9400DC
:100DE00050968A058B060ABA00010BED2469F8A615
:100DF00004020D78AA827B7FC3EA648094B040111C
:100E000074B98AF063F08095F04006EA24D0FB8044
:100E100030C3EA648094C1401174C68AF063F080E4
:100E200095F0400674C92AFB8017C3EA648094E1F8
:100E3000400F74E68AF063F08095F0400474A92AAC
:100E4000FBC3EB955750038B822275827F22AA82C7
:100E50007551007552007553007554008A00E6FA0A
:100E600060148A82C000120DF4AB82D000C3EB95EF
:100E70005740030880E886038B82C000120DF4AA55
:100E800082D000C3E5579A405085571875190075F0
:100E90001A00751B008551828552838553F0E554F5
:100EA000C002C000121939AB82AC83ADF0FED00095
:100EB000D0028B518C528D538E54E4FBFCFDEA25FD
:100EC00051FAEB3552FBEC3553FCED3554FD8A51AC
:100ED0008B528C538D5408809D8551828552838519
:100EE00053F0E55422AA82755100755200755300E3
:100EF0007554008A00E6FB60228B82C003C000129A
:100F00000DF4AC82D000D003C3EC9557400DBB2D3F
:100F1000028008BB2B0280030880DA88028603BBAC
:100F20002D03D38001C39209BB2D028003BB2B018B
:100F30000A8A82120E4E300913C3E49551FAE495E1
:100F400052FBE49553FCE49554FD8008AA51AB5242
:100F5000AC53AD548A828B838CF0ED2285824C8514
:100F6000834DE4F555F556F559C206AA5CAB5DAC68
:100F70005E8A828B838CF0120B1EFD74012AF55C55
:100F8000E43BF55D8C5EEDFA70030212FBBA2502BC
:100F90008003021294D205C203755700755800C22F
:100FA00007C208AB5CAC5DAD5E8B828C838DF012AA
:100FB0000B1EFAA3AB82AC838B5C8C5D8D5E8B8247
:100FC0008C838DF0120B1EF55A8A06BE3000401637
:100FD0008A06EE24C6400FE55875F00AA4FEEA24FE
:100FE000D02EF55880C38A06BE6100400A8A06EEFC
:100FF000248540035302DFBA250280ADBA2A02805D
:1010000045BA42028036BA43028040BA4403021114
:101010000FBA490302110FBA4C028025BA4E0302DF
:101020001122BA4F03021114BA53028020BA550399
:1010300002110DBA580302111B02114AD203020F0A
:10104000A9D204020FA9D207020FA9D208200717BC
:10105000E55F24FDF8885F86030886040886051886
:10106000188B4E8C4F8D50E558700B3008047B0167
:1010700080027BFF8B58755700C3E5579558500584
:10108000120D4CAA82300607E557700302114AEA96
:10109000601ABA2002800DBA09028008BA0D0280D7
:1010A00003BA0A03300805E558B5571FE55760C96C
:1010B0002007120559AB4EAC4FAD508B828C838DFF
:1010C000F0E4120C9E75570002114ABA081CE5574D
:1010D00060A7200711AB4EAC4FAD501BBBFF011CEE
:1010E0008B4E8C4F8D501557808F20071BAB4EAC0D
:1010F0004FAD508B828C838DF0EA120C9E0BBB009F
:10110000010C8B4E8C4F8D500557021079C205751E
:10111000570A8036C205755708802FC205755710CB
:101120008028E55F24FDF8885F860308860408862A
:101130000518188B4E8C4F8D508B828C838DF0E56B
:1011400055120C9EA3E556120C9EE5577003021231
:1011500094120D6C7869E670030212943007030252
:101160001294E55F24FDF8885F86030886040886EC
:101170000518188B4E8C4F8D50055920050302120F
:101180000D300435854E60854F61855062758269EA
:10119000120EE5AE82AF83ABF0FC85608285618381
:1011A0008562F0EE120C9EA3EF120C9EA3EB120CC4
:1011B0009EA3EC120C9E021294300326854E60858D
:1011C0004F61855062758269120EE5AE82AF83ABC6
:1011D000F0FC8560828561838562F0EE120C9E02D0
:1011E0001294854E60854F61855062758269120E3A
:1011F000E5AE82AF83ABF0FC85608285618385625A
:10120000F0EE120C9EA3EF120C9E021294300434E6
:10121000854E60854F61855062758269120E4EAEB3
:1012200082AF83ABF0FC8560828561838562F0EEDE
:10123000120C9EA3EF120C9EA3EB120C9EA3EC12B9
:101240000C9E8050300325854E60854F618550622D
:10125000758269120E4EAE82AF83ABF0FC85608260
:101260008561838562F0EE120C9E8028854E608534
:101270004F61855062758269120E4EAE82AF83ABAC
:10128000F0FC8560828561838562F0EE120C9EA37E
:10129000EF120C9E200603020F6BAB5CAC5DAD5EE3
:1012A0008B828C838DF0120B1EFEA3AB82AC838BE2
:1012B0005C8C5D8D5EEEFA7003020F6BBA25E18BDC
:1012C000828C838DF0120B1EFABA6E028003BA4E26
:1012D000CFE55F24FDF8885F86020886060886074A
:1012E00018188A4E8E4F8F508A828E838FF0E55564
:1012F000120C9EA3E556120C9E80A5AA597B008A6B
:10130000828B8322AA827415C0E07413C0E0C04CA3
:10131000C04D8A82220553E4B55302055422AA82A5
:1013200074302AFA24C6500A74072AFA300A034392
:1013300002208A82021304E582FAC4540FF582C0A7
:101340000212131ED002740F5AF58202131EAA4E07
:10135000AB4FAC50AD51AE52755920EE2EFEED2381
:101360005401FF4206EA2AFAEB33FBEC33FCED337F
:10137000FDC3EE95554008EEC39555FE430201D5D9
:1013800059D98A4E8B4F8C508D518E522285824C6A
:1013900085834DE4F553F554AA5AAB5BAC5C8A8265
:1013A0008B838CF0120B1EFD74012AF55AE43BF579
:1013B0005B8C5CEDFA700302191DBA2502800302F2
:1013C0001915C20EC20FC210C211C212C213C2142A
:1013D000C215C20BC20CC20D75550075560075576B
:1013E000FFAB5AAC5BAD5C8B828C838DF0120B1E15
:1013F000FAA3AB82AC838B5A8C5B8D5CBA25078ACF
:101400008212130480928A06BE3000402E8A06EEB5
:1014100024C6402774FFB55713E55675F00AA4FE9D
:10142000EA24D02EF55670BFD20F80BBE55775F079
:101430000AA4FEEA24D02EF55780ACBA2E0A74FF17
:10144000B557A4755700809F8A06BE6100400E8A7A
:1014500006EE248540075302DFD20A8002C20ABA90
:1014600020028075BA23030214E8BA2A030214ED9D
:10147000BA2B02805FBA2D028055BA4202805FBA51
:101480004303021532BA440302166DBA450302162D
:1014900087BA4603021683BA470302168BBA49037A
:1014A00002166DBA4C02803BBA4E0302168FBA4F39
:1014B00003021674BA5003021606BA5303021556F5
:1014C000BA5503021679BA580302167E0216B9D22B
:1014D0000E0213E7D2100213E7D2110213E7D21360
:1014E0000213E7D2140213E7D2150213E774FFB513
:1014F000572030130BE55D14F8885D86560213E71C
:10150000E55D24FEF8885D8606088607188E56027B
:1015100013E730130BE55D14F8885D86570213E777
:10152000E55D24FEF8885D8606088607188E57025A
:1015300013E730130AE55D14F8885D8602800FE535
:101540005D24FEF8885D8603088604188B028A8273
:101550001213040216BEE55D24FDF8885D860308BB
:10156000860408860518188B4E8C4F8D508B828C04
:10157000838DF01219A9AB82AC838B5874FFB557D9
:1015800003855857200E1DC3E55895565016E5564D
:10159000C39558F556AB561556EB60087582201268
:1015A000130480F1854E82854F838550F0120B1E07
:1015B000FBFA6029AB571557C3E464808BF063F0E6
:1015C0008095F050188A82121304AB4EAC4FAD5088
:1015D0000BBB00010C8B4E8C4F8D5080C7200E032F
:1015E0000216BEC3E558955640030216BEE556C323
:1015F0009558F556AB561556EB70030216BE75821C
:101600002012130480EEE55D24FDF8885D86030852
:10161000860408860518188B4E8C4F8D50E550FBBC
:1016200030E7047A438013EB546060047A50800AF8
:10163000EB30E6047A4980027A588A82C00212139B
:101640000475823A1213047582301213047582787D
:10165000121304D002BA4902800BBA5002800685E8
:101660004F82121337854E821213378051D2127572
:10167000550A804A755508804575550A804075554C
:1016800010803BD20B8037D20C8033D20D802FE5F7
:101690005D24FDF8885D8603088604088605181811
:1016A0008B4E8C4F8D508B828C838DF0E553120CBA
:1016B0009EA3E554120C9E80058A82121304200B0F
:1016C00006200C03300D5AE55D24FCF8885D860386
:1016D0000886040886050886061818188B4E8C4F55
:1016E0008D508E51754EC9754F02755080854E5E76
:1016F000854F5F8550607401255EFEE4355FFFAB6A
:10170000608E4E8F4F8B50855E82855F838560F043
:10171000120B1EFBFA70030213988A8212130480C4
:10172000CCE55570030213987B6830132BE55D14EC
:10173000F8885DE6FC3395E0FDFEFF8C4E8D4F8E04
:10174000508F5120125EAC4E7D007E007F008C4E8B
:101750008D4F8E508F51804C30141FE55D24FCF866
:10176000885D860408860508860608860718181806
:101770008C4E8D4F8E508F51802AE55D24FEF88867
:101780005D860408860518ED3395E0FEFF8C4E8DCE
:101790004F8E508F5120120CAC4EAD4F7E007F000B
:1017A0008E508F51301543E54E454F4550455160A1
:1017B000397408B5550C758230C003121304D00378
:1017C00080287410B55523758230C003121304D0DD
:1017D00003300A0C758278C003121304D003800A08
:1017E000758258C003121304D003301225AC4EADDD
:1017F0004FAE50E551FF30E717C3E49CFCE49DFD7C
:10180000E49EFEE49FFF8C4E8D4F8E508F518002E0
:10181000C212755800D2168B00755200C000121308
:101820004ED00020160DE552C4FCE6FD4CF618889B
:10183000038002A6520558B216E54E454F45504565
:101840005170D68803E5567003755601200F1A2093
:101850000E17E55804FCC39556500E758220C00340
:10186000121304D003155680E930120E75822DC074
:1018700003121304D00315568024E558602030105D
:101880000E75822BC003121304D0031556800F303F
:10189000110C758220C003121304D0031556200EBC
:1018A0001EAC561556C3E5589C5027300F047C30AB
:1018B00080027C208C82C003121304D00380E2C318
:1018C000E55895565009E556C39558F55680037569
:1018D00056008B00AB581558EB6022B21620160A42
:1018E00008E6C4540FFB8B5280078603740F5BF528
:1018F00052855282C00012131ED00080D7200E03E2
:10190000021398AB561556EB70030213987582209C
:1019100012130480EE8A82121304021398855382F4
:1019200085548322AA82BA0A0810990280FB75990D
:101930000D10990280FB8A9922AAF0FBE582851896
:10194000F0A4FCADF0E5838518F0A42DFDE435F09E
:10195000FEE5828519F0A42DFDE5F03EFEE433FF9F
:10196000EA8518F0A42EFEE5F03FFFE5838519F027
:10197000A42EFEE5F03FFFE582851AF0A42EFEE5D9
:10198000F03FFFEB8518F0A42FFFEA8519F0A42F94
:10199000FFE583851AF0A42FFFE582851BF0A42FB5
:1019A0008EF08D838C8222E473AA82AB83ACF07DAF
:1019B000007E008A828B838CF0120B1EFFA3AA820A
:1019C000AB83EF60070DBD00EA0E80E78D828E834A
:1019D00022000000000000000000000000000000E5
:00000001FF
