:020000040800F2
:1000000000200020C1000008210800083508000871
:1000100000000000000000000000000000000000E0
:10002000000000000000000000000000210800089F
:10003000000000000000000021080008210800085E
:1000400021080008210800082108000821080008EC
:1000500021080008210800082108000821080008DC
:1000600021080008210800082108000821080008CC
:1000700021080008010100082108000821080008E3
:1000800021080008210800082108000821080008AC
:10009000210800082108000821080008210800089C
:1000A0002108000821080008210800085904000858
:1000B000D90B0008210800082108000821080008C1
:1000C00000F058FB00F01CFBE1235B02180000F07D
:1000D0001FF9E1235B02180000F00AFD62B600F090
:1000E00065F8FEE780B500AF044B1A68034B0121A9
:1000F0004A401A60C046BD4680BDC0461400004854
:1001000080B500AF054B1A68044B01218A431A6081
:10011000FFF7E8FFC046BD4680BDC046102C014039
:1001200080B500AF1B4B1A681A4B802189020A4325
:100130001A609023DB051A689023DB0501210A432E
:100140001A60154B1A68144B802109010A431A6082
:10015000124BC822D2001A60114B1A68104B802132
:1001600089010A431A600F4B1A680E4B10210A438B
:100170001A600C4B1A680B4B01210A431A600A4B98
:100180001A68094B01210A431A6062B6C046BD468F
:1001900080BDC04614100240181002402C2C0140B3
:1001A00000E100E0002C01400C2C014080B588B03B
:1001B00000AFFFF7B5FF0C4B180000F0A9FE0B4B8A
:1001C0001B78DBB21A0001231340F8D0084B1B78D0
:1001D000DBB21A00074B1100180000F01FFE034BA2
:1001E00000221A70EBE7C0467C2300087000002054
:1001F000710000209823000890B585B000AF7860AA
:100200003960184B1B68002B02D101235B4224E0AC
:100210000023FB600AE0FB685A1CFA603A68D418B5
:10022000114B180000F0B1F9030023707B68013B0B
:100230001A00FB68934205D20B4B180000F0CEF970
:10024000031EE8D1FB68002B06D03A68FB68D31880
:1002500000221A70FB6800E000231800BD4605B0BC
:1002600090BDC046180100208000002080B584B0F9
:1002700000AF78603960224B1B68002B02D101234C
:100280005B4238E07B683F2B0BDCC0461D4B1800FF
:1002900000F0A4F9020040239A1A7B689A42F5D331
:1002A00002E002235B4226E00023FB600BE03A6899
:1002B000FB68D3181A78134B1100180000F036F9B8
:1002C000FB680133FB607B68FA689A42EFD30E4B00
:1002D0001B68082213400DD10B4B1A680A4B0821EA
:1002E0000A431A60074B180000F04FF903001A0088
:1002F000064B1A6000231800BD4604B080BDC046FE
:1003000018010020CC0000200038014028380140AE
:1003100080B584B000AF786072B63F4B00229A641B
:100320003D4B9A6C3C4B5A643B4B5A6C3A4B1A64AB
:100330003A4B00229A64394B9A6C384B5A64374BCB
:100340005A6C364B1A64364B01221A60354B002228
:100350001A60354B1A68344B802189020A431A60AF
:10036000324BFB607968F86800F058FC0300FB60D2
:100370002F4B1A682E4B8021C9020A431A602D4B5D
:100380001A682C4B2C490A401A609023DB051A6826
:100390009023DB05802109030A431A60274B1A6862
:1003A000264B10210A431A609023DB051A6890231C
:1003B000DB05802189030A431A60204B1A681F4B12
:1003C000802149000A431A601D4B1A681C4B80218A
:1003D000C9010A431A601B4B1A681A4B6C210A4365
:1003E0001A60194B00221A60184B00221A60184B31
:1003F000FA681A60134B1A68124B01210A431A60FB
:10040000144B1A68134B802109050A431A6062B61F
:10041000C046BD4604B080BD80000020CC00002056
:10042000180100207C00002014100240006CDC0247
:100430000800004804000048FFFDFFFF24000048BA
:1004400018100240003801400438014008380140CB
:100450000C38014000E100E080B500AF084B1B689C
:100460008022134001D000F025F8054B1B682022A4
:10047000134001D000F006F8C046BD4680BDC0461E
:100480001C38014080B500AF074B1B68DAB2074B40
:100490001100180000F04AF8031E02D0044B01229C
:1004A0001A60C046BD4680BD24380140800000204F
:1004B0007C00002080B500AF164B180000F08EF8CD
:1004C000031E08D0134B180000F05FF803001A0059
:1004D000114B1A601BE0114B1A68104B08218A431C
:1004E0001A600F4B1B684022134005D00D4B1A6851
:1004F0000C4B40210A431A60094B1B6880221340B1
:1005000005D0094B1A68084B10210A431A60C046EF
:10051000BD4680BDCC000020283801400038014095
:100520001C380140203801401838014080B582B0A5
:1005300000AF78600A00FB1C1A707B681A6C7B683D
:100540005B6C9A4205D17B689B6C002B01D0012328
:1005500017E072B67B681B6C591C7A6811647A6864
:10056000F91C0978D1547B689B6C5A1C7B689A648F
:100570007B681B6C402B02D17B6800221A6462B638
:1005800000231800BD4602B080BD80B584B000AF26
:1005900078607B689B6C002B01D100231AE072B657
:1005A0007B685B6C591C7A6851640F22BA187968B1
:1005B000CB5C13707B685B6C402B02D17B680022A4
:1005C0005A647B689B6C5A1E7B689A6462B60F23E0
:1005D000FB181B781800BD4604B080BD80B582B002
:1005E00000AF78607B689B6C1800BD4602B080BD90
:1005F00080B582B000AF78600B4B1B68002B09D12F
:1006000001235B420BE07B685A1C7A6019000120D1
:10061000FFF72CFE7B681B78002BF4D10023180019
:10062000BD4602B080BDC0461801002080B582B032
:1006300000AF0200FB1D1A70FB1D19000120FFF71F
:1006400015FEC046BD4602B080BD80B500AF044B6C
:100650001800FFF79AFF03001800BD4680BDC04692
:1006600080000020B0B584B000AF78603960224BC4
:100670001B68002B02D101235B4238E00023FB60A2
:100680000B23FB1800221A701EE0C0461B4B1800FB
:10069000FFF7A4FF031EF9D00B2425003C19174BCC
:1006A0001800FFF772FF030023702C003B191B7822
:1006B0001800FFF7BBFFFB685A1CFA601A007B6842
:1006C0009B183A1912781A703B68013BFA689A42F3
:1006D00004DA0B23FB181B780D2BD6D1FB68002BFB
:1006E00004DDFB687A68D31800221A70FB681800D2
:1006F000BD4604B0B0BDC0461801002080000020F7
:1007000080B582B000AF154B7B60154B3B6007E0B6
:100710007A68131D7B603B68191D396012681A6086
:100720003A68104B9A42F3D304E03B681A1D3A60D2
:1007300000221A603A680C4B9A42F6D30B4B3B608E
:1007400004E03B681A1D3A601B6898473A68084BFA
:100750009A42F6D3C046BD4602B080BD8C24000844
:100760000000002068000020240100208C240008E4
:100770008C24000880B500AF244B1A68234B244911
:100780000A401A60C046214B1A6880239B0413401C
:10079000F9D1204B1A681F4B01210A431A601D4BE7
:1007A0001A681C4B06218A431A601A4B1A68194BA7
:1007B00010210A431A60184B1A68174B17490A4050
:1007C0001A60154B1A68144BA02189030A431A605A
:1007D000114B1A68104B8021C9010A431A600B4B58
:1007E0001A680A4B802149040A431A60C046074B25
:1007F0001A6880239B041340F9D0074B1A68064BF4
:1008000002210A431A60C046BD4680BD0010024066
:10081000FFFFFFFE0020024004100240FFFFC3FF65
:1008200080B500AF024B1800FFF7E2FEFEE7C046BE
:10083000A823000880B500AF024B1800FFF7D8FED0
:10084000FEE7C046D023000880B582B000AF7860D4
:10085000FEE780B582B000AF786001235B421800EC
:10086000BD4602B080BD80B584B000AFF860B9600D
:100870007A60044B0C221A6001235B421800BD46CB
:1008800004B080BD2001002080B500AF034B0B22D7
:100890001A6001235B421800BD4680BD2001002084
:1008A00080B582B000AF786039603B6880229201E9
:1008B0005A6000231800BD4602B080BD80B500AF6D
:1008C00001231800BD4680BD80B582B000AF7860BE
:1008D0003960044B16221A6001235B421800BD46A2
:1008E00002B080BD2001002080B582B000AF7860EA
:1008F0003960044B1F221A6001235B421800BD4679
:1009000002B080BD2001002080B584B000AFF86047
:10091000B9607A6000231800BD4604B080BD80B580
:1009200082B000AF786039603B68802292015A60E3
:1009300000231800BD4602B080BD80B582B000AF74
:10094000786001235B421800BD4602B080BD80B5CF
:1009500082B000AF7860044B02221A6001235B4230
:100960001800BD4602B080BD2001002080B582B0D5
:1009700000AF7860044B0A221A6001235B42180022
:10098000BD4602B080BDC0462001002080B582B0C7
:1009900000AF78607B680033022B01D8012303E0AD
:1009A000034B09221A6000231800BD4602B080BD27
:1009B0002001002080B586B000AF7860144B7B61C9
:1009C000144B154A944663443B61144B1B68002B3F
:1009D00002D1124B7A691A60104B1B68FB600F4BF7
:1009E0001A687B68D3183A699A4205D20C4B0C22DC
:1009F0001A6001235B4206E0084B1A687B68D21834
:100A0000064B1A60FB681800BD4606B080BDC046A4
:100A1000240100200020002000F0FFFF6C000020D7
:100A20002001002080B588B000AFF860B9607A601E
:100A30000023BB61FB68002B22D10023FB611AE07D
:100A4000FFF703FE03001A0017217B181A70BB681A
:100A50005A1CBA607A181278D2B21A70BB69013384
:100A6000BB617B181B78DBB20A2B01D1BB690EE09E
:100A7000FB690133FB61FA697B689A42E0DB05E0C0
:100A8000054B09221A6001235B4200E0BB69180094
:100A9000BD4608B080BDC0462001002080B586B0AC
:100AA00000AFF860B9607A60FB68013B012B11D898
:100AB00000237B6109E0BB685A1CBA601B781800F0
:100AC000FFF7B4FD7B6901337B617A697B689A42E9
:100AD000F1DB05E0054B09221A6001235B4200E0CF
:100AE0007B681800BD4606B080BDC04620010020CE
:100AF00080B584B000AF786072B62D4BFB6079682A
:100B0000F86800F08BF80300FB602A4B1A68294B49
:100B100010210A431A60284B1A68274B04218A4384
:100B20001A609023DB051A689023DB0520210A4315
:100B30001A60224B1A68214B802149000A431A602F
:100B40009023DB051A689023DB0580210A431A6095
:100B50001A4B1A68194B802149010A431A60184B35
:100B60001A68174B802189020A431A60154B1A68CC
:100B7000144B2C210A431A60134B00221A60134BAA
:100B800000221A60124BFA681A600E4B1A680D4B5D
:100B900001210A431A600F4B1A680E4B8021490548
:100BA0000A431A6062B6C046BD4604B080BDC04666
:100BB000006CDC02080000480400004820000048E7
:100BC0001C1002400044004004440040084400401F
:100BD0000C44004000E100E080B500AF044B1B680E
:100BE0002022134001D000F005F8C046BD4680BD6C
:100BF0001C44004080B500AF054B1B68DAB2054BC2
:100C00001A70054B01221A70C046BD4680BDC04611
:100C100024440040710000207000002003460B4374
:100C20007FD4002243088B4274D303098B425FD3E5
:100C3000030A8B4244D3030B8B4228D3030C8B4211
:100C40000DD3FF22090212BA030C8B4202D31212F7
:100C5000090265D0030B8B4219D300E0090AC30BCC
:100C60008B4201D3CB03C01A5241830B8B4201D379
:100C70008B03C01A5241430B8B4201D34B03C01A62
:100C80005241030B8B4201D30B03C01A5241C30ADA
:100C90008B4201D3CB02C01A5241830A8B4201D34B
:100CA0008B02C01A5241430A8B4201D34B02C01A35
:100CB0005241030A8B4201D30B02C01A5241CDD2DA
:100CC000C3098B4201D3CB01C01A524183098B4225
:100CD00001D38B01C01A524143098B4201D34B010E
:100CE000C01A524103098B4201D30B01C01A524171
:100CF000C3088B4201D3CB00C01A524183088B42F8
:100D000001D38B00C01A524143088B4201D34B00E0
:100D1000C01A5241411A00D2014652411046704752
:100D20005DE0CA0F00D04942031000D34042534057
:100D300000229C4603098B422DD3030A8B4212D317
:100D4000FC22890112BA030A8B420CD38901921149
:100D50008B4208D3890192118B4204D389013AD086
:100D6000921100E08909C3098B4201D3CB01C01A5B
:100D7000524183098B4201D38B01C01A524143096E
:100D80008B4201D34B01C01A524103098B4201D35C
:100D90000B01C01A5241C3088B4201D3CB00C01AC9
:100DA000524183088B4201D38B00C01A5241D9D2E1
:100DB00043088B4201D34B00C01A5241411A00D262
:100DC0000146634652415B10104601D34042002B5E
:100DD00000D54942704763465B1000D3404201B5DD
:100DE000002000F005F802BD0029F8D016E7704792
:100DF0007047C0460EB417B5041E04D08369002B9B
:100E000001D100F0F1FA06AB059AA1682000019328
:100E100000F008FD1EBC08BC03B018470FB40B4B14
:100E200013B51C68002C05D0A369002B02D120004B
:100E300000F0DAFA05AB049AA1682000019300F0F3
:100E4000F1FC16BC08BC04B01847C04604000020E2
:100E500070B505000E00002804D08369002B01D175
:100E600000F0C2FAAB69AC68002B02D1280000F098
:100E7000BBFA244B9C420FD16C68A3891B0702D597
:100E80002369002B1FD12100280000F01FF9002842
:100E900019D00120404270BD1B4B9C4201D1AC686F
:100EA000EBE71A4B9C42E8D1EC68E6E70136A36019
:100EB000002B04DAA2699A4216DC0A2914D02368AE
:100EC0005A1C22601970A3683178013B0029EDD1CA
:100ED000A360002B0FDA22000A31280000F096F8F8
:100EE000431CD6D00A20D6E72200280000F08EF856
:100EF000431CE8D1CDE70A2023685A1C22601870F1
:100F0000C9E7C0461424000834240008F42300086C
:100F100010B5034B01001868FFF79AFF10BDC046DB
:100F20000400002070B50D0009680400002901D0FC
:100F3000FFF7F8FF2900200000F096FB70BD0000CD
:100F4000314B70B51B680400834249D0436A002BC3
:100F50000AD00025DB68AB4247D1636A19680029D3
:100F600002D0200000F080FB6169002902D020003F
:100F700000F07AFB616A002902D0200000F074FBC7
:100F8000A16B002902D0200000F06EFBE16B00296C
:100F900002D0200000F068FB216C002902D0200064
:100FA00000F062FBE16D002902D0200000F05CFB44
:100FB000A16D002902D0200000F056FB616B0029D2
:100FC00002D0200000F050FBA369002B08D02000C5
:100FD000A36A9847A16C002902D02000FFF7A2FF66
:100FE00070BD4959002908D10435636AD968802D3C
:100FF000F7D1200000F038FBAFE70E68200000F0CA
:1010000033FB3100EEE7C04604000020F8B50500D0
:101010000E001400002804D08369002B01D100F0D9
:10102000E3F9224B9C422DD16C68A369A360A3898C
:101030001B0731D52369002B2ED023682269F7B214
:10104000981A6369F6B2834205DC2100280000F09B
:101050003DF9002826D1A3680130013BA360236835
:101060005A1C22601F706369834204D0A389DB0786
:101070001AD50A2E18D12100280000F027F90028DF
:1010800012D00FE00A4B9C4201D1AC68CDE7094B6E
:101090009C42CAD1EC68C8E72100280000F016F88D
:1010A0000028CAD0012676423000F8BD142400087A
:1010B00034240008F423000810B5034B0A00010093
:1010C0001868FFF7A3FF10BD04000020364B70B571
:1010D0001D6806000C00002D05D0AB69002B02D165
:1010E000280000F081F9314B9C420FD16C680C2331
:1010F000E25E93B219072DD4D90611D40923012039
:10110000336037331343A381404270BD284B9C4268
:1011100001D1AC68EBE7274B9C42E8D1EC68E6E7ED
:101120005B0713D5616B002908D023004433994233
:1011300002D0300000F098FA002363632422A389D0
:101140009343A38100236360236923600823A2895A
:101150001343A3812369002B0BD1A0218022A389F3
:10116000890092000B40934203D02100300000F030
:101170002FFA0123A289134011D00023A3606369D1
:101180005B42A361002023698342BED10C23E25E4F
:101190001306BAD540231343A3810138B5E792075C
:1011A00000D46369A360EDE7040000201424000864
:1011B00034240008F4230008F7B58A8905000C00E0
:1011C000130760D44B68002B04DC0B6C002B01DC94
:1011D0000020FEBDE76A002FFAD000232E682B60A6
:1011E00080235B01216A1A4034D0606DA3895B07BC
:1011F00006D56368C01A636B002B01D0236CC01A3C
:101200000200216A00232800E76AB847A189431C2D
:1012100006D12B681D2B30D82B4ADA40D3072CD5AA
:101220000023636023692360CB0405D5431C02D1EE
:101230002B68002B00D16065616B2E600029C7D040
:1012400023004433994202D0280000F00DFA002018
:101250006063BEE701232800B847431CC6D12B6852
:10126000002BC3D01D2B01D0162B01D12E60AFE770
:101270004023A2891343A381ABE740230B43012002
:10128000A3814042A5E70F69002FA1D00B680F6032
:10129000DB1B01930023920700D14B69A360019BE4
:1012A000002B00DC94E7019B3A00216A2800A66A23
:1012B000B047002803DC4023A2891343DFE7019BEA
:1012C0003F181B1A0193EAE7010040200B6970B533
:1012D00005000C00002B01D1002070BD002804D0B7
:1012E0008369002B01D100F07FF80B4B9C4209D1A0
:1012F0006C680C22A35E002BEED021002800FFF7C3
:101300005BFFEAE7054B9C4201D1AC68F1E7044B77
:101310009C42EED1EC68ECE7142400083424000869
:10132000F423000810B5011E05D1054B05491868C6
:1013300000F004F910BD044B1868FFF7C7FFF9E788
:1013400054240008CD12000804000020002070473B
:10135000002310B50400036043608360818143660D
:10136000C281036143618361190008225C3000F08F
:1013700073F9054B24626362044BA362044BE3627E
:10138000044B236310BDC046791D0008A51D00084D
:10139000DD1D0008091E000810B5024900F0CEF856
:1013A00010BDC046CD1200080020704770B56825FA
:1013B0004A1E55430E002900743100F09FF9041EA7
:1013C00008D000212A00016046600C30A06068321D
:1013D00000F042F9200070BD10B5024B1868FFF70D
:1013E000DBFF10BD54240008836913B50400002BF3
:1013F00028D18364C3640365134B144A1B6882625B
:101400000193984201D101238361200000F020F86C
:101410006060200000F01CF8A060200000F018F8C8
:101420000022E06004216068FFF792FF0122092199
:10143000A068FFF78DFF02221221E068FFF788FF06
:101440000123A36113BDC04654240008991300086A
:10145000F8B51C4B07001E68B369002B02D13000A1
:10146000FFF7C2FF4836B4687368013B04D53368A0
:10147000002B07D03668F6E70C22A55E002D0DD0B4
:101480006834F2E704213800FFF790FF306000284D
:10149000F0D10C2304003B602000F8BD20000A4B73
:1014A000656625606560A560E36025616561A5618D
:1014B000082229005C3000F0CFF86563A563A564BD
:1014C000E564E9E7542400080100FFFF7047704716
:1014D0007047704710B5034B0349186800F012F8C5
:1014E00010BDC046040000204D13000810B5034B8A
:1014F0000349186800F006F810BDC046040000203B
:10150000A9130008F7B54830040000260191002C0B
:1015100001D13000FEBDA5686768013F01D5246890
:10152000F5E7AB89012B07D90E22AB5E013303D05F
:101530002800019B984706436835EEE7F7B504009D
:101540000700002601914834002C01D13000FEBD77
:101550006368A5680093009B013B009301D5246854
:10156000F2E7AB89012B08D90E22AB5E013304D020
:1015700029003800019B984706436835EBE70000D7
:1015800070B50E001D000E23C95E96B01400002930
:1015900007DA00232B60B3891B0611D48023DB00FC
:1015A0000FE06A4600F05CFC0028F2DBF022019BB1
:1015B00012021340054A9B185A4253412B60EDE733
:1015C00040230020236016B070BDC04600E0FFFF3E
:1015D000F7B502268B8905000C00334206D02300A4
:1015E00047332360236101236361F7BD01AB6A4682
:1015F000FFF7C6FF00990700280000F07FF80028D9
:1016000008D10C22A35E9A05EFD4032293431E4314
:10161000A681E4E70F4BAB628023A28920601343CD
:10162000A381009B20616361019B002B0DD00E23E1
:10163000E15E280000F086FD002806D00322A38981
:1016400093431A0001231343A381A0893843A08147
:10165000CBE7C0469913000803001218934200D14B
:10166000704719700133F9E770B50500002910D0F3
:101670000C1F2368002B00DAE418280000F0AFFDEF
:101680001D4A1368002B05D163601460280000F028
:10169000A7FD70BDA34209D9216860188342F3D128
:1016A00018685B6841182160EEE713005A68002A49
:1016B00001D0A242F9D919685818A0420BD120686C
:1016C0000918581819608242E0D110685268411810
:1016D00019605A60DAE7A04202D90C232B60D5E7E3
:1016E00021686018824203D1106852684118216055
:1016F00062605C60CAE7C04674000020032370B5D6
:10170000CD1C9D43083506000C2D1ED20C25A94288
:101710001DD8300000F063FD254A1468210000291F
:1017200019D1244C2368002B03D1300000F012FBA8
:1017300020602900300000F00DFB431C2BD10C234E
:101740003000336000F04CFD03E0002DDFDA0C23A5
:101750003360002070BD0B685B1B19D40B2B03D9C1
:101760000B60CC18256003E04B688C420DD11360F0
:10177000300000F035FD200007220B30231D904380
:10178000C31AE7D05A42E250E4E763600C00EFE787
:101790000C004968C3E70323C41C9C43A042E1D06A
:1017A000211A300000F0D6FA431CDBD1C7E7C0464F
:1017B0007400002078000020936810B5013B93600E
:1017C000002B04DA9469A34207DB0A2905D01368C9
:1017D000581C10601970080010BDFFF717FC0100BD
:1017E000F9E7F8B506000F001400D518AC4201D196
:1017F000002007E021783A003000FFF7DDFF0134D8
:10180000431CF3D1F8BD936810B51400002B02D12E
:101810001800536010BD00F035FB0023A360636027
:10182000F8E70000F0B59FB002900F001600059396
:10183000002805D083690493002B01D1FFF7D4FD64
:101840007B4B9F425BD1029B5F68BB891B0762D5C4
:101850003B69002B5FD0002306AC636120336376C5
:101860001033A37635002B78002B01D0252B5CD1CB
:10187000AB1B04930CD0320039000298FFF7B1FF84
:10188000431C00D1C4E06269049B944663446361D5
:101890002B78002B00D1BBE0012200235242626072
:1018A00002A9543252186E1C2360E360A3601370C7
:1018B000A365317805225F4800F06AFC751C00289A
:1018C00035D12268D30604D5532302A95B18202101
:1018D0001970130704D5532302A95B182B21197023
:1018E00033782A2B2CD0350000210A20E3682A788F
:1018F0006E1C303A092A64D900292ED026E04E4BBE
:101900009F4202D1029B9F689FE74C4B9F429CD114
:10191000029BDF6899E739000298FFF7D7FB0028A0
:1019200099D0012040421FB0F0BD01359BE7414BEB
:101930002268C01A01238340134323602E00B8E7B6
:10194000059B191D1B680591002B01DB099304E021
:101950005B42E3600223134323602B782E2B0AD1D2
:101960006B782A2B35D1059B02351A1D1B68059211
:10197000002B2BDB0793324E29780322300000F036
:1019800007FC002806D04023801B834022680135D5
:1019900013432360297806222A486E1C217600F022
:1019A000F7FB00283AD0284B002B25D10722059BB6
:1019B00007339343083305936369039A9B18636164
:1019C00050E7434301219B18350090E701235B4218
:1019D000D0E700230A201A000135636029786E1CC5
:1019E0003039092903D9002BC5D00792C3E74243F8
:1019F000012352183500F1E705AB00933A00134B71
:101A00002100029800E000BF0390039B0133D3D173
:101A1000BB895B0600D584E70B9884E705AB009390
:101A20003A000A4B2100029800F08CF8ECE7C0461F
:101A3000142400085824000834240008F423000863
:101A40005E2400086224000800000000E31700087C
:101A500010B513000A00010002480068FFF7E2FE1B
:101A600010BDC04604000020F7B5150001938A6838
:101A70000B6900900C00934200DA130022002B60E7
:101A800043321278002A01D001332B6023689B0671
:101A900002D52B6802332B60062723681F4027D00E
:101AA000230043331B785A1E93412268920630D498
:101AB0002200019943320098089EB047431C25D06C
:101AC000062320682A68E16803400025042B03D11F
:101AD0008D1AEB43DB171D40A3682269934201DD99
:101AE0009B1AED180027BD4220D1002010E00137DD
:101AF000E3682A689B1ABB42D2DD22000123193217
:101B000001990098089EB047431CF0D10120404243
:101B1000FEBD3020E1184331087021005A1C4531C8
:101B20000978A218433202331170C1E72200012361
:101B30001A3201990098089EB047431CE6D001373D
:101B4000D1E70000F0B589B004920A004332059352
:101B5000039002920A7E0C000E9B6E2A00D186E052
:101B60001FD8632A33D008D8002A00D18CE0582A25
:101B70004DD0250042352A7030E0642A01D0692A10
:101B8000F7D1196825680A1D280629D508681A6042
:101B9000002803DA2D23029A404213706B4E0A2765
:101BA0004FE0732A74D008D86F2A1FD0702AE0D172
:101BB000202209680A43226003E0752A16D0782A99
:101BC000D7D12200782145321170614E22E02500E4
:101BD0001A684235111D196013682B70012365E0E6
:101BE00008681A606906D3D500B2D1E7196825687C
:101BF000081D186008682E0605D5544E08276F2A60
:101C00001BD00A2719E06D06F7D580B2F5E74531FC
:101C10004E4E0A7018682268011D0068196015068A
:101C200021D5D30702D520231A432260102700288C
:101C300003D1202322689A432260230000224333E9
:101C40001A706368A360002B58DB0422216891435B
:101C50002160002854D1029D002B5AD025003378F2
:101C600042352B7055E05506DBD580B2D9E71A68AE
:101C70000D68101D4969186013682E0601D519609A
:101C800002E06D06FBD519800023029D23614FE021
:101C90001A68111D1960156800216268280000F09B
:101CA00077FA002801D0401B60606368236100233D
:101CB000029A13703CE023692A0004990398059D59
:101CC000A847431C3ED023689B0715D4079BE068B8
:101CD000984239DA180037E02200012319320499BA
:101CE0000398059EB047431C2CD00135E368079A42
:101CF0009B1AAB42F0DCE9E70025F7E70028ADD0FE
:101D0000029D390000F036FB735C013D2B7000280A
:101D1000F7D1082F09D12368DB0706D5636822694C
:101D2000934202DC3023013D2B70029B5B1B23613D
:101D3000059B07AA00932100049B0398FFF794FEDC
:101D4000431CB8D10120404209B0F0BD692400080D
:101D50007A240008002370B5064C050008002360B3
:101D6000FEF728FE431C03D12368002B00D02B6014
:101D700070BDC0462001002070B50C000E25495FE3
:101D800000F056FA002803DB636D1B18636570BD15
:101D9000A389024A1340A381F9E7C046FFEFFFFF82
:101DA00000207047F8B51F008B8905000C00160055
:101DB000DB0505D50E23C95E0022022300F0D4F90D
:101DC000A389054A28001340A38132000E23E15E57
:101DD0003B0000F01FF8F8BDFFEFFFFF70B50C00EF
:101DE0000E25495F00F0C0F9A389421C03D1054AC2
:101DF0001340A38170BD802252011343A38160650B
:101E0000F8E7C046FFEFFFFF10B50E23C95E00F0F4
:101E100015F810BD70B50500080011000022064C31
:101E200022601A00FEF73AFE431C03D12368002B00
:101E300000D02B6070BDC04620010020002370B58B
:101E4000064C050008002360FEF703FD431C03D188
:101E50002368002B00D02B6070BDC04620010020FD
:101E6000002370B5064C0500080011002360FEF742
:101E700017FD431C03D12368002B00D02B6070BDDD
:101E800020010020F0B5936887B002900C00039207
:101E90000093002B02D1002007B0F0BD8B891B07F7
:101EA00053D50B69002B50D00225039B1B6801936F
:101EB000A3891D406FD10122134000D1A6E0280064
:101EC0002F0000950592002F00D111E100280AD1C2
:101ED0003A000A21009800F05BF97D1C002802D02E
:101EE000009B0130C51A0495BD4200D904972068B3
:101EF00022696369904200D803E1A2689E18049A9F
:101F0000B24200DCFDE00099320000F055F9236890
:101F100021009B1923600298FFF7D8F9002870D19F
:101F2000AD1B059805D121000298FFF7CFF90028D5
:101F300067D1009BBF1B9B190093039B9B689E1B53
:101F40000493039B9E60BED1A5E721000298FFF792
:101F5000BDF80028A8D0012040429DE7019B1E68E3
:101F60005D6808330193002DF8D0724A2B0095422A
:101F700000D913003200216A0298A76AB8470028E6
:101F80003FDD039B36189B682D1A0093181A039B9C
:101F90009860E8D17FE700263500E4E7019B1B68E5
:101FA0000493019B5B680093019B08330193009BA2
:101FB000002BF3D08023A2899B00A56820681A42D9
:101FC00064D0009B9D4235D89023DB001A4231D06B
:101FD0000326636921695E43471AF00F861900984A
:101FE0007B1C1B187610B34200D91E0053053ED54A
:101FF00031000298FFF782FB051E0AD10C23029ADA
:1020000013604023A2891343A381A4E704930093A0
:10201000CDE73A00216900F0C6F8A389464A1A4084
:1020200080231343A3812561ED1925606661009D1E
:10203000F61BA660009FBD4200D93D002A0004990E
:10204000206800F0B9F8A3685B1BA36023685D19E2
:102050002560049BDB190493009BDB1B0093039B0F
:102060009B68DF1B0593039B9F60A0D113E73200A1
:10207000029800F0B6F8051ED5D121690298FFF745
:10208000F3FA8022A3899343A381B7E723698342AC
:1020900003D36769009B9F4217D9009B9D4200D9DB
:1020A0001D002A00049900F087F8A36822685B1BD2
:1020B00052192F00A3602260002BCAD12100029880
:1020C000FFF704F90028C4D09BE7009A1B4B1000CF
:1020D0009A4200D91A483900FEF7A0FD3B00049A45
:1020E0004343216A0298A56AA847071EB1DC88E726
:1020F000019B00201B680093019B5F6808330193DC
:10210000E1E6049A934208DCA66A009A216A0298E2
:10211000B047061E00DD03E773E7049A009900F05C
:102120004BF8049AA36816009B1AA36023689B18B7
:102130002360F5E600FCFF7F7FFBFFFFFEFFFF7FD4
:10214000FFFFFF7F002370B5064C050008002360E9
:10215000FEF71CFC431C03D12368002B00D02B602E
:1021600070BDC0462001002070B5050008001100B8
:102170000022064C22601A00FEF7C6FB431C03D166
:102180002368002B00D02B6070BDC04620010020CA
:10219000C9B28218904201D10020704703788B4267
:1021A000FBD00130F6E7002310B59A4200D110BDF4
:1021B000CC5CC4540133F8E710B5884202D98B18BF
:1021C000984203D3002307E08B5C8354013AFBD28F
:1021D00010BDCC5CC45401339A42FAD1F8E7704781
:1021E0007047F8B507000D001600002905D1110051
:1021F000FFF784FA04002000F8BD002A03D1FFF79E
:1022000033FA3400F7E700F027F82C00B042F2D29E
:1022100031003800FFF772FA041EECD029003200BA
:10222000FFF7C1FF29003800FFF71EFAE3E70000BF
:1022300070B50500080011000022064C22601A004B
:10224000FEF7F0FB431C03D12368002B00D02B606A
:1022500070BDC046200100200B1F1B68181F002BFB
:1022600001DA0B58C0187047002243088B4274D320
:1022700003098B425FD3030A8B4244D3030B8B4287
:1022800028D3030C8B420DD3FF22090212BA030C90
:102290008B4202D31212090265D0030B8B4219D371
:1022A00000E0090AC30B8B4201D3CB03C01A524191
:1022B000830B8B4201D38B03C01A5241430B8B42D9
:1022C00001D34B03C01A5241030B8B4201D30B03C2
:1022D000C01A5241C30A8B4201D3CB02C01A5241E9
:1022E000830A8B4201D38B02C01A5241430A8B42AC
:1022F00001D34B02C01A5241030A8B4201D30B0295
:10230000C01A5241CDD2C3098B4201D3CB01C01AAE
:10231000524183098B4201D38B01C01A52414309B8
:102320008B4201D34B01C01A524103098B4201D3A6
:102330000B01C01A5241C3088B4201D3CB00C01A13
:10234000524183088B4201D38B00C01A524143088B
:102350008B4201D34B00C01A5241411A00D20146B0
:10236000524110467047FFE701B50020FEF740FDDF
:1023700002BDC0460029F7D076E770474D61676E11
:1023800065746963204669656C642052656365699C
:102390007665722E0D0A0D00526563696576656477
:1023A0003A2025640D0A0000496E746572727570DA
:1023B0007420776974686F7574204953522E2020F9
:1023C00053797374656D2073746F702E0000000074
:1023D00048617264204661756C7420696E74657220
:1023E000727570742E202053797374656D20737428
:1023F0006F702E00000000000000000000000000D0
:1024000000000000000000000000000000000000CC
:1024100000000000000000000000000000000000BC
:1024200000000000000000000000000000000000AC
:10243000000000000000000000000000000000009C
:10244000000000000000000000000000000000008C
:102450000000000008000020232D302B2000686CB5
:102460004C006566674546470030313233343536B7
:1024700037383941424344454600303132333435F0
:0C2480003637383961626364656600001D
:10248C006800002008000020000000001424000850
:10249C0034240008F42300080000000000000000B1
:1024AC000000000000000000000000000000000020
:1024BC000000000000000000000000000000000010
:1024CC000000000000000000000000000000000000
:1024DC0000000000000000000000000000000000F0
:0824EC000000000000000000E8
:04000005080000C12E
:00000001FF
