:030000000206D223
:0100030032CA
:01000B0032C2
:0100130032BA
:01001B0032B2
:0100230032AA
:03002B000203B914
:10002E000B0D0B0F0B0D0B0F0A0D0A0F0A0D0A13FA
:10003E000A0D0A0F0A0D0A0F0A0D0A0F0A0D0A13EE
:01004E0000B1
:10004F00C00078B10000D8FCD00022C000C00179F8
:10005F002D78A6D8FED9FADAF6D001D00022D293A5
:10006F0012004FC29322A2E792B6A2E692B4A2E583
:10007F0092B3A2E492B212006D12004FA2E392B6B5
:10008F00A2E292B4A2E192B3A2E092B212006D2268
:10009F00D291020075C291020075C293C29274335D
:1000AF001200A474331200A474321200A474281224
:1000BF0000A4740C1200A474011200A4C0027A02EE
:1000CF0012005AD00222E493600612009FA380F61A
:1000DF0022444044800200A4C0E0E8C4540F4430DE
:0E00EF0012009FE8540F443012009FD0E02210
:1000FD00C0E0C0D0C000C001C002E4F53AF53BF548
:10010D003CF53DF53E7A20E535A2E779047832E6F7
:10011D0033F608D9FA7905783AE636D4F608D9F9DE
:10012D00DAE5D002D001D000D0D0D0E022C0E0C0BE
:10013D00D0C000C001C002E4F53AF53BF53CF53DF9
:10014D00F53E7A20E535A2E779047832E633F608F4
:10015D00D9FA7905783AC0D0E6243320E70224D0C5
:10016D0020E30224FDD0D033F608D9EADAD6D00246
:10017D00D001D000D0D0D0E022C0E0C0D0C000C0AF
:10018D0001C0027A207905C3783EE613C0D030E76E
:10019D000224D030E30224FDF618D0D0D9EC790436
:1001AD007835E613F618D9FADADBD002D001D00093
:1001BD00D0D0D0E022C0E0C0D0E5322536F532E512
:1001CD00333537F533E5343538F534E5353539F52F
:1001DD0035D0D0D0E022C0E0C0D0C3E5329536F5A1
:1001ED0032E5339537F533E5349538F534E5359506
:1001FD0039F535D0D0D0E022C0E0C0D0C3E532957E
:10020D0036E5339537E5349538E53595399201D096
:10021D00D0D0E022C0E0C0D0C3E5369532E53795A9
:10022D0033E5389534E53995359201D0D0D0E022BB
:10023D00C0E0C0D0C201C3E53695327014E53795E4
:10024D0033700EE53895347008E53995357002D266
:10025D0001D0D0D0E02212023D2001030202212262
:10026D0012023D20010302020522C0E0C0F0C0D001
:10027D00C000C001C002C003E5328536F0A4F8A964
:10028D00F0E5338536F0A429F9E435F0FAE5328549
:10029D0037F0A429F9E5F03AFAE433FBE534853675
:1002AD00F0A42AFAE5F03BFBE5338537F0A42AFAF2
:1002BD00E5F03BFBE5328538F0A42AFAE5F03BFB8F
:1002CD00E5358536F0A42BFBE5348537F0A42BFB03
:1002DD00E5338538F0A42BFBE5328539F0A42BFBF3
:1002ED008B358A3489338832D003D002D001D000C7
:1002FD00D0D0D0F0D0E022C0E0C0D0C000C001C04E
:10030D0002C003C0047C20E4F8F9FAFBC3E53233E4
:10031D00F532E53333F533E53433F534E53533F57F
:10032D0035E833F8E933F9EA33FAEB33FBC3E895F3
:10033D0036E99537EA9538EB95394013E89536F857
:10034D00E99537F9EA9538FAEB9539FB433201DC3B
:10035D00BBD004D003D002D001D000D0D0D0E02249
:10036D00E58F54FB4404F58FE5AE54004450F5AED3
:10037D00E589540F4410F589E59154004480F591B9
:10038D00758D00758B007464F53FF5F5E540F5F35B
:10039D00C28E3275C80075CDA975CC9A75CBA9756D
:1003AD00CA9AE4F530F531D2ADD2CA22C2CFC0E03F
:1003BD00C0D00530E53070020531E530B4BB0EE537
:1003CD0031B400097530007531001203E8D0D0D07A
:1003DD00E03279DE78A6D8FED9FA2290002EE561BA
:1003ED0093F541E5612401F561B56203756100D2B4
:1003FD000322C0E07407141200E0D0E0C000A83E54
:10040D001200E7D000C000A83D1200E7D000C000E8
:10041D00A83C1200E7D000C000A83B1200E7D000B6
:10042D00C000A83A1200E7D000C0E0740714120013
:10043D00E0D0E0E53E54F0C460030204E4C0E07493
:10044D002012009FD0E0E53E540F60030204E4C08B
:10045D00E0742012009FD0E0E53D54F0C46003022B
:10046D0004E4C0E0742012009FD0E0E53D540F601D
:10047D00030204E4C0E0742012009FD0E0E53C5478
:10048D00F0C460030204E4C0E0742012009FD0E0C9
:10049D00E53C540F60030204E4C0E0742012009F99
:1004AD00D0E0E53B54F0C460030204E4C0E07420E6
:1004BD0012009FD0E0E53B540F60030204E4C0E05E
:1004CD00742012009FD0E0E53A54F0C47009C0E0EA
:1004DD00742012009FD0E02285303285313375347F
:1004ED00007535001200FD1203FF22854132753370
:1004FD00007534007535001200FD1203FF227542A0
:10050D000975432475443C75455175465B75476DBA
:10051D0075487D754984754A92754B9E754CA975C4
:10052D004DAD754EB6754FBE7550C27551C97552EC
:10053D00CF7553D47554D77555DB7556DF7557E1A7
:10054D007558E47559E7755AEA755BEB755CEE7590
:10055D005DF0755EF1755F757560A37561BB2212F7
:10056D0004F8E541B40007D28EE5420206C4B40199
:10057D0007D28EE5430206C4B40207D28EE54402CB
:10058D0006C4B40307D28EE5450206C4B40409D2ED
:10059D008EE5460206C4D28EB40507D28EE547021B
:1005AD0006C4B40607D28EE5480206C4B40707D2C6
:1005BD008EE5490206C4B40807D28EE54A0206C488
:1005CD00B40907D28EE54B0206C4B40A07D28EE5F4
:1005DD004C0206C4B40B09D28EE54D0206C4D28E70
:1005ED00B40C07D28EE54E0206C4B40D07D28EE5CB
:1005FD004F0206C4B40E07D28EE5500206C4B40FE6
:10060D0007D28EE5510206C4B41007D28EE5520210
:10061D0006C4B41107D28EE5530206C4B41207D234
:10062D008EE5540206C4B41307D28EE5550206C4F6
:10063D00B41407D28EE5560206C4B41509D28EE560
:10064D00570206C4D28EB41607D28EE5580206C4E0
:10065D00B41707D28EE5590206C4B41807D28EE539
:10066D005A0206C4B41907D28EE55B0206C4B41A49
:10067D0007D28EE55C0206C4B41B07D28EE55D027F
:10068D0006C4B41C27D28EE55E0206C4B41D07D283
:10069D008EE55F0206C4B41E07D28EE5600206C465
:1006AD00B41F09D28EE5610206C4D28EB42005C2F4
:1006BD008E0206C4754100F540F5F3C203222002F7
:1006CD000312056C2275817F754000D20012036DF7
:1006DD001203A01200A912050BC202C20375E60097
:1006ED0075E700D2AF75610075622020801012038E
:1006FD00DF20800A3080FDB202300202C28E20025D
:09070D00063003031206CB80E262
:00000001FF
