:03000000021C7669
:0100030032CA
:03000B00021C04D0
:0100130032BA
:01001B0032B2
:0100230032AA
:03002B00021C4173
:01003B003292
:10003C0020202020202020202050726568656174CB
:10004C0000202020202020202020536F616B2020B6
:10005C00200020202020202020202052616D703292
:10006C00706B002020202020202020205265666C00
:10007C006F772000202020202020202020436F6F2D
:10008C006C696E6700730057656C636F6D6521203A
:10009C00202020202020200053656C656374206F85
:1000AC007074696F6E202020005072657365742027
:1000BC0050726F66696C65202000437573746F6DA8
:1000CC002050726F66696C65202000536F616B2045
:1000DC0054656D702020202020202000536F616B10
:1000EC002054696D65202020202020200052656658
:1000FC006C6F772054696D6520202020200052659C
:10010C00666C6F772054656D702020202020005382
:10011C00414333303520736F6C64657220202000AE
:10012C0050622D736F6C64657220706173746520FE
:10013C00005368686821204E6F2070697A7A6120BC
:10014C002000616C6C6F77656420696E2068657245
:10015C00652E0070726F66696C65206C6F616465EA
:10016C006420200053797374656D20526561647945
:10017C0020202020005072657373205374617274B8
:10018C0020202020200078782020202020202020D3
:10019C002020202020200020202020202020202073
:1001AC00202020202020200041542050524553452F
:1001BC0054204D454E552020004154204355535456
:1001CC004F4D204D454E5520200041726520796FD2
:1001DC007520737572653F202020004572726F7216
:1001EC002C2070726F66696C657320006E6F7420C2
:1001FC006C6F616465642020202020200050726F99
:10020C00636573732061626F72746564200057615B
:10021C00697420746F20636F6F6C2020202000495C
:10022C0053522069732072756E6E696E67202000C0
:10023C005265666C6F772041626F72746564212021
:10024C0000537461746520300053746174652031FF
:10025C0000C0F9A4B0999282F88090755E02756125
:10026C0006755F28756000D28C22C28C755E007595
:10027C005F0022E55EB40002802FB40108D55F292F
:10028C00755E00C28CB4021EE560B4000BD55FF540
:10029C00755F28756001C28CD55FEA755F28756043
:0A02AC0000D28CD561DF755E0022E0
:1002B600C00078B10000D8FCD00022C000C001798F
:1002C6002D78A6D8FED9FADAF6D001D00022D2933C
:1002D6001202B6C29322A2E792B6A2E692B4A2E5B1
:1002E60092B3A2E492B21202D41202B6A2E392B67A
:1002F600A2E292B4A2E192B3A2E092B21202D42296
:10030600D2910202DCC2910202DCC293C292743321
:1003160012030B743312030B743212030B7428127C
:10032600030B740C12030B740112030BC0027A0246
:100336001202C1D00222E4936006120306A380F6DD
:10034600224440448002030BC0E0E8C4540F44300A
:0E035600120306E8540F4430120306D0E022D2
:10036400C0E0C0D0C000C001C002E4F544F545F5CA
:1003740046F547F5487A20E53FA2E77904783CE65C
:1003840033F608D9FA79057844E636D4F608D9F96B
:10039400DAE5D002D001D000D0D0D0E022C0E0C055
:1003A400D0C000C001C002E4F544F545F546F54768
:1003B400F5487A20E53FA2E77904783CE633F6086D
:1003C400D9FA79057844C0D0E6243320E70224D052
:1003D40020E30224FDD0D033F608D9EADAD6D002DD
:1003E400D001D000D0D0D0E022C0E0C0D0C000C046
:1003F40001C0027A207905C37848E613C0D030E7FB
:100404000224D030E30224FDF618D0D0D9EC7904CC
:10041400783FE613F618D9FADADBD002D001D0001F
:10042400D0D0D0E022C0E0C0D0E53C2540F53CE58A
:100434003D3541F53DE53E3542F53EE53F3543F575
:100444003FD0D0D0E022C0E0C0D0C3E53C9540F519
:100454003CE53D9541F53DE53E9542F53EE53F954C
:1004640043F53FD0D0D0E022C0E0C0D0C3E53C95F6
:1004740040E53D9541E53E9542E53F95439200D0E8
:10048400D0D0E022C0E0C0D0C3E540953CE5419522
:100494003DE542953EE543953F9200D0D0D0E02221
:1004A400C0E0C0D0C200C3E540953C7014E541955E
:1004B4003D700EE542953E7008E543953F7002D2CB
:1004C40000D0D0D0E0221204A42000030204882229
:1004D4001204A420000302046C22C0E0C0F0C0D0C7
:1004E400C000C001C002C003E53C8540F0A4F8A9E7
:1004F400F0E53D8540F0A429F9E435F0FAE53C85C2
:1005040041F0A429F9E5F03AFAE433FBE53E8540ED
:10051400F0A42AFAE5F03BFBE53D8541F0A42AFA74
:10052400E5F03BFBE53C8542F0A42AFAE5F03BFB11
:10053400E53F8540F0A42BFBE53E8541F0A42BFB71
:10054400E53D8542F0A42BFBE53C8543F0A42BFB61
:100554008B3F8A3E893D883CD003D002D001D00035
:10056400D0D0D0F0D0E022C0E0C0D0C000C001C0E4
:1005740002C003C0047C20E4F8F9FAFBC3E53C3371
:10058400F53CE53D33F53DE53E33F53EE53F33F5DA
:100594003FE833F8E933F9EA33FAEB33FBC3E89580
:1005A40040E99541EA9542EB95434013E89540F8BC
:1005B400E99541F9EA9542FAEB9543FB433C01DCAA
:1005C400BBD004D003D002D001D000D0D0D0E022E0
:1005D4007A2D79FA78A6D8FED9FADAF62275F0647B
:1005E40084F9E5F075F00A84C445F0F822754900F1
:1005F400754B00754D00754F008000C0E074011408
:10060400120349D0E0C083C082C0E090009312037B
:100614003CD0E0D082D083C0E0740114120347D0F0
:10062400E0C083C082C0E09000A412033CD0E0D0BC
:1006340082D08320A412C0027A321202C1D00220D6
:10064400A40630A4FD02097520A612C0027A321253
:1006540002C1D00220A60630A6FD02097520A5120B
:10066400C0027A321202C1D00220A50630A5FD02D2
:100674000975C2A0780112144278F0121442E954A8
:1006840003F53778551214428936D2A085363C8555
:10069400373D753E00753F007540FB75410F75424F
:1006A400007543001204DE7540FF75410375420076
:1006B40075430012056B7540E8754103754200757A
:1006C400430012056B853D37853C36E536B40002A0
:1006D4008061C2A0780112144278F0121442E954E5
:1006E40003F53778551214428936D2A085363C85F5
:1006F400373D753E00753F007540FB75410F7542EF
:10070400007543001204DE7540FF75410375420015
:1007140075430012056B7540E87541037542007519
:10072400430012056B853D37853C36E536B400A29F
:100734000209750205FFC0E0740114120349D0E0F8
:10074400C083C082C0E090017012033CD0E0D0822C
:10075400D083C0E0740114120347D0E0C083C08288
:10076400C0E090018112033CD0E0D082D083C2A0CB
:10077400780112144278F0121442E95403F53778E0
:10078400551214428936D2A085363C85373D753ED4
:1007940000753F007540FB75410F754200754300BD
:1007A4001204DE7540FF7541037542007543001263
:1007B400056B7540E87541037542007543001205E9
:1007C4006B853D37853C36E536B400028061C2A0B6
:1007D400780112144278F0121442E95403F5377880
:1007E400551214428936D2A085363C85373D753E74
:1007F40000753F007540FB75410F7542007543005D
:100804001204DE7540FF7541037542007543001202
:10081400056B7540E8754103754200754300120588
:100824006B853D37853C36E536B400A20209752058
:10083400A412C0027A321202C1D00220A40630A44B
:10084400FD02090CC2A0780112144278A0121442CD
:10085400E95403F53778551214428936D2A0853607
:100864003C85373D753E00753F007540FB75410F73
:100874007542007543001204DE7540FF754103752F
:10088400420075430012056B7540E87541037542DB
:100894000075430012056B853D37853C36E536B45B
:1008A40000028061C2A0780112144278A01214429E
:1008B400E95403F53778551214428936D2A08536A7
:1008C4003C85373D753E00753F007540FB75410F13
:1008D4007542007543001204DE7540FF75410375CF
:1008E400420075430012056B7540E875410375427B
:1008F4000075430012056B853D37853C36E536B4FB
:1009040000A202090C02073AE549B400028015E589
:100914004BB40002800EE54DB400028007E54FB4ED
:1009240000408000C0E0740114120349D0E0C08389
:10093400C082C0E09001E712033CD0E0D082D083B3
:10094400C0E0740114120347D0E0C083C082C0E049
:100954009001F812033CD0E0D082D083755300029A
:1009640005FF7401F553755E01755FC8D28C021CD6
:10097400AEC0E0740114120349D0E0C083C082C049
:10098400E09000B512033CD0E0D082D083C0E07484
:100994000114120347D0E0C083C082C0E09000C6B7
:1009A40012033CD0E0D082D08320A612C0027A3257
:1009B4001202C1D00220A60630A6FD0209D920A544
:1009C40012C0027A321202C1D00220A50630A5FD5F
:1009D400020AFF809CC0E0740114120349D0E0C0F5
:1009E40083C082C0E09001B412033CD0E0D082D036
:1009F40083C0E0740114120347D0E0C083C082C0F6
:100A0400E09001A312033CD0E0D082D08320A51251
:100A1400C0027A321202C1D00220A50630A5FD021E
:100A24000AFF20A412C0027A321202C1D00220A40A
:100A34000630A4FD020C25C2A0780112144278F0FD
:100A4400121442E95403F53778551214428936D208
:100A5400A085363C85373D753E00753F007540FBEB
:100A640075410F7542007543001204DE7540FF7531
:100A7400410375420075430012056B7540E87541EA
:100A84000375420075430012056B853D37853C367E
:100A9400E536B400028061C2A0780112144278F0F5
:100AA400121442E95403F53778551214428936D2A8
:100AB400A085363C85373D753E00753F007540FB8B
:100AC40075410F7542007543001204DE7540FF75D1
:100AD400410375420075430012056B7540E875418A
:100AE4000375420075430012056B853D37853C361E
:100AF400E536B400A20209750209D9C0E0740114F4
:100B0400120349D0E0C083C082C0E09001C5120343
:100B14003CD0E0D082D083C0E0740114120347D0EB
:100B2400E0C083C082C0E09001A312033CD0E0D0B7
:100B340082D08320A612C0027A321202C1D00220CF
:100B4400A60630A6FD0209D920A412C0027A3212E8
:100B540002C1D00220A40630A4FD021000C2A07875
:100B64000112144278F0121442E95403F53778550F
:100B74001214428936D2A085363C85373D753E0035
:100B8400753F007540FB75410F75420075430012B7
:100B940004DE7540FF75410375420075430012057C
:100BA4006B7540E875410375420075430012056B8F
:100BB400853D37853C36E536B400028061C2A078B5
:100BC4000112144278F0121442E95403F5377855AF
:100BD4001214428936D2A085363C85373D753E00D5
:100BE400753F007540FB75410F7542007543001257
:100BF40004DE7540FF75410375420075430012051C
:100C04006B7540E875410375420075430012056B2E
:100C1400853D37853C36E536B400A2020975020AE3
:100C2400FFC0E0740114120349D0E0C083C082C045
:100C3400E090011B12033CD0E0D082D083C0E0746A
:100C44000114120347D0E0C083C082C0E090012C9D
:100C540012033CD0E0D082D08320A612C0027A32A4
:100C64001202C1D00220A60630A6FD020D4B20A51B
:100C740012C0027A321202C1D00220A50630A5FDAC
:100C8400020E39C2A0780112144278F0121442E91B
:100C94005403F53778551214428936D2A085363C70
:100CA40085373D753E00753F007540FB75410F75F6
:100CB40042007543001204DE7540FF75410375421E
:100CC4000075430012056B7540E8754103754200D9
:100CD40075430012056B853D37853C36E536B40017
:100CE400028061C2A0780112144278F0121442E921
:100CF4005403F53778551214428936D2A085363C10
:100D040085373D753E00753F007540FB75410F7595
:100D140042007543001204DE7540FF7541037542BD
:100D24000075430012056B7540E875410375420078
:100D340075430012056B853D37853C36E536B400B6
:100D4400A2020975020C2520A512C0027A321202F1
:100D5400C1D00220A50630A5FD020E3920A412C080
:100D6400027A321202C1D00220A40630A4FD020F7E
:100D74006EC2A0780112144278F0121442E95403AE
:100D8400F53778551214428936D2A085363C85371A
:100D94003D753E00753F007540FB75410F7542007F
:100DA4007543001204DE7540FF75410375420075FA
:100DB400430012056B7540E87541037542007543A5
:100DC4000012056B853D37853C36E536B40002805C
:100DD40061C2A0780112144278F0121442E954035B
:100DE400F53778551214428936D2A085363C8537BA
:100DF4003D753E00753F007540FB75410F7542001F
:100E04007543001204DE7540FF7541037542007599
:100E1400430012056B7540E8754103754200754344
:100E24000012056B853D37853C36E536B400A202D9
:100E34000975020D4B20A612C0027A321202C1D0EB
:100E44000220A60630A6FD020D4B20A412C0027A91
:100E5400321202C1D00220A40630A4FD020F27C220
:100E6400A0780112144278F0121442E95403F537C1
:100E740078551214428936D2A085363C85373D75A3
:100E84003E00753F007540FB75410F754200754388
:100E9400001204DE7540FF7541037542007543007E
:100EA40012056B7540E875410375420075430012E5
:100EB400056B853D37853C36E536B400028061C25A
:100EC400A0780112144278F0121442E95403F53761
:100ED40078551214428936D2A085363C85373D7543
:100EE4003E00753F007540FB75410F754200754328
:100EF400001204DE7540FF7541037542007543001E
:100F040012056B7540E87541037542007543001284
:100F1400056B853D37853C36E536B400A20209757C
:100F2400020E39C0E0740114120349D0E0C083C03A
:100F340082C0E090012C12033CD0E0D082D083C068
:100F4400E0740114120347D0E0C083C082C0E09073
:100F5400015F12033CD0E0D082D083754978754B91
:100F640096754D14754FE602073AC0E074011412E9
:100F74000349D0E0C083C082C0E090011B12033C4F
:100F8400D0E0D082D083C0E0740114120347D0E0D3
:100F9400C083C082C0E090015F12033CD0E0D082E5
:100FA400D083754978754BA0754D0F754FF50207C1
:100FB4003AC0E0740114120349D0E0C083C082C077
:100FC400E090013D12033CD0E0D082D083C0E074B5
:100FD4000114120347D0E0C083C082C0E090014EE8
:100FE40012033CD0E0D082D083741EF54974C8F556
:100FF4004B7414F54D74F5F54F02073AC0E07401D3
:1010040014120349D0E0C083C082C0E09000C6122D
:10101400033CD0E0D082D083C0E0740114120347B3
:10102400D0E0C083C082C0E09001A312033CD0E0B2
:10103400D082D08320A412C0027A321202C1D0021C
:1010440020A40630A4FD0211168000C2A07801126B
:10105400144278F0121442E95403F5377855121407
:10106400428936D2A085363C85373D753E00753FB2
:10107400007540FB75410F7542007543001204DE94
:101084007540FF75410375420075430012056B7589
:1010940040E875410375420075430012056B853DB8
:1010A40037853C36E536B400028061C2A07801126F
:1010B400144278F0121442E95403F53778551214A7
:1010C400428936D2A085363C85373D753E00753F52
:1010D400007540FB75410F7542007543001204DE34
:1010E4007540FF75410375420075430012056B7529
:1010F40040E875410375420075430012056B853D58
:1011040037853C36E536B400A20211130210000202
:101114000975C0E0740114120349D0E0C083C08291
:10112400C0E09000D712033CD0E0D082D083E54BDE
:1011340075F06484F9E5F075F00A84C445F0F88923
:101144005CC0E0740114120347D0E0C000A85C1234
:10115400034ED000885CC0E0740314120347D0E04F
:10116400C000A85C12034ED00020A622C0027A322E
:101174001202C1D00220A61630A6FDE54B2401B40C
:10118400FF06E4F54B021116F54BE402111620A5F7
:1011940022C0027A321202C1D00220A51630A5FD67
:1011A400E54B24FFB40006E4F54B021116F54BE4BD
:1011B40002111630A40302111630A4FDC0E074011C
:1011C40014120349D0E0C083C082C0E09000E8124A
:1011D400033CD0E0D082D083E54975F06484F9E51E
:1011E400F075F00A84C445F0F8895CC0E074011419
:1011F400120347D0E0C000A85C12034ED000885C04
:10120400C0E0740314120347D0E0C000A85C1203CA
:101214004ED00020A622C0027A321202C1D002208F
:10122400A61630A6FDE5492401B4FF06E4F54902FB
:1012340011BDF549E40211BD20A522C0027A321283
:1012440002C1D00220A51630A5FDE54924FFB40053
:1012540006E4F5490211BDF549E40211BD30A403C9
:101264000211BD30A4FDC0E0740114120349D0E0A2
:10127400C083C082C0E090010A12033CD0E0D08257
:10128400D083E54F75F06484F9E5F075F00A84C401
:1012940045F0F8895CC0E0740114120347D0E0C043
:1012A40000A85C12034ED000885CC0E074031412E2
:1012B4000347D0E0C000A85C12034ED00020A62251
:1012C400C0027A321202C1D00220A61630A6FDE571
:1012D4004F2401B4FF06E4F54F021267F54FE40210
:1012E400126720A522C0027A321202C1D00220A5C0
:1012F4001630A5FDE54F24FFB40006E4F54F0212B5
:1013040067F54FE402126730A40302126730A4FDAC
:10131400C0E0740114120349D0E0C083C082C0E06D
:101324009000F912033CD0E0D082D083E54D75F0F3
:101334006484F9E5F075F00A84C445F0F8895CC06A
:10134400E0740114120347D0E0C000A85C12034EFD
:10135400D000885CC0E0740314120347D0E0C000DE
:10136400A85C12034ED00020A622C0027A321202D8
:10137400C1D00220A61630A6FDE54D2401B4FF0617
:10138400E4F54D021311F54DE402131120A522C01A
:10139400027A321202C1D00220A51630A5FDE54D15
:1013A40024FFB40006E4F54D021311F54DE40213D5
:1013B4001130A403021311C0E0740114120349D0C4
:1013C400E0C083C082C0E09001D612033CD0E0D0DC
:1013D40082D083C0E0740114120347D0E0C083C0FC
:1013E40082C0E09001A312033CD0E0D082D08330CD
:1013F400A6030213BB02073AC0E0E8C4540F44300A
:1014040012142AE8540F443012142AD0E02279DE50
:1014140078A6D8FED9FA438780759852759B0075D3
:101424009AF4759B1E223099FDC299F59922E49392
:10143400600612142AA380F622D2A2C2A322C0E01C
:1014440079007A08E833F892A1D2A3A2A2E933F989
:10145400C2A3DAF0D0E02279DE78A6D8FED9FA3237
:10146400C0E0740714120347D0E0C000A848120378
:101474004ED000C000A84712034ED000C000A846BA
:1014840012034ED000C000A84512034ED000C00085
:10149400A84412034ED000C0E0740714120347D0CE
:1014A400E0E54854F0C46003021549C0E07420121A
:1014B4000306D0E0E548540F6003021549C0E07408
:1014C40020120306D0E0E54754F0C4600302154936
:1014D400C0E07420120306D0E0E547540F60030215
:1014E4001549C0E07420120306D0E0E54654F0C468
:1014F4006003021549C0E07420120306D0E0E546FB
:10150400540F6003021549C0E07420120306D0E0B2
:10151400E54554F0C46003021549C0E07420120389
:1015240006D0E0E545540F6003021549C0E074207D
:10153400120306D0E0E54454F0C47009C0E07420FE
:10154400120306D0E022C0E0740714120349D0E06D
:10155400C000A84812034ED000C000A84712034E92
:10156400D000C000A84612034ED000C000A8451207
:10157400034ED000C000A84412034ED000C0E07453
:101584000714120349D0E0E54854F0C4600302167E
:101594002FC0E07420120306D0E0E548540F600326
:1015A40002162FC0E07420120306D0E0E54754F081
:1015B400C4600302162FC0E07420120306D0E0E5D5
:1015C40047540F600302162FC0E07420120306D0A4
:1015D400E0E54654F0C4600302162FC0E074201204
:1015E4000306D0E0E546540F600302162FC0E074F2
:1015F40020120306D0E0E54554F0C4600302162F20
:10160400C0E07420120306D0E0E545540F600302E5
:10161400162FC0E07420120306D0E0E54454F0C451
:101624007009C0E07420120306D0E022C000A8486C
:101634001213FCD000C000A8471213FCD000C00055
:10164400A8461213FCD000C000A8451213FCD00019
:10165400C000A8441213FCD000740D12142A740A9A
:1016640012142A22C2A07801121442788012144261
:10167400E95403F53378551214428932D2A08532E5
:101684003C85333D753E00753F007540FD75410F47
:101694007542007543001204DE7540FF7541037501
:1016A400420075430012056B75400A75410075428E
:1016B4000075430012056B754011754101754200B8
:1016C40075430012044A853C32853D3322C2A0781A
:1016D400011214427890121442E95403F5377855F4
:1016E4001214428936D2A085363C85373D753E00BA
:1016F400753F007540FD75410F754200754300123A
:1017040004DE7540FF754103754200754300120500
:101714006B853C36853D3785363C85373D753E00C7
:10172400753F007540877541097542007543001285
:1017340004DE7540CD754100754200754300120505
:101744006B75406475410075420075430012056B6A
:1017540085324085334175420075430012044A8541
:101764003C34853D352285343C85353D753E0075D8
:101774003F0012036485443885453922300211C282
:10178400021216681216D112176A121464121BD3AD
:011794002232
:10179500C2A0780112144278B0121442E95403F53C
:1017A5003778551214428936D2A085363C85373DA7
:1017B500753E00753F007540FB75410F754200751C
:1017C50043001204DE7540FF754103754200754301
:1017D5000012056B7540E8754103754200754300BD
:1017E50012056B853D37853C36E536B40002801F12
:1017F500C0E0740114120349D0E0C083C082C0E088
:1018050090023C12033CD0E0D082D083755305E5AD
:1018150053B40041C0E0740114120349D0E0C08301
:10182500C082C0E090024D12033CD0E0D082D0834C
:10183500C0E0740114120347D0E0C083C082C0E049
:101845009001A312033CD0E0D082D08375F500024D
:1018550005F1021CAEB4017475F5FFC0E074011406
:10186500120349D0E0C083C082C0E090003C12035F
:101875003CD0E0D082D083C0E0740914120347D075
:10188500E0E53A12142AC0E0740C14120347D0E0C4
:10189500C083C082C0E090009112033CD0E0D082AA
:1018A500D083C0E0740114120347D0E0E55512144B
:1018B5002A755600E54BC39534500E753A0075539D
:1018C50002755E01755F28D28C021CAEB4020280DF
:1018D5000302197575F533C0E0740114120349D07C
:1018E500E0C083C082C0E090004D12033CD0E0D040
:1018F50082D083C0E0740914120347D0E0E53A12A0
:10190500142AC0E0740C14120347D0E0C083C082CF
:10191500C0E090009112033CD0E0D082D083C0E0BB
:10192500740114120347D0E0E55512142AE53A1262
:1019350005E1C0E0740114120347D0E0E9C000F8E6
:1019450012034ED000C0E0740314120347D0E0E840
:10195500C000F812034ED000E549C3953A500E7504
:101965005303755E01755F28D28C753A00021CAE73
:10197500B403028003021A19E53A1205E1C0E074C6
:101985000114120347D0E0E9C000F812034ED0005D
:10199500C0E0740314120347D0E0E8C000F8120356
:1019A5004ED00075F5FFC0E0740114120349D0E074
:1019B500C083C082C0E090005E12033CD0E0D082BC
:1019C500D083C0E0740914120347D0E0E53A12143D
:1019D5002AC0E0740C14120347D0E0C083C082C053
:1019E500E090009112033CD0E0D082D083C0E07437
:1019F5000114120347D0E0E55512142AE54FC395AB
:101A050034500E753A00755304755E01755F28D222
:101A15008C021CAEB404028003021AC175F533C0F2
:101A2500E0740114120349D0E0C083C082C0E09085
:101A3500006F12033CD0E0D082D083C0E07409145B
:101A4500120347D0E0E53A12142AC0E0740C1412D0
:101A55000347D0E0C083C082C0E090009112033CF0
:101A6500D0E0D082D083C0E0740114120347D0E0E7
:101A7500E55512142AE53A1205E1C0E07401141285
:101A85000347D0E0E9C000F812034ED000C0E0746F
:101A95000314120347D0E0E8C000F812034ED0004B
:101AA500E54DC3D206953A5010C206755305755ECD
:101AB50001755FC8D28C753A00021CAEB405028070
:101AC50003021B6575F500C0E0740114120349D0CB
:101AD500E0C083C082C0E090008012033CD0E0D01B
:101AE50082D083C0E0740914120347D0E0E53A12AE
:101AF500142AC0E0740C14120347D0E0C083C082DE
:101B0500C0E090009112033CD0E0D082D083C0E0C9
:101B1500740114120347D0E0E55512142AE53A1270
:101B250005E1C0E0740114120347D0E0E9C000F8F4
:101B350012034ED000C0E0740314120347D0E0E84E
:101B4500C000F812034ED000E534C39557500E750A
:101B55003A00755306755E01755F28D28C021CAE7E
:101B6500755300021CAEA2E09283A2E19285A2E227
:101B75009287A2E392C4A2E492C5A2E59284A2E66A
:101B85009286A2E792A722D281D280D282E55BB467
:101B9500000BE558121B6BC281055B8020B4010B5D
:101BA500E559121B6BC280055B8012B4020CE55A25
:101BB500121B6BC282755B008003755B002274008B
:101BC500F55B7411F5387401F539121BD3229002B7
:101BD5005DE538540F93F558E538C4540F93F5591E
:101BE500E539540F93F55A22E58954F04401F589F6
:101BF500758CEA758AE875F4EA75F2E8D2A922B21D
:101C0500B732E589540F4410F589E59154004480B5
:101C1500F591758D00758B0075F50075F300D28E05
:101C25003275C80075CDA975CC9A75CBA975CA9AB8
:101C3500E4F530F531F53BD2ADD2CA22C2CFC0E0D2
:101C4500C0D0121B8C0530E53070020531E530B48B
:101C5500C81AE531B40015D202E4F530F531053B7B
:101C6500E53BB40507753B00D201053AD0D0D0E07D
:101C75003275817F121BC3121BED121C07121C2625
:101C8500120276C203C204C205753A00755D00757D
:101C9500530075573C75E60075E700758E11D2AF98
:101CA50012141212143D12031012178012027F0231
:041CB500179580F50A
:00000001FF
