:03000000021BC719
:0100030032CA
:03000B0002195780
:0100130032BA
:01001B0032B2
:0100230032AA
:03002B0002199225
:03003B000219DCCB
:10003E0020202020202020202050726568656174C9
:10004E0000202020202020202020536F616B2020B4
:10005E00200020202020202020202052616D703290
:10006E00706B002020202020202020205265666CFE
:10007E006F772000202020202020202020436F6F2B
:10008E006C696E6700730057656C636F6D65212038
:10009E00202020202020200053656C656374206F83
:1000AE007074696F6E202020005072657365742025
:1000BE0050726F66696C65202000437573746F6DA6
:1000CE002050726F66696C65202000536F616B2043
:1000DE0054656D702020202020202000536F616B0E
:1000EE002054696D65202020202020200052656656
:1000FE006C6F772054696D6520202020200052659A
:10010E00666C6F772054656D702020202020005380
:10011E00414333303520736F6C64657220202000AC
:10012E0050622D736F6C64657220706173746520FC
:10013E00005368686821204E6F2070697A7A6120BA
:10014E002000616C6C6F77656420696E2068657243
:10015E00652E0070726F66696C65206C6F616465E8
:10016E006420200053797374656D20526561647943
:10017E0020202020005072657373205374617274B6
:10018E0020202020200078782020202020202020D1
:10019E002020202020200020202020202020202071
:1001AE00202020202020200041542050524553452D
:1001BE0054204D454E552020004154204355535454
:1001CE004F4D204D454E5520200041726520796FD0
:1001DE007520737572653F202020004572726F7214
:1001EE002C2070726F66696C657320006E6F7420C0
:1001FE006C6F616465642020202020200050726F97
:10020E00636573732061626F727465642000576159
:10021E00697420746F20636F6F6C2020202000495A
:10022E0053522069732072756E6E696E67202000BE
:10023E00537461746520300053746174652031000D
:10024E00C00078B10000D8FCD00022C000C00179F7
:10025E002D78A6D8FED9FADAF6D001D00022D293A4
:10026E0012024EC29322A2E792B6A2E692B4A2E581
:10027E0092B3A2E492B212026C12024EA2E392B6B2
:10028E00A2E292B4A2E192B3A2E092B212026C2266
:10029E00D291020274C291020274C293C29274335A
:1002AE001202A374331202A374321202A374281220
:1002BE0002A3740C1202A374011202A3C0027A02EA
:1002CE00120259D00222E493600612029EA380F617
:1002DE0022444044800202A3C0E0E8C4540F4430DC
:0E02EE0012029EE8540F443012029ED0E0220D
:1002FC00C0E0C0D0C000C001C002E4F543F544F535
:10030C0045F546F5477A20E53EA2E77904783BE6C9
:10031C0033F608D9FA79057843E636D4F608D9F9D4
:10032C00DAE5D002D001D000D0D0D0E022C0E0C0BD
:10033C00D0C000C001C002E4F543F544F545F546D4
:10034C00F5477A20E53EA2E77904783BE633F608D8
:10035C00D9FA79057843C0D0E6243320E70224D0BB
:10036C0020E30224FDD0D033F608D9EADAD6D00245
:10037C00D001D000D0D0D0E022C0E0C0D0C000C0AE
:10038C0001C0027A207905C37847E613C0D030E764
:10039C000224D030E30224FDF618D0D0D9EC790435
:1003AC00783EE613F618D9FADADBD002D001D00089
:1003BC00D0D0D0E022C0E0C0D0E53B253FF53BE5F6
:1003CC003C3540F53CE53D3541F53DE53E3542F5E6
:1003DC003ED0D0D0E022C0E0C0D0C3E53B953FF585
:1003EC003BE53C9540F53CE53D9541F53DE53E95BD
:1003FC0042F53ED0D0D0E022C0E0C0D0C3E53B9562
:10040C003FE53C9540E53D9541E53E95429200D057
:10041C00D0D0E022C0E0C0D0C3E53F953BE540958D
:10042C003CE541953DE542953E9200D0D0D0E0228E
:10043C00C0E0C0D0C200C3E53F953B7014E54095C9
:10044C003C700EE541953D7008E542953E7002D238
:10045C0000D0D0D0E02212043C2000030204202261
:10046C0012043C20000302040422C0E0C0F0C0D0FF
:10047C00C000C001C002C003E53B853FF0A4F8A951
:10048C00F0E53C853FF0A429F9E435F0FAE53B852D
:10049C0040F0A429F9E5F03AFAE433FBE53D853F59
:1004AC00F0A42AFAE5F03BFBE53C8540F0A42AFADF
:1004BC00E5F03BFBE53B8541F0A42AFAE5F03BFB7C
:1004CC00E53E853FF0A42BFBE53D8540F0A42BFBDE
:1004DC00E53C8541F0A42BFBE53B8542F0A42BFBCE
:1004EC008B3E8A3D893C883BD003D002D001D000A2
:1004FC00D0D0D0F0D0E022C0E0C0D0C000C001C04D
:10050C0002C003C0047C20E4F8F9FAFBC3E53B33DA
:10051C00F53BE53C33F53CE53D33F53DE53E33F548
:10052C003EE833F8E933F9EA33FAEB33FBC3E895E9
:10053C003FE99540EA9541EB95424013E8953FF829
:10054C00E99540F9EA9541FAEB9542FB433B01DC16
:10055C00BBD004D003D002D001D000D0D0D0E02248
:10056C007A2D79FA78A6D8FED9FADAF622754800EF
:10057C00754A00754C00754E00020588C0E0740188
:10058C00141202E1D0E0C083C082C0E0900095124A
:10059C0002D4D0E0D082D083C0E07401141202DF08
:1005AC00D0E0C083C082C0E09000A61202D4D0E09C
:1005BC00D082D08320A412C0027A32120259D00207
:1005CC0020A40630A4FD0208F620A612C0027A323E
:1005DC00120259D00220A60630A6FD0208F620A56C
:1005EC0012C0027A32120259D00220A50630A5FDA3
:1005FC000208F6C2A0780112131778F0121317E94B
:10060C005403F53778551213178936D2A085363B2B
:10061C0085373C753D00753E00753FFB75400F7589
:10062C004100754200120476753FFF754003754119
:10063C0000754200120503753FE8754003754100D3
:10064C00754200120503853C37853B36E536B40010
:10065C00028061C2A0780112131778F0121317E907
:10066C005403F53778551213178936D2A085363BCB
:10067C0085373C753D00753E00753FFB75400F7529
:10068C004100754200120476753FFF7540037541B9
:10069C0000754200120503753FE875400375410073
:1006AC00754200120503853C37853B36E536B400B0
:1006BC00A20208F6020588C0E07401141202E1D00F
:1006CC00E0C083C082C0E09001721202D4D0E0D0AE
:1006DC0082D083C0E07401141202DFD0E0C083C06A
:1006EC0082C0E09001831202D4D0E0D082D083C2C9
:1006FC00A0780112131778F0121317E95403F53789
:10070C0078551213178936D2A085363B85373C7540
:10071C003D00753E00753FFB75400F7541007542FD
:10072C0000120476753FFF75400375410075420059
:10073C00120503753FE875400375410075420012C0
:10074C000503853C37853B36E536B400028061C233
:10075C00A0780112131778F0121317E95403F53728
:10076C0078551213178936D2A085363B85373C75E0
:10077C003D00753E00753FFB75400F75410075429D
:10078C0000120476753FFF754003754100754200F9
:10079C00120503753FE87540037541007542001260
:1007AC000503853C37853B36E536B400A20208F6D6
:1007BC0020A412C0027A32120259D00220A40630B0
:1007CC00A4FD020895C2A0780112131778A0121389
:1007DC0017E95403F53778551213178936D2A085CB
:1007EC00363B85373C753D00753E00753FFB7540CB
:1007FC000F754100754200120476753FFF7540037A
:10080C00754100754200120503753FE8754003758C
:10081C004100754200120503853C37853B36E536B1
:10082C00B400028061C2A0780112131778A01213D1
:10083C0017E95403F53778551213178936D2A0856A
:10084C00363B85373C753D00753E00753FFB75406A
:10085C000F754100754200120476753FFF75400319
:10086C00754100754200120503753FE8754003752C
:10087C004100754200120503853C37853B36E53651
:10088C00B400A20208950206C3E548B40002801524
:10089C00E54AB40002800EE54CB400028007E54E38
:1008AC00B400408000C0E07401141202E1D0E0C03A
:1008BC0083C082C0E09001E91202D4D0E0D082D093
:1008CC0083C0E07401141202DFD0E0C083C082C088
:1008DC00E09001FA1202D4D0E0D082D0837552009D
:1008EC000205887401F5520216BAC0E074011412A4
:1008FC0002E1D0E0C083C082C0E09000B71202D405
:10090C00D0E0D082D083C0E07401141202DFD0E0BA
:10091C00C083C082C0E09000C81202D4D0E0D08264
:10092C00D08320A612C0027A32120259D00220A61D
:10093C000630A6FD02095A20A512C0027A32120214
:10094C0059D00220A50630A5FD020A80809CC0E08B
:10095C007401141202E1D0E0C083C082C0E09001A7
:10096C00B61202D4D0E0D082D083C0E0740114124D
:10097C0002DFD0E0C083C082C0E09001A51202D497
:10098C00D0E0D082D08320A512C0027A3212025954
:10099C00D00220A50630A5FD020A8020A412C002B8
:1009AC007A32120259D00220A40630A4FD020BA602
:1009BC00C2A0780112131778F0121317E95403F53B
:1009CC003778551213178936D2A085363B85373CBC
:1009DC00753D00753E00753FFB75400F7541007508
:1009EC004200120476753FFF754003754100754255
:1009FC0000120503753FE875400375410075420010
:100A0C00120503853C37853B36E536B40002806120
:100A1C00C2A0780112131778F0121317E95403F5DA
:100A2C003778551213178936D2A085363B85373C5B
:100A3C00753D00753E00753FFB75400F75410075A7
:100A4C004200120476753FFF7540037541007542F4
:100A5C0000120503753FE8754003754100754200AF
:100A6C00120503853C37853B36E536B400A20208F7
:100A7C00F602095AC0E07401141202E1D0E0C083FE
:100A8C00C082C0E09001C71202D4D0E0D082D083E3
:100A9C00C0E07401141202DFD0E0C083C082C0E059
:100AAC009001A51202D4D0E0D082D08320A612C02F
:100ABC00027A32120259D00220A60630A6FD020993
:100ACC005A20A412C0027A32120259D00220A40673
:100ADC0030A4FD020F83C2A0780112131778F01214
:100AEC001317E95403F53778551213178936D2A02A
:100AFC0085363B85373C753D00753E00753FFB7573
:100B0C00400F754100754200120476753FFF754029
:100B1C0003754100754200120503753FE8754003EB
:100B2C00754100754200120503853C37853B36E55F
:100B3C0036B400028061C2A0780112131778F0124B
:100B4C001317E95403F53778551213178936D2A0C9
:100B5C0085363B85373C753D00753E00753FFB7512
:100B6C00400F754100754200120476753FFF7540C9
:100B7C0003754100754200120503753FE87540038B
:100B8C00754100754200120503853C37853B36E5FF
:100B9C0036B400A20208F6020A80C0E074011412F6
:100BAC0002E1D0E0C083C082C0E090011D1202D4EB
:100BBC00D0E0D082D083C0E07401141202DFD0E008
:100BCC00C083C082C0E090012E1202D4D0E0D0824B
:100BDC00D08320A612C0027A32120259D00220A66B
:100BEC000630A6FD020CCC20A512C0027A321202ED
:100BFC0059D00220A50630A5FD020DBAC2A078017D
:100C0C0012131778F0121317E95403F537785512AD
:100C1C0013178936D2A085363B85373C753D007558
:100C2C003E00753FFB75400F754100754200120484
:100C3C0076753FFF75400375410075420012050340
:100C4C00753FE87540037541007542001205038538
:100C5C003C37853B36E536B400028061C2A0780192
:100C6C0012131778F0121317E95403F5377855124D
:100C7C0013178936D2A085363B85373C753D0075F8
:100C8C003E00753FFB75400F754100754200120424
:100C9C0076753FFF754003754100754200120503E0
:100CAC00753FE875400375410075420012050385D8
:100CBC003C37853B36E536B400A20208F6020BA69B
:100CCC0020A512C0027A32120259D00220A5063099
:100CDC00A5FD020DBA20A412C0027A32120259D01C
:100CEC000220A40630A4FD020EEFC2A0780112135C
:100CFC001778F0121317E95403F5377855121317B8
:100D0C008936D2A085363B85373C753D00753E0053
:100D1C00753FFB75400F75410075420012047675E6
:100D2C003FFF754003754100754200120503753F86
:100D3C00E8754003754100754200120503853C3788
:100D4C00853B36E536B400028061C2A078011213EF
:100D5C001778F0121317E95403F537785512131757
:100D6C008936D2A085363B85373C753D00753E00F3
:100D7C00753FFB75400F7541007542001204767586
:100D8C003FFF754003754100754200120503753F26
:100D9C00E8754003754100754200120503853C3728
:100DAC00853B36E536B400A20208F6020CCC20A630
:100DBC0012C0027A32120259D00220A60630A6FDC9
:100DCC00020CCC20A412C0027A32120259D002209A
:100DDC00A40630A4FD020EA8C2A078011213177845
:100DEC00F0121317E95403F5377855121317893697
:100DFC00D2A085363B85373C753D00753E00753F6E
:100E0C00FB75400F754100754200120476753FFF6B
:100E1C00754003754100754200120503753FE87576
:100E2C004003754100754200120503853C37853B34
:100E3C0036E536B400028061C2A07801121317782F
:100E4C00F0121317E95403F5377855121317893636
:100E5C00D2A085363B85373C753D00753E00753F0D
:100E6C00FB75400F754100754200120476753FFF0B
:100E7C00754003754100754200120503753FE87516
:100E8C004003754100754200120503853C37853BD4
:100E9C0036E536B400A20208F6020DBAC0E07401C1
:100EAC00141202E1D0E0C083C082C0E090012E1287
:100EBC0002D4D0E0D082D083C0E07401141202DFDF
:100ECC00D0E0C083C082C0E09001611202D4D0E0B7
:100EDC00D082D083754878754A96754C14754EE659
:100EEC000206C3C0E07401141202E1D0E0C083C05A
:100EFC0082C0E090011D1202D4D0E0D082D083C019
:100F0C00E07401141202DFD0E0C083C082C0E09014
:100F1C0001611202D4D0E0D082D083754878754A32
:100F2C00A0740FF54C74F5F54E0206C3C0E07401C5
:100F3C00141202E1D0E0C083C082C0E090013F12E5
:100F4C0002D4D0E0D082D083C0E07401141202DF4E
:100F5C00D0E0C083C082C0E09001501202D4D0E037
:100F6C00D082D083741EF54874C8F54A7414F54CBD
:100F7C0074F5F54E0206C3C0E07401141202E1D000
:100F8C00E0C083C082C0E09000C81202D4D0E0D090
:100F9C0082D083C0E07401141202DFD0E0C083C0A1
:100FAC0082C0E09001A51202D4D0E0D082D0832080
:100FBC00A412C0027A32120259D00220A40630A424
:100FCC00FD0210998000C2A0780112131778F0125C
:100FDC001317E95403F53778551213178936D2A035
:100FEC0085363B85373C753D00753E00753FFB757E
:100FFC00400F754100754200120476753FFF754035
:10100C0003754100754200120503753FE8754003F6
:10101C00754100754200120503853C37853B36E56A
:10102C0036B400028061C2A0780112131778F01256
:10103C001317E95403F53778551213178936D2A0D4
:10104C0085363B85373C753D00753E00753FFB751D
:10105C00400F754100754200120476753FFF7540D4
:10106C0003754100754200120503753FE875400396
:10107C00754100754200120503853C37853B36E50A
:10108C0036B400A2021096020F830208F6C0E07478
:10109C0001141202E1D0E0C083C082C0E09000D9FC
:1010AC001202D4D0E0D082D083C0E07401141202BA
:1010BC00DFD0E0C000A84A1202E6D00020A623C070
:1010CC00027A32120259D00220A61730A6FDE54A48
:1010DC002401D4B49906E4F54A021099F54AE402C5
:1010EC00109920A523C0027A32120259D00220A5F1
:1010FC001730A5FDE54A2499D4B40006E4F54A025C
:10110C001099F54AE402109930A40302109930A406
:10111C00FDC0E07401141202E1D0E0C083C082C0B3
:10112C00E09000EA1202D4D0E0D082D083C0E07408
:10113C0001141202DFD0E0C000A8481202E6D00071
:10114C0020A623C0027A32120259D00220A61730F0
:10115C00A6FDE5482401D4B49906E4F54802111A19
:10116C00F548E402111A20A523C0027A3212025962
:10117C00D00220A51730A5FDE5482499D4B400066B
:10118C00E4F54802111AF548E402111A30A40302DE
:10119C00111A30A4FDC0E07401141202E1D0E0C0B9
:1011AC0083C082C0E090010C1202D4D0E0D082D077
:1011BC0083C0E07401141202DFD0E0C000A84E120C
:1011CC0002E6D00020A623C0027A32120259D002C5
:1011DC0020A61730A6FDE54E2401D4B49906E4F5FB
:1011EC004E02119EF54EE402119E20A523C0027AF8
:1011FC0032120259D00220A51730A5FDE54E2499D4
:10120C00D4B40006E4F54E02119EF54EE402119E94
:10121C0030A40302119E30A4FDC0E074011412022C
:10122C00E1D0E0C083C082C0E09000FB1202D4D0B9
:10123C00E0D082D083C0E07401141202DFD0E0C091
:10124C0000A84C1202E6D00020A623C0027A32126B
:10125C000259D00220A61730A6FDE54C2401D4B4C7
:10126C009906E4F54C021222F54CE402122220A558
:10127C0023C0027A32120259D00220A51730A5FDE4
:10128C00E54C2499D4B40006E4F54C021222F54C3A
:10129C00E402122230A403021222C0E074011412E0
:1012AC0002E1D0E0C083C082C0E09001D81202D429
:1012BC00D0E0D082D083C0E07401141202DFD0E001
:1012CC00C083C082C0E09001A51202D4D0E0D082CD
:0B12DC00D08330A6030212A60206C356
:1012E70079DE78A6D8FED9FA438780759852759B20
:1012F70000759AF4759B1E223099FDC299F59922C3
:10130700E49360061212FFA380F622D2A2C2A322A0
:10131700C0E079007A08E833F892A1D2A3A2A2E943
:1013270033F9C2A3DAF0D0E02248656C6C6F2C2049
:10133700576F726C64210D0A0079DE78A6D8FED942
:10134700FA32C0E07407141202DFD0E0C000A847E9
:101357001202E6D000C000A8461202E6D000C00084
:10136700A8451202E6D000C000A8441202E6D00049
:10137700C000A8431202E6D000C0E07407141202AE
:10138700DFD0E0E54754F0C4600302142EC0E074D8
:101397002012029ED0E0E547540F600302142EC0CE
:1013A700E0742012029ED0E0E54654F0C4600302C8
:1013B700142EC0E0742012029ED0E0E546540F6060
:1013C7000302142EC0E0742012029ED0E0E54554BB
:1013D700F0C4600302142EC0E0742012029ED0E015
:1013E700E545540F600302142EC0E0742012029EDC
:1013F700D0E0E54454F0C4600302142EC0E074202A
:1014070012029ED0E0E544540F600302142EC0E0A0
:10141700742012029ED0E0E54354F0C47009C0E086
:10142700742012029ED0E022C0E07407141202E179
:10143700D0E0C000A8471202E6D000C000A84612BC
:1014470002E6D000C000A8451202E6D000C000A8FE
:10145700441202E6D000C000A8431202E6D000C042
:10146700E07407141202E1D0E0E54754F0C46003CA
:10147700021514C0E0742012029ED0E0E547540F15
:101487006003021514C0E0742012029ED0E0E54606
:1014970054F0C46003021514C0E0742012029ED0F9
:1014A700E0E546540F6003021514C0E074201202F1
:1014B7009ED0E0E54554F0C46003021514C0E07403
:1014C7002012029ED0E0E545540F6003021514C0B8
:1014D700E0742012029ED0E0E54454F0C460030299
:1014E7001514C0E0742012029ED0E0E544540F604A
:1014F70003021514C0E0742012029ED0E0E54354A5
:10150700F0C47009C0E0742012029ED0E022C0002F
:10151700A847121575740D1212FF740A1212FFD024
:1015270000C000A846121575740D1212FF740A1236
:1015370012FFD000C000A845121575740D1212FFD6
:10154700740A1212FFD000C000A844121575740D5A
:101557001212FF740A1212FFD000C000A84312151E
:1015670075740D1212FF740A1212FFD00022C0E028
:10157700E8C4540F44301212FFE8540F44301212DB
:10158700FFD0E022C2A07801121317788012131738
:10159700E95403F53778551213178936D2A08536E3
:1015A7003B85373C753D00753E00753FFB75400F29
:1015B700754100754200120476753FFF754003754B
:1015C7004100754200120503753FE87540037541F8
:1015D70000754200120503853C37853B3685363B4F
:1015E70085373C753D00753C00753F647540007557
:1015F7004100754200120476753F1175400175412F
:10160700007542001203E2853B32853C3322C2A0BB
:1016170078011213177890121317E95403F53778E6
:10162700551213178936D2A085363B85373C753D51
:1016370000753E00753FFB75400F75410075420010
:10164700120476753FFF754003754100754200121D
:101657000503853B36853C3785363B85373C753DED
:1016670000753E00753F877540097541007542005A
:10167700120476753FCD7540007541007542001222
:101687000503753F647540007541007542001205FA
:101697000385323F8533408534418535421203C186
:1016A700853B34853C3522300108C20112158B1267
:0316B700161522E3
:1016BA00E552B4003EC0E07401141202E1D0E0C069
:1016CA0083C082C0E090023E1202D4D0E0D082D021
:1016DA0083C0E07401141202DFD0E0C083C082C06C
:1016EA00E09001A51202D4D0E0D082D08375F50033
:1016FA00021BEDC0E07401141202E1D0E0C083C005
:10170A0082C0E09002461202D4D0E0D082D0833068
:10171A00A6FDB4016C75F5FFC0E07401141202E174
:10172A00D0E0C083C082C0E090003E1202D4D0E074
:10173A00D082D083C0E07409141202DFD0E0E53A07
:10174A001212FFC0E0740C141202DFD0E0C083C092
:10175A0082C0E09000931202D4D0E0D082D083C03D
:10176A00E07401141202DFD0E0E5541212FF75553D
:10177A0000E54AC395545006753A00755202021B99
:10178A00EDB4026975F533C0E07401141202E1D0B8
:10179A00E0C083C082C0E090004F1202D4D0E0D0F3
:1017AA0082D083C0E07409141202DFD0E0E53A1255
:1017BA0012FFC0E0740C141202DFD0E0C083C082B2
:1017CA00C0E09000931202D4D0E0D082D083C0E06F
:1017DA007401141202DFD0E0E5541212FFE548C387
:1017EA00953A5006755203753A00021BEDB4036927
:1017FA0075F5FFC0E07401141202E1D0E0C083C0A5
:10180A0082C0E09000601202D4D0E0D082D083C0BF
:10181A00E07409141202DFD0E0E53A1212FFC0E0C8
:10182A00740C141202DFD0E0C083C082C0E09000C2
:10183A00931202D4D0E0D082D083C0E07401141293
:10184A0002DFD0E0E5541212FFE54EC3955450066C
:10185A00753A00755204021BEDB40469755314C03D
:10186A00E07401141202E1D0E0C083C082C0E090AB
:10187A0000711202D4D0E0D082D083C0E07409147F
:10188A001202DFD0E0E53A1212FFC0E0740C141223
:10189A0002DFD0E0C083C082C0E09000931202D47D
:1018AA00D0E0D082D083C0E07401141202DFD0E00D
:1018BA00E5541212FFE54CC3953A50067552057568
:1018CA003A00021BEDB40569755300C0E0740114B7
:1018DA001202E1D0E0C083C082C0E090008212020E
:1018EA00D4D0E0D082D083C0E07409141202DFD0D1
:1018FA00E0E53A1212FFC0E0740C141202DFD0E0E5
:10190A00C083C082C0E09000931202D4D0E0D0829B
:10191A00D083C0E07401141202DFD0E0E554121241
:10192A00FFE556C395545006753A00755200021BDE
:10193A00ED021BEAE58954F04401F589758CEA75D4
:10194A008AE875F4EA75F2E8D2A9D28C22800032CC
:10195A00E589540F4410F589E59154004480F591C6
:10196A00758D00758B0075F50075F300D28E327592
:10197A00C80075CDA975CC9A75CBA975CA9AE4F534
:10198A0030F531D2ADD2CA22C2CFC0E0C0D00530C4
:10199A00E53070150531C000A843121575740D1293
:1019AA0012FF740A1212FFD000E530B4C815E531EF
:1019BA00B40010D201B28CE4F530F531E53A2401D5
:1019CA00D4F53AD0D0D0E032759F01759C00759D50
:1019DA000122759E00C0E0C2A0780112131778B0E8
:1019EA00121317E95403F53778551213178936D2AB
:1019FA00A085363B85373C753D00753E00753FFB3B
:101A0A0075400F754100754200120476753FFF75E7
:101A1A004003754100754200120503753FE87540A1
:101A2A0003754100754200120503853C37853B3634
:101A3A00E536B400028061C2A0780112131778B0AB
:101A4A00121317E95403F53778551213178936D24A
:101A5A00A085363B85373C753D00753E00753FFBDA
:101A6A0075400F754100754200120476753FFF7587
:101A7A004003754100754200120503753FE8754041
:101A8A0003754100754200120503853C37853B36D4
:101A9A00E536B400A2021B87C2A078011213177898
:101AAA00A0121317E95403F537785512131789361C
:101ABA00D2A085363B85373C753D00753E00753FA3
:101ACA00FB75400F754100754200120476753FFFA1
:101ADA00754003754100754200120503753FE875AC
:101AEA004003754100754200120503853C37853B6A
:101AFA0036E536B400028061C2A078011213177865
:101B0A00A0121317E95403F53778551213178936BB
:101B1A00D2A085363B85373C753D00753E00753F42
:101B2A00FB75400F754100754200120476753FFF40
:101B3A00754003754100754200120503753FE8754B
:101B4A004003754100754200120503853C37853B09
:101B5A0036E536B400A2021B63E4C0E07401141235
:101B6A0002DFD0E0C083C082C0E090022D1202D40E
:101B7A00D0E0D082D083E552755201803D7552057E
:101B8A00C0E07401141202E1D0E0C083C082C0E058
:101B9A0090020B1202D4D0E0D082D083C0E074014C
:101BAA00141202DFD0E0C083C082C0E090021C128F
:101BBA0002D4D0E0D082D0838000D0E03275817F19
:101BCA001219D212193E12195A1219797552007540
:101BDA00E60075E700758E11D2AF1213121202A831
:0C1BEA000205791216AE0216BA021BEDBD
:00000001FF
