:03000000021EB429
:0100030032CA
:03000B00021E3C96
:0100130032BA
:01001B0032B2
:0100230032AA
:03002B00021E7939
:01003B003292
:10003C0020202020202020202050726568656174CB
:10004C0000202020202020202020536F616B2020B6
:10005C00200020202020202020202052616D703292
:10006C00706B002020202020202020205265666C00
:10007C006F772000202020202020202020436F6F2D
:10008C006C696E6700730057656C636F6D6521203A
:10009C00202020202020200053656C656374206F85
:1000AC007074696F6E202020005072657365742027
:1000BC0050726F66696C652000437573746F6D20A8
:1000CC0050726F66696C652000536F616B205465CC
:1000DC006D702020202020202000536F616B205455
:1000EC00696D6520202020202020005265666C6FF1
:1000FC00772054696D652020202020005265666CA5
:10010C006F772054656D70202020202000534143D0
:10011C0033303520736F6C64657220200050622D73
:10012C00736F6C64657220706173746500536868DA
:10013C006821204E6F2070697A7A61202000616CF2
:10014C006C6F77656420696E20686572652E00702F
:10015C00726F66696C65206C6F6164656420200049
:10016C0053797374656D2052656164792020202069
:10017C0000507265737320537461727420202020B8
:10018C0020007878202020202020202020202020D3
:10019C002020002020202020202020202020202073
:1001AC0020202000415420505245534554204D45A9
:1001BC004E55202000415420435553544F4D204D53
:1001CC00454E5520200041726520796F752073755E
:1001DC0072653F202020004572726F722C20707265
:1001EC006F66696C657320006E6F74206C6F616450
:1001FC0065642020202020200050726F636573738B
:10020C002061626F72746564200057616974207498
:10021C006F20636F6F6C202020200049535220699F
:10022C00732072756E6E696E672020005265666C65
:10023C006F772041626F727465642120003F005318
:10024C00746174652030005374617465203100C092
:10025C00F9A4B0999282F880907563027566067560
:10026C006464756500D28C22C28C75630075640061
:10027C0022E563B400028042B4010AD5643C756384
:10028C0000C28C8035B4022DE5666029E565B400AA
:10029C001A8000D56424756464756501C28C1215CE
:1002AC00B81215B81215B81566800F7565001205D1
:0B02BC00E5D28C8005C28C7563002227
:1002C700C00078B10000D8FCD00022C000C001797E
:1002D7002D78A6D8FED9FADAF6D001D00022D2932B
:1002E7001202C7C29322A2E792B6A2E692B4A2E58F
:1002F70092B3A2E492B21202E51202C7A2E392B647
:10030700A2E292B4A2E192B3A2E092B21202E52273
:10031700D2910202EDC2910202EDC293C2927433EE
:1003270012031C743312031C743212031C74281238
:10033700031C740C12031C740112031CC0027A0202
:100347001202D2D00222E4936006120317A380F6AA
:10035700224440448002031CC0E0E8C4540F4430E8
:0E036700120317E8540F4430120317D0E0229F
:10037500C0E0C0D0C000C001C002E4F546F547F5B5
:1003850048F549F54A7A20E541A2E77904783EE641
:1003950033F608D9FA79057846E636D4F608D9F958
:1003A500DAE5D002D001D000D0D0D0E022C0E0C044
:1003B500D0C000C001C002E4F546F547F548F5494F
:1003C500F54A7A20E541A2E77904783EE633F60856
:1003D500D9FA79057846C0D0E6243320E70224D03F
:1003E50020E30224FDD0D033F608D9EADAD6D002CC
:1003F500D001D000D0D0D0E022C0E0C0D0C000C035
:1004050001C0027A207905C3784AE613C0D030E7E7
:100415000224D030E30224FDF618D0D0D9EC7904BB
:100425007841E613F618D9FADADBD002D001D0000C
:10043500D0D0D0E022C0E0C0D0E53E2542F53EE573
:100445003F3543F53FE5403544F540E5413545F554
:1004550041D0D0D0E022C0E0C0D0C3E53E9542F502
:100465003EE53F9543F53FE5409544F540E541952B
:1004750045F541D0D0D0E022C0E0C0D0C3E53E95DF
:1004850042E53F9543E5409544E54195459200D0C9
:10049500D0D0E022C0E0C0D0C3E542953EE543950B
:1004A5003FE5449540E54595419200D0D0D0E02206
:1004B500C0E0C0D0C200C3E542953E7014E5439547
:1004C5003F700EE54495407008E54595417002D2B0
:1004D50000D0D0D0E0221204B520000302049922F6
:1004E5001204B520000302047D22C0E0C0F0C0D094
:1004F500C000C001C002C003E53E8542F0A4F8A9D2
:10050500F0E53F8542F0A429F9E435F0FAE53E85AA
:1005150043F0A429F9E5F03AFAE433FBE5408542D6
:10052500F0A42AFAE5F03BFBE53F8543F0A42AFA5F
:10053500E5F03BFBE53E8544F0A42AFAE5F03BFBFC
:10054500E5418542F0A42BFBE5408543F0A42BFB58
:10055500E53F8544F0A42BFBE53E8545F0A42BFB48
:100565008B418A40893F883ED003D002D001D0001C
:10057500D0D0D0F0D0E022C0E0C0D0C000C001C0D3
:1005850002C003C0047C20E4F8F9FAFBC3E53E335E
:10059500F53EE53F33F53FE54033F540E54133F5BD
:1005A50041E833F8E933F9EA33FAEB33FBC3E8956D
:1005B50042E99543EA9544EB95454013E89542F8A1
:1005C500E99543F9EA9544FAEB9545FB433E01DC91
:1005D500BBD004D003D002D001D000D0D0D0E022CF
:1005E5007A2D79FA78A6D8FED9FADAF62275F0646A
:1005F50084F9E5F075F00A84C445F0F822754B00DE
:10060500754D00754F007551008000C0E0740114F0
:1006150012035AD0E0C083C082C0E0900093120359
:100625004DD0E0D082D083C0E0740114120358D0BD
:10063500E0C083C082C0E09000A412034DD0E0D09A
:1006450082D08320A412C0027A321202D2D00220B4
:10065500A40630A4FD020A2620A612C0027A321290
:1006650002D2D00220A60630A6FD020A2620A51237
:10067500C0027A321202D2D00220A50630A5FD02B0
:100685000A26C2A0780112159F78F012159FE95429
:1006950003F539785512159F8938D2A085383E85DE
:1006A500393F7540007541007542FB75430F754430
:1006B500007545001204EF7542FF7543037544004C
:1006C50075450012057C7542E87543037544007550
:1006D500450012057C853F39853E38E538B4000272
:1006E5008061C2A0780112159F78F012159FE95418
:1006F50003F539785512159F8938D2A085383E857E
:10070500393F7540007541007542FB75430F7544CF
:10071500007545001204EF7542FF754303754400EB
:1007250075450012057C7542E875430375440075EF
:10073500450012057C853F39853E38E538B400A271
:10074500020A26020610C0E074011412035AD0E012
:10075500C083C082C0E090016C12034DD0E0D0820E
:10076500D083C0E0740114120358D0E0C083C08266
:10077500C0E090017D12034DD0E0D082D083C2A0AD
:10078500780112159F78F012159FE95403F5397811
:100795005512159F8938D2A085383E85393F754059
:1007A500007541007542FB75430F754400754500A2
:1007B5001204EF7542FF7543037544007545001239
:1007C500057C7542E87543037544007545001205BF
:1007D5007C853F39853E38E538B400028061C2A08A
:1007E500780112159F78F012159FE95403F53978B1
:1007F5005512159F8938D2A085383E85393F7540F9
:10080500007541007542FB75430F75440075450041
:100815001204EF7542FF75430375440075450012D8
:10082500057C7542E875430375440075450012055E
:100835007C853F39853E38E538B400A2020A26207A
:10084500A412C0027A321202D2D00220A40630A429
:10085500FD02091DC2A0780112159F78A012159FEF
:10086500E95403F539785512159F8938D2A0853892
:100875003E85393F7540007541007542FB75430F54
:100885007544007545001204EF7542FF7543037505
:10089500440075450012057C7542E87543037544AF
:1008A5000075450012057C853F39853E38E538B42D
:1008B50000028061C2A0780112159F78A012159FD1
:1008C500E95403F539785512159F8938D2A0853832
:1008D5003E85393F7540007541007542FB75430FF4
:1008E5007544007545001204EF7542FF75430375A5
:1008F500440075450012057C7542E875430375444F
:100905000075450012057C853F39853E38E538B4CC
:1009150000A202091D02074BE54BB400028015E554
:100925004DB40002800EE54FB400028007E551B4D6
:1009350000408000C0E074011412035AD0E0C08367
:10094500C082C0E09001E312034DD0E0D082D08395
:10095500C0E0740114120358D0E0C083C082C0E027
:100965009001F412034DD0E0D082D083755500027A
:100975000610C0E0740114120358D0E0C083C08291
:10098500C0E090019F12034DD0E0D082D083753C2A
:10099500007401F55575630175643CD28C753E0193
:1009A500753F0075400075410012037512178D756E
:1009B5003E01753F00754000754100120375121721
:1009C5008D854B3E753F00754000754100120375DE
:1009D50012178D854D3E753F00754000754100121B
:1009E500037512178D854F3E753F007540007541A3
:1009F5000012037512178D85513E753F0075400035
:100A050075410012037512178D753E00753F00750F
:100A1500400075410012037512178D121D71021EDB
:100A2500ECC0E074011412035AD0E0C083C082C048
:100A3500E09000B512034DD0E0D082D083C0E074C1
:100A45000114120358D0E0C083C082C0E09000C5F5
:100A550012034DD0E0D082D08320A612C0027A3294
:100A65001202D2D00220A60630A6FD020A8A20A5CF
:100A750012C0027A321202D2D00220A50630A5FD9C
:100A8500020BCC809CC0E074011412035AD0E0C064
:100A950083C082C0E09001B012034DD0E0D082D077
:100AA50083C0E0740114120358D0E0C083C082C033
:100AB500E090019F12034DD0E0D082D083C0E07456
:100AC500101412035AD0E0C083C082C0E0900249DE
:100AD50012034DD0E0D082D08320A512C0027A3215
:100AE5001202D2D00220A50630A5FD020BCC20A40F
:100AF50012C0027A321202D2D00220A40630A4FD1E
:100B0500020D0EC2A0780112159F78F012159FE90B
:100B15005403F539785512159F8938D2A085383E8A
:100B250085393F7540007541007542FB75430F756A
:100B350044007545001204EF7542FF754303754483
:100B45000075450012057C7542E875430375440040
:100B550075450012057C853F39853E38E538B4007A
:100B6500028061C2A0780112159F78F012159FE9E5
:100B75005403F539785512159F8938D2A085383E2A
:100B850085393F7540007541007542FB75430F750A
:100B950044007545001204EF7542FF754303754423
:100BA5000075450012057C7542E8754303754400E0
:100BB50075450012057C853F39853E38E538B4001A
:100BC500A2020A26020A8AC0E074011412035AD04E
:100BD500E0C083C082C0E09001C112034DD0E0D0D7
:100BE50082D083C0E0740114120358D0E0C083C0E2
:100BF50082C0E090019F12034DD0E0D082D083C027
:100C0500E074101412035AD0E0C083C082C0E09093
:100C1500024912034DD0E0D082D08320A612C00233
:100C25007A321202D2D00220A60630A6FD020A8A26
:100C350020A412C0027A321202D2D00220A40630B9
:100C4500A4FD021159C2A0780112159F78F0121562
:100C55009FE95403F539785512159F8938D2A08537
:100C6500383E85393F7540007541007542FB754337
:100C75000F7544007545001204EF7542FF75430377
:100C850075440075450012057C7542E8754303758A
:100C9500440075450012057C853F39853E38E538A9
:100CA500B400028061C2A0780112159F78F0121578
:100CB5009FE95403F539785512159F8938D2A085D7
:100CC500383E85393F7540007541007542FB7543D7
:100CD5000F7544007545001204EF7542FF75430317
:100CE50075440075450012057C7542E8754303752A
:100CF500440075450012057C853F39853E38E53849
:100D0500B400A2020A26020BCCC0E074011412033F
:100D15005AD0E0C083C082C0E090011912034DD0C3
:100D2500E0D082D083C0E0740114120358D0E0C033
:100D350083C082C0E090012912034DD0E0D082D05B
:100D45008320A612C0027A321202D2D00220A60651
:100D550030A6FD020E3420A512C0027A321202D24C
:100D6500D00220A50630A5FD020F5AC2A0780112B7
:100D7500159F78F012159FE95403F539785512152A
:100D85009F8938D2A085383E85393F754000754129
:100D9500007542FB75430F7544007545001204EF5D
:100DA5007542FF75430375440075450012057C7552
:100DB50042E875430375440075450012057C853F7F
:100DC50039853E38E538B400028061C2A078011249
:100DD500159F78F012159FE95403F53978551215CA
:100DE5009F8938D2A085383E85393F7540007541C9
:100DF500007542FB75430F7544007545001204EFFD
:100E05007542FF75430375440075450012057C75F1
:100E150042E875430375440075450012057C853F1E
:100E250039853E38E538B400A2020A26020D0E20A7
:100E3500A512C0027A321202D2D00220A50630A530
:100E4500FD020F5A20A412C0027A321202D2D00239
:100E550020A40630A4FD0210C7C2A0780112159F78
:100E650078F012159FE95403F539785512159F89C5
:100E750038D2A085383E85393F75400075410075EB
:100E850042FB75430F7544007545001204EF75422A
:100E9500FF75430375440075450012057C7542E8EE
:100EA50075430375440075450012057C853F3985FA
:100EB5003E38E538B400028061C2A0780112159F62
:100EC50078F012159FE95403F539785512159F8965
:100ED50038D2A085383E85393F754000754100758B
:100EE50042FB75430F7544007545001204EF7542CA
:100EF500FF75430375440075450012057C7542E88E
:100F050075430375440075450012057C853F398599
:100F15003E38E538B400A2020A26C0E07410141267
:100F2500035AD0E0C083C082C0E090024912034D4D
:100F3500D0E0D082D083C0E0741014120358D0E002
:100F4500C083C082C0E090019F12034DD0E0D082E3
:100F5500D083020E3420A612C0027A321202D2D0F9
:100F65000220A60630A6FD020E3420A412C0027A85
:100F7500321202D2D00220A40630A4FD021080C293
:100F8500A0780112159F78F012159FE95403F539E1
:100F9500785512159F8938D2A085383E85393F7519
:100FA50040007541007542FB75430F75440075455A
:100FB500001204EF7542FF75430375440075450043
:100FC50012057C7542E875430375440075450012AA
:100FD500057C853F39853E38E538B400028061C21D
:100FE500A0780112159F78F012159FE95403F53981
:100FF500785512159F8938D2A085383E85393F75B9
:1010050040007541007542FB75430F7544007545F9
:10101500001204EF7542FF754303754400754500E2
:1010250012057C7542E87543037544007545001249
:10103500057C853F39853E38E538B400A2020A268D
:10104500C0E0741014120358D0E0C083C082C0E021
:1010550090024912034DD0E0D082D083C0E07410D5
:101065001412035AD0E0C083C082C0E090019F12E1
:10107500034DD0E0D082D083020F5AC0E074011432
:1010850012035AD0E0C083C082C0E0900129120348
:101095004DD0E0D082D083C0E0740114120358D043
:1010A500E0C083C082C0E090015B12034DD0E0D068
:1010B50082D083754B78754D96754F147551E60240
:1010C500074BC0E074011412035AD0E0C083C082FC
:1010D500C0E090011912034DD0E0D082D083C0E06A
:1010E500740114120358D0E0C083C082C0E090019F
:1010F5005B12034DD0E0D082D083754B78754DA03F
:10110500754F0F7551F502074BC0E07401141203BA
:101115005AD0E0C083C082C0E090013912034DD09F
:10112500E0D082D083C0E0740114120358D0E0C02F
:1011350083C082C0E090014A12034DD0E0D082D036
:1011450083741EF54B74C8F54D7414F54F74F5F59D
:101155005102074BC0E074011412035AD0E0C0835A
:10116500C082C0E09000C512034DD0E0D082D0838C
:10117500C0E0740114120358D0E0C083C082C0E0FF
:1011850090019F12034DD0E0D082D08320A412C0DD
:10119500027A321202D2D00220A40630A4FD021235
:1011A5006F8000C2A0780112159F78F012159FE993
:1011B5005403F539785512159F8938D2A085383EE4
:1011C50085393F7540007541007542FB75430F75C4
:1011D50044007545001204EF7542FF7543037544DD
:1011E5000075450012057C7542E87543037544009A
:1011F50075450012057C853F39853E38E538B400D4
:10120500028061C2A0780112159F78F012159FE93E
:101215005403F539785512159F8938D2A085383E83
:1012250085393F7540007541007542FB75430F7563
:1012350044007545001204EF7542FF75430375447C
:101245000075450012057C7542E875430375440039
:1012550075450012057C853F39853E38E538B40073
:10126500A202126C021159020A26C0E0740114127E
:10127500035AD0E0C083C082C0E09000D512034D70
:10128500D0E0D082D083E54D75F06484F9E5F07542
:10129500F00A84C445F0F8895EC0E07401141203B5
:1012A50058D0E0C000A85E12035FD000885EC0E0A1
:1012B500740314120358D0E0C000A85E12035FD077
:1012C5000020A626C0027A321202D2D00220A61A27
:1012D50030A6FDE54D2464240A2401B4FF06E4F597
:1012E5004D02126FF54DE402126F20A522C0027A5D
:1012F500321202D2D00220A51630A5FDE54D24FFFD
:10130500B40006E4F54D02126FF54DE402126F309C
:10131500A40302126F30A4FDC0E074011412035A35
:10132500D0E0C083C082C0E09000E612034DD0E05B
:10133500D082D083E54B75F06484F9E5F075F00A49
:1013450084C445F0F8895EC0E0740114120358D0D6
:10135500E0C000A85E12035FD000885EC0E07403A1
:1013650014120358D0E0C000A85E12035FD000201D
:10137500A622C0027A321202D2D00220A61630A6C8
:10138500FDE54B2401B4FF06E4F54B02131AF54BBA
:10139500E402131A20A522C0027A321202D2D00228
:1013A50020A51630A5FDE54B24FFB40006E4F54B5A
:1013B50002131AF54BE402131A30A40302131A3070
:1013C500A4FDC0E074011412035AD0E0C083C082AA
:1013D500C0E090010812034DD0E0D082D083E551E2
:1013E50075F06484F9E5F075F00A84C445F0F88970
:1013F5005EC0E0740114120358D0E0C000A85E126C
:10140500035FD000885EC0E0740314120358D0E077
:10141500C000A85E12035FD00020A622C0027A3267
:101425001202D2D00220A61630A6FDE5512401B441
:10143500FF06E4F5510213C4F551E40213C420A5D7
:1014450022C0027A321202D2D00220A51630A5FDA2
:10145500E55124FFB40006E4F5510213C4F551E447
:101465000213C430A4030213C430A4FDC0E0740108
:101475001412035AD0E0C083C082C0E09000F71276
:10148500034DD0E0D082D083E54F75F06484F9E553
:10149500F075F00A84C445F0F8895EC0E074011463
:1014A500120358D0E0C000A85E12035FD000885E2A
:1014B500C0E0740314120358D0E0C000A85E120304
:1014C5005FD00020A622C0027A321202D2D00220BA
:1014D500A61630A6FDE54F2401B4FF06E4F54F023C
:1014E500146EF54FE402146E20A522C0027A321262
:1014F50002D2D00220A51630A5FDE54F24FFB40089
:1015050006E4F54F02146EF54FE402146E30A403A1
:1015150002146EC0E074011412035AD0E0C083C0F7
:1015250082C0E09001D212034DD0E0D082D083C0BA
:10153500E0740114120358D0E0C083C082C0E0906B
:10154500019F12034DD0E0D082D08330A403021551
:101555001802074BC0E0E8C4540F4430121587E861
:10156500540F4430121587D0E02279DE78A6D8FED4
:10157500D9FA438780759852759B00759AF4759BC7
:101585001E223099FDC299F59922E4936006121541
:1015950087A380F622D2A2C2A322C0E079007A08EE
:1015A500E833F892A1D2A3A2A2E933F9C2A3DAF0F3
:1015B500D0E02279DE78A6D8FED9FA22C0E07407F9
:1015C50014120358D0E0C000A84A12035FD000C02F
:1015D50000A84912035FD000C000A84812035FD0DD
:1015E50000C000A84712035FD000C000A846120340
:1015F5005FD000C0E0740714120358D0E0E54A54E8
:10160500F0C460030216A6C0E07420120317D0E0F0
:10161500E54A540F60030216A6C0E07420120317B2
:10162500D0E0E54954F0C460030216A6C0E074207A
:10163500120317D0E0E549540F60030216A6C0E077
:101645007420120317D0E0E54854F0C46003021675
:10165500A6C0E07420120317D0E0E548540F6003DC
:101665000216A6C0E07420120317D0E0E54754F037
:10167500C460030216A6C0E07420120317D0E0E58B
:1016850047540F60030216A6C0E07420120317D05A
:10169500E0E54654F0C47009C0E07420120317D089
:1016A500E022C0E074071412035AD0E0C000A84A33
:1016B50012035FD000C000A84912035FD000C0002C
:1016C500A84812035FD000C000A84712035FD000EE
:1016D500C000A84612035FD000C0E07407141203CF
:1016E5005AD0E0E54A54F0C4600302178CC0E07498
:1016F50020120317D0E0E54A540F600302178CC08F
:10170500E07420120317D0E0E54954F0C4600302E9
:10171500178CC0E07420120317D0E0E549540F6020
:101725000302178CC0E07420120317D0E0E548547B
:10173500F0C4600302178CC0E07420120317D0E0D8
:10174500E548540F600302178CC0E074201203179C
:10175500D0E0E54754F0C4600302178CC0E0742064
:10176500120317D0E0E547540F600302178CC0E061
:101775007420120317D0E0E54654F0C47009C0E0A8
:101785007420120317D0E022C000A84A121559D0C0
:1017950000C000A849121559D000C000A84812156C
:1017A50059D000C000A847121559D000C000A8465E
:1017B500121559D000740D121587740A1215872257
:1017C500C2A0780112159F788012159FE95403F580
:1017D50033785512159F8932D2A085323E85333F25
:1017E5007540007541007542FD75430F75440075E0
:1017F50045001204EF7542FF7543037544007545B6
:101805000012057C75420A75430075440075450054
:1018150012057C754211754301754400754500122A
:10182500045B853E32853F3322C2A0780112159FA5
:10183500789012159FE95403F539785512159F894B
:1018450038D2A085383E85393F7540007541007511
:1018550042FD75430F7544007545001204EF75424E
:10186500FF75430375440075450012057C853E38B8
:10187500853F3985383E85393F754000754100758E
:1018850042877543097544007545001204EF75429A
:10189500CD75430075440075450012057C7542649D
:1018A50075430075440075450012057C85324285F7
:1018B500334375440075450012043A853E36853F2D
:1018C500372285343E85353F75400075410012034A
:1018D5007585463A85473B22300217C2021217C565
:1018E50012182E1218F81218C71215C1121D51120E
:1018F500178D22C0E0C385683E85693F7540007538
:10190500410085364285374375440075450012040C
:101915003A853E68853F691567E567701E756705F9
:1019250075420575430075440075450012057C85B3
:0E1935003E34853F35756800756900D0E022AC
:10194300C2A0780112159F78B012159FE95403F5D0
:1019530039785512159F8938D2A085383E85393F8D
:101963007540007541007542FB75430F7544007562
:1019730045001204EF7542FF754303754400754536
:101983000012057C7542E8754303754400754500F4
:1019930012057C853F39853E38E538B40002801F47
:1019A300C0E074011412035AD0E0C083C082C0E0C7
:1019B30090023812034DD0E0D082D083755505E5EF
:1019C30055B40041C0E074011412035AD0E0C0833F
:1019D300C082C0E090024B12034DD0E0D082D0838E
:1019E300C0E0740114120358D0E0C083C082C0E089
:1019F30090019F12034DD0E0D082D08375F5000291
:101A03000602021EECB401028003021AC475F5FF3C
:101A1300C0E074011412035AD0E0C083C082C0E056
:101A230090003C12034DD0E0D082D083C0E0740517
:101A330014120358D0E0C083C082C0E0900091121A
:101A4300034DD0E0D082D083E53C1205F2E9C0E03B
:101A5300740114120358D0E0C000F812035FD000E1
:101A6300E8C0E0740314120358D0E0C000F8120376
:101A73005FD000E53CB43C2E7432C39534500280F1
:101A830025755500C0E074011412035AD0E0C083D9
:101A9300C082C0E090023812034DD0E0D082D083E0
:101AA3001215B8021EEC755800E54DC39534500E5F
:101AB300753C0075550275630175643CD28C021E3A
:101AC300ECB402028003021B4A75F533C0E07401D3
:101AD3001412035AD0E0C083C082C0E090004D12BC
:101AE300034DD0E0D082D083C0E0740514120358B4
:101AF300D0E0C083C082C0E090009112034DD0E0DB
:101B0300D082D083E53C1205F2E9C0E074011412DF
:101B13000358D0E0C000F812035FD000E8C0E074BF
:101B23000314120358D0E0C000F812035FD000E59D
:101B33004BC3953C500E755503756301756428D2EC
:101B43008C753C00021EECB403028003021BD075AB
:101B5300F5FFC0E074011412035AD0E0C083C082C1
:101B6300C0E090005E12034DD0E0D082D083C0E08D
:101B7300740514120358D0E0C083C082C0E0900003
:101B83009112034DD0E0D082D083E53C1205F2E9F7
:101B9300C0E0740114120358D0E0C000F812035FD0
:101BA300D000E8C0E0740314120358D0E0C000F87A
:101BB30012035FD000E551C39534500E753C007598
:101BC3005504756301756428D28C021EECB40402BB
:101BD3008003021C5A75F533C0E074011412035AD2
:101BE300D0E0C083C082C0E090006F12034DD0E00C
:101BF300D082D083C0E0740514120358D0E0C083B0
:101C0300C082C0E090009112034DD0E0D082D08317
:101C1300E53C1205F2E9C0E0740114120358D0E068
:101C2300C000F812035FD000E8C0E074031412038D
:101C330058D0E0C000F812035FD000E54FC3D203D1
:101C4300953C5010C2037555057563017564C8D280
:101C53008C753C00021EECB405028003021CDE7589
:101C6300F500C0E074011412035AD0E0C083C082AF
:101C7300C0E090008012034DD0E0D082D083C0E05A
:101C8300740514120358D0E0C083C082C0E09000F2
:101C93009112034DD0E0D082D083E53C1205F2E9E6
:101CA300C0E0740114120358D0E0C000F812035FBF
:101CB300D000E8C0E0740314120358D0E0C000F869
:101CC30012035FD000E534C39559500C753C007581
:101CD3005506120265121D6B021EECE563B400F893
:101CE300755500021EECA2E09283A2E19285A2E266
:101CF3009287A2E392C4A2E492C5A2E59284A2E6EB
:101D03009286A2E792A722D281D280D282E55DB4E5
:101D1300000BE55A121CE9C281055D8020B4010B5A
:101D2300E55B121CE9C280055D8012B4020CE55C20
:101D3300121CE9C282755D008003755D0022740088
:101D4300F55D7411F53A7401F53B121D51229002B1
:101D53005BE53A540F93F55AE53AC4540F93F55B98
:101D6300E53B540F93F55C22755F00D20422C20455
:101D730022E55FB4000F755AF0755BFE755CC6759E
:101D83005F01021E24B4010F755AF0755BF6755C92
:101D9300CE755F02021E24B4020F755AF0755BF60E
:101DA300755CD6755F03021E24B4030F755AF07574
:101DB3005BF6755CE6755F04021E24B4040F755A66
:101DC300F0755BF6755CC7755F05021E24B4050FDD
:101DD300755AF0755BF7755CC6755F06021E24B411
:101DE300060F755AF1755BF6755CC6755F07021EC3
:101DF30024B4070F755AF2755BF6755CC6755F08F8
:101E0300021E24B4080F755AF4755BF6755CC6752B
:101E13005F09021E24755AF8755BF6755CC6755F1B
:101E23000022E58954F04401F589758CEA758AE846
:101E330075F4EA75F2E8D2A922B2B732E589540FF4
:101E43004410F589E59154004480F591758D007532
:101E53008B0075F50075F300D28E3275C80075CD11
:101E6300A975CC9A75CBA975CA9AE4F530F531F505
:101E73003DD2ADD2CA22C2CFC0E0C0D00530E530DA
:101E830070020531E530B46420E531B4001BD202A1
:101E9300300403121D74E4F530F531053DE53DB41E
:101EA3000A07753D00D201053C121D0AD0D0D0E0CF
:101EB3003275817F121D41121D6B121E25121E3FAA
:101EC300121E5E12027475670575680075690075E8
:101ED300550075593C75E60075E700758E11D2AF54
:101EE30012156F12159A1203211218DD12027D02C8
:041EF300194380F51A
:00000001FF
