:03000000021400E7
:0100030032CA
:03000B00021319C4
:0100130032BA
:01001B0032B2
:0100230032AA
:03002B0002133588
:03003B0002138429
:10003E00C0E0C0D0C000C001C002E4F53FF540F5FD
:10004E0041F542F5437A20E53AA2E779047837E69E
:10005E0033F608D9FA7905783FE636D4F608D9F999
:10006E00DAE5D002D001D000D0D0D0E022C0E0C07E
:10007E00D0C000C001C002E4F53FF540F541F542A5
:10008E00F5437A20E53AA2E779047837E633F608A5
:10009E00D9FA7905783FC0D0E6243320E70224D080
:1000AE0020E30224FDD0D033F608D9EADAD6D00206
:1000BE00D001D000D0D0D0E022C0E0C0D0C000C06F
:1000CE0001C0027A207905C37843E613C0D030E729
:1000DE000224D030E30224FDF618D0D0D9EC7904F6
:1000EE00783AE613F618D9FADADBD002D001D0004E
:1000FE00D0D0D0E022C0E0C0D0E537253BF537E5C3
:10010E0038353CF538E539353DF539E53A353EF5C6
:10011E003AD0D0D0E022C0E0C0D0C3E537953BF551
:10012E0037E538953CF538E539953DF539E53A959D
:10013E003EF53AD0D0D0E022C0E0C0D0C3E537952E
:10014E003BE538953CE539953DE53A953E9200D034
:10015E00D0D0E022C0E0C0D0C3E53B9537E53C955A
:10016E0038E53D9539E53E953A9200D0D0D0E02263
:10017E00C0E0C0D0C200C3E53B95377014E53C9596
:10018E0038700EE53D95397008E53E953A7002D20D
:10019E0000D0D0D0E02212017E20000302016222A4
:1001AE0012017E20000302014622C0E0C0F0C0D042
:1001BE00C000C001C002C003E537853BF0A4F8A91A
:1001CE00F0E538853BF0A429F9E435F0FAE53785FA
:1001DE003CF0A429F9E5F03AFAE433FBE539853B26
:1001EE00F0A42AFAE5F03BFBE538853CF0A42AFAA8
:1001FE00E5F03BFBE537853DF0A42AFAE5F03BFB45
:10020E00E53A853BF0A42BFBE539853CF0A42BFBAE
:10021E00E538853DF0A42BFBE537853EF0A42BFB9E
:10022E008B3A8A3989388837D003D002D001D00072
:10023E00D0D0D0F0D0E022C0E0C0D0C000C001C00D
:10024E0002C003C0047C20E4F8F9FAFBC3E537339F
:10025E00F537E53833F538E53933F539E53A33F521
:10026E003AE833F8E933F9EA33FAEB33FBC3E895AE
:10027E003BE9953CEA953DEB953E4013E8953BF8FE
:10028E00E9953CF9EA953DFAEB953EFB433701DCE7
:10029E00BBD004D003D002D001D000D0D0D0E02209
:1002AE005072656865617400536F616B2020200089
:1002BE0052616D7032706B005265666C6F77200004
:1002CE00436F6F6C696E6700730057656C636F6D7B
:1002DE00652120202020202020200053656C65639E
:1002EE0074206F7074696F6E2020200050726573D9
:1002FE0065742050726F66696C65202000437573BB
:10030E00746F6D2050726F66696C65202000536F9C
:10031E00616B2054656D702020202020202000531A
:10032E006F616B2054696D652020202020202000F5
:10033E005265666C6F772054696D652020202020F1
:10034E00005265666C6F772054656D7020202020FA
:10035E00200053414333303520736F6C6465722037
:10036E0020200050622D736F6C6465722070617373
:10037E00746520005368686821204E6F2070697A7A
:10038E007A61202000616C6C6F77656420696E2045
:10039E00686572652E0070726F66696C65206C6F91
:1003AE006164656420200053797374656D20526515
:1003BE00616479202020200050726573732053747D
:1003CE0061727420202020200078782020202020A8
:1003DE00202020202020202020002020202020202F
:1003EE002020202020202020202000415420505268
:1003FE0045534554204D454E552020004154204331
:10040E005553544F4D204D454E5520200041726599
:10041E0020796F7520737572653F2020200045721C
:10042E00726F722C2070726F66696C657320006E2D
:10043E006F74206C6F616465642020202020200082
:10044E0050726F636573732061626F72746564209E
:10045E00005761697420746F20636F6F6C202020C9
:02046E0020006C
:10047000C00078B10000D8FCD00022C000C00179D3
:100480002D78A6D8FED9FADAF6D001D00022D29380
:10049000120470C29322A2E792B5A2E692B4A2E53A
:1004A00092B3A2E492B212048E120470A2E392B547
:1004B000A2E292B4A2E192B3A2E092B212048E221E
:1004C000D291020496C291020496C293C2927433EE
:1004D0001204C574331204C574321204C574281290
:1004E00004C5740C1204C574011204C5C0027A025A
:1004F00012047BD00222E49360061204C0A380F6AB
:1005000022444044800204C5C0E0E8C4540F443093
:0E0510001204C0E8540F44301204C0D0E022A0
:10051E007A2D79FA78A6D8FED9FADAF62275817F85
:10052E0075E60075E7001204CA754400754600753D
:10053E004800754A00C0E0740414120501D0E0743E
:10054E00DF120CF8020555C0E0740114120503D039
:10055E00E0C083C082C0E09002D81204F6D0E0D092
:10056E0082D083C0E0740114120501D0E0C083C0B4
:10057E0082C0E09002E91204F6D0E0D082D083204F
:10058E008212C0027A3212047BD00220820630829E
:10059E00FD02070E208312C0027A3212047BD002B3
:1005AE002083063083FD02070E208012C0027A32AD
:1005BE0012047BD0022080063080FD02070E2081BF
:1005CE0012C0027A3212047BD0022081063081FDE5
:1005DE0002070E020555C0E0740114120503D0E0A7
:1005EE00C083C082C0E09003B51204F6D0E0D08282
:1005FE00D083C0E0740114120501D0E0C083C08224
:10060E00C0E09003C61204F6D0E0D082D0832084DE
:10061E0012C0027A3212047BD0022084063084FD8E
:10062E0002070E208012C0027A3212047BD0022002
:10063E0080063080FD02070E208112C0027A32122F
:10064E00047BD0022081063081FD02070E2082122B
:10065E00C0027A3212047BD0022082063082FD0262
:10066E00070E209012C0027A3212047BD002209024
:10067E00063090FD0206880205E4E544B4000280CF
:10068E0015E546B40002800EE548B400028007E589
:10069E004AB400408000C0E0740114120503D0E09B
:1006AE00C083C082C0E090042C1204F6D0E0D08249
:1006BE00D083C0E0740114120501D0E0C083C08263
:1006CE00C0E090043D1204F6D0E0D082D083754E87
:1006DE0000020555208412C0027A3212047BD00229
:1006EE002084063084FD02070E209012C0027A325A
:1006FE0012047BD0022090063090FD02107C80D434
:10070E00C0E0740114120503D0E0C083C082C0E0C3
:10071E009002FA1204F6D0E0D082D083C0E07401C9
:10072E0014120501D0E0C083C082C0E090030B120A
:10073E0004F6D0E0D082D083208012C0027A32122A
:10074E00047BD0022080063080FD020772208112C9
:10075E00C0027A3212047BD0022081063081FD0263
:10076E0007EB809CC0E0740114120503D0E0C08337
:10077E00C082C0E09003F91204F6D0E0D082D0839C
:10078E00C0E0740114120501D0E0C083C082C0E045
:10079E009003E81204F6D0E0D082D083208112C0FC
:1007AE00027A3212047BD0022081063081FD0207CC
:1007BE00EB208212C0027A3212047BD00220820613
:1007CE003082FD020864208412C0027A3212047B49
:1007DE00D0022084063084FD02070E8087C0E074AC
:1007EE000114120503D0E0C083C082C0E090040A59
:1007FE001204F6D0E0D082D083C0E074011412054A
:10080E0001D0E0C083C082C0E09003E81204F6D0AD
:10081E00E0D082D083208012C0027A3212047BD0C4
:10082E00022080063080FD020772208212C0027AFA
:10083E003212047BD0022082063082FD020A3B2057
:10084E008412C0027A3212047BD0022084063084D5
:10085E00FD02070E8087C0E0740114120503D0E07C
:10086E00C083C082C0E09003601204F6D0E0D08254
:10087E00D083C0E0740114120501D0E0C083C082A1
:10088E00C0E09003711204F6D0E0D082D0832080B5
:10089E0012C0027A3212047BD0022080063080FD14
:1008AE000208DE208112C0027A3212047BD00220AE
:1008BE0081063081FD02091F208412C0027A321295
:1008CE00047BD0022084063084FD02070E020864E9
:1008DE00208112C0027A3212047BD00220810630AF
:1008EE0081FD02091F208212C0027A3212047BD0CF
:1008FE00022082063082FD0209A7208412C0027AED
:10090E003212047BD0022084063084FD02070E8052
:10091E00BF208012C0027A3212047BD002208006E1
:10092E003080FD0208DE208212C0027A3212047B71
:10093E00D0022082063082FD020960208412C0029D
:10094E007A3212047BD0022084063084FD02070E18
:10095E0080BFC0E0740114120503D0E0C083C082D2
:10096E00C0E09003711204F6D0E0D082D083C0E0D4
:10097E00740114120501D0E0C083C082C0E0900360
:10098E00A41204F6D0E0D082D083754478754696D2
:10099E00754814754AE60205E4C0E07401141205A8
:1009AE0003D0E0C083C082C0E09003601204F6D092
:1009BE00E0D082D083C0E0740114120501D0E0C0F3
:1009CE0083C082C0E09003A41204F6D0E0D082D09F
:1009DE00837544787546A0740FF54874F5F54A0290
:1009EE0005E4C0E0740114120503D0E0C083C08298
:1009FE00C0E09003821204F6D0E0D082D083C0E033
:100A0E00740114120501D0E0C083C082C0E09003CF
:100A1E00931204F6D0E0D082D083741EF54474C8CD
:100A2E00F5467414F54874F5F54A0205E4C0E07411
:100A3E000114120503D0E0C083C082C0E090030B06
:100A4E001204F6D0E0D082D083C0E07401141205F7
:100A5E0001D0E0C083C082C0E09003E81204F6D05B
:100A6E00E0D082D083208212C0027A3212047BD070
:100A7E00022082063082FD020A92800030840280BB
:100A8E00AC02070EC0E0740114120503D0E0C0835F
:100A9E00C082C0E090031C1204F6D0E0D082D08356
:100AAE00C0E0740114120501D0E0C000A846120582
:100ABE0008D000208023C0027A3212047BD002209C
:100ACE0080173080FDE5462401D4B49906E4F5463E
:100ADE00020A92F546E4020A92208123C0027A327B
:100AEE0012047BD0022081173081FDE5462499D473
:100AFE00B40006E4F546020A92F546E4020A923084
:100B0E008303020A923083FDC0E0740114120503C0
:100B1E00D0E0C083C082C0E090032D1204F6D0E076
:100B2E00D082D083C0E0740114120501D0E0C00061
:100B3E00A844120508D000208023C0027A32120485
:100B4E007BD0022080173080FDE5442401D4B49977
:100B5E0006E4F544020B13F544E4020B1320812343
:100B6E00C0027A3212047BD0022081173081FDE55B
:100B7E00442499D4B40006E4F544020B13F544E47E
:100B8E00020B13308303020B133083FDC0E074019C
:100B9E0014120503D0E0C083C082C0E090034F1250
:100BAE0004F6D0E0D082D083C0E0740114120501A7
:100BBE00D0E0C000A84A120508D000208023C00251
:100BCE007A3212047BD0022080173080FDE54A2451
:100BDE0001D4B49906E4F54A020B97F54AE4020BE8
:100BEE0097208123C0027A3212047BD00220811713
:100BFE003081FDE54A2499D4B40006E4F54A020B8F
:100C0E0097F54AE4020B97308303020B973083FD6E
:100C1E00C0E0740114120503D0E0C083C082C0E0AE
:100C2E0090033E1204F6D0E0D082D083C0E074016F
:100C3E0014120501D0E0C000A848120508D000200B
:100C4E008023C0027A3212047BD0022080173080BB
:100C5E00FDE5482401D4B49906E4F548020C1BF5D1
:100C6E0048E4020C1B208123C0027A3212047BD08E
:100C7E00022081173081FDE5482499D4B40006E4A2
:100C8E00F548020C1BF548E4020C1B308303020CE2
:100C9E001BC0E0740114120503D0E0C083C082C0F3
:100CAE00E090041B1204F6D0E0D082D083C0E07432
:100CBE000114120501D0E0C083C082C0E09003E8A9
:100CCE001204F6D0E0D082D083308003020C9F0253
:020CDE000A3BCF
:100CE00079DE78A6D8FED9FA438780759852759B2D
:100CF00000759AF4759B1E223099FDC299F59922D0
:100D0000E4936006120CF8A380F622D2A6C2A722B2
:100D1000C0E079007A08E833F892A5D2A7A2A6E944
:100D200033F9C2A7DAF0D0E02248656C6C6F2C2052
:100D3000576F726C64210D0A0079DE78A6D8FED94F
:100D4000FA32C0E0740714120501D0E0C000A843D5
:100D5000120508D000C000A842120508D000C0004B
:100D6000A841120508D000C000A840120508D00014
:100D7000C000A83F120508D000C0E0740714120597
:100D800001D0E0E54354F0C46003020E27C0E074D4
:100D9000201204C0D0E0E543540F6003020E27C0C8
:100DA000E074201204C0D0E0E54254F0C4600302B5
:100DB0000E27C0E074201204C0D0E0E542540F605A
:100DC00003020E27C0E074201204C0D0E0E54154B5
:100DD000F0C46003020E27C0E074201204C0D0E00B
:100DE000E541540F6003020E27C0E074201204C0D6
:100DF000D0E0E54054F0C46003020E27C0E0742048
:100E00001204C0D0E0E540540F6003020E27C0E09A
:100E100074201204C0D0E0E53F54F0C47009C0E073
:100E200074201204C0D0E022C0E07407141205033D
:100E3000D0E0C000A843120508D000C000A84212AC
:100E40000508D000C000A841120508D000C000A8C5
:100E500040120508D000C000A83F120508D000C00D
:100E6000E0740714120503D0E0E54354F0C46003B6
:100E7000020F0DC0E074201204C0D0E0E543540F0F
:100E80006003020F0DC0E074201204C0D0E0E54200
:100E900054F0C46003020F0DC0E074201204C0D0EF
:100EA000E0E542540F6003020F0DC0E0742012040D
:100EB000C0D0E0E54154F0C46003020F0DC0E074FF
:100EC000201204C0D0E0E541540F6003020F0DC0B2
:100ED000E074201204C0D0E0E54054F0C460030286
:100EE0000F0DC0E074201204C0D0E0E540540F6044
:100EF00003020F0DC0E074201204C0D0E0E53F549F
:100F0000F0C47009C0E074201204C0D0E022C00018
:100F1000A843120F6E740D120CF8740A120CF8D05C
:100F200000C000A842120F6E740D120CF8740A1261
:100F30000CF8D000C000A841120F6E740D120CF80E
:100F4000740A120CF8D000C000A840120F6E740D85
:100F5000120CF8740A120CF8D000C000A83F120F4F
:100F60006E740D120CF8740A120CF8D00022C0E056
:100F7000E8C4540F4430120CF8E8540F4430120CFB
:100F8000F8D0E022C2A47801120D107880120D1062
:100F9000E95403F5337855120D108932D2A4853205
:100FA00037853338753900753A0022C2A4780112AA
:100FB0000D107890120D10E95403F5357855120D87
:100FC000108934D2A4853437853538753900753A9F
:100FD0000022753B00753C10753D00753E00120106
:100FE000B8753BFF753C03753D00753E0012024528
:100FF000753BAA753C0A753D00753E0012012475CB
:101000003B0A753C00753D00753E0012024512001A
:101010003E22753BF1753C0F753D00753E00120197
:10102000B8753BFF753C03753D00753E00120245E7
:10103000753BF7753C00753D00753E001201B875B3
:101040003BD0753C07753D00753E00120245753B6F
:1010500016753C00753D00753E0012010312003EFE
:10106000223001FDC201120F84120FD2120D421262
:0C1070000FAB121012120F0E120E2822ED
:10107C00E54EB40012754F0002052B2090063090FF
:10108C00FD754E0102141AB4017B754F64C0E074F7
:10109C000914120503D0E0C083C082C0E09002AEF8
:1010AC001204F6D0E0D082D083C0E074091412058B
:1010BC0001D0E0E551120CF8C0E0740C14120501DB
:1010CC00D0E0C083C082C0E09002D61204F6D0E01B
:1010DC00D082D083C0E0740114120501D0E0E55039
:1010EC00120CF8C0E0740414120501D0E074DF1285
:1010FC000CF8755100E546C39550500675510075B6
:10110C004E0202141AB40278754F14C0E07409141C
:10111C00120503D0E0C083C082C0E09002B6120476
:10112C00F6D0E0D082D083C0E0740914120501D04F
:10113C00E0E551120CF8C0E0740C14120501D0E07B
:10114C00C083C082C0E09002D61204F6D0E0D082F8
:10115C00D083C0E0740114120501D0E0E550120CEC
:10116C00F8C0E0740414120501D0E074DF120CF81E
:10117C00E544C395515006754E0375510002141A7F
:10118C00B40378754F64C0E0740914120503D0E001
:10119C00C083C082C0E09002BE1204F6D0E0D082C0
:1011AC00D083C0E0740914120501D0E0E551120C93
:1011BC00F8C0E0740C14120501D0E0C083C082C0EA
:1011CC00E09002D61204F6D0E0D082D083C0E07456
:1011DC000114120501D0E0E550120CF8C0E07404C3
:1011EC0014120501D0E074DF120CF8E54AC39550D7
:1011FC005006755100754E0402141AB40478754FDC
:10120C0014C0E0740914120503D0E0C083C082C07E
:10121C00E09002C61204F6D0E0D082D083C0E07415
:10122C000914120501D0E0E551120CF8C0E0740C61
:10123C0014120501D0E0C083C082C0E09002D61227
:10124C0004F6D0E0D082D083C0E074011412050102
:10125C00D0E0E550120CF8C0E0740414120501D073
:10126C00E074DF120CF8E548C395515006754E0535
:10127C0075510002141AB40578754F00C0E074095A
:10128C0014120503D0E0C083C082C0E09002CE12DD
:10129C0004F6D0E0D082D083C0E0740914120501AA
:1012AC00D0E0E551120CF8C0E0740C14120501D01A
:1012BC00E0C083C082C0E09002D61204F6D0E0D029
:1012CC0082D083C0E0740114120501D0E0E5501205
:1012DC000CF8C0E0740414120501D0E074DF120C99
:1012EC00F8E552C395505006755100754E00021426
:1012FC001A02107EE58954F04401F589758CEA7563
:10130C008AE875F4EA75F2E8D2A9D28C2280003210
:10131C0075C80075CDA975CC9A75CBA975CA9AE418
:10132C00F530F531D2ADD2CA22C2CFB2B6C0E0C0D0
:10133C00D00530E53070150531C000A83F120F6E96
:10134C00740D120CF8740A120CF8D000E530B4C805
:10135C0015E531B40010D201B28CE4F530F531E56D
:10136C00362401D4F536D0D0D0E032759F03759C6D
:10137C0000759D03759E0322759E00C0E02091129E
:10138C00C0027A3212047BD0022091063091FD0209
:10139C0013BD209012C0027A3212047BD00220902E
:1013AC00063090FD0213B3E54EB40042754E018039
:1013BC003D754E05C0E0740114120503D0E0C083E6
:1013CC00C082C0E090044E1204F6D0E0D082D083EC
:1013DC00C0E0740114120501D0E0C083C082C0E0EB
:1013EC0090045F1204F6D0E0D082D0838000759E0A
:1013FC0003D0E03275817F12137712130012131C85
:10140C0075E60075E700D2AF120D0B1204CA12106C
:07141C006102107C02141AAA
:00000001FF
