:03000000021D6D71
:0100030032CA
:03000B00021B05D0
:0100130032BA
:01001B0032B2
:0100230032AA
:03002B00021B4075
:03003B00021B8223
:10003E0020202020202020202050726568656174C9
:10004E0000202020202020202020536F616B2020B4
:10005E00200020202020202020202052616D703290
:10006E00706B002020202020202020205265666CFE
:10007E006F772000202020202020202020436F6F2B
:10008E006C696E6700730057656C636F6D65212038
:10009E00202020202020200053656C656374206F83
:1000AE007074696F6E202020005072657365742025
:1000BE0050726F66696C65202000437573746F6DA6
:1000CE002050726F66696C65202000536F616B2043
:1000DE0054656D702020202020202000536F616B0E
:1000EE002054696D65202020202020200052656656
:1000FE006C6F772054696D6520202020200052659A
:10010E00666C6F772054656D702020202020005380
:10011E00414333303520736F6C64657220202000AC
:10012E0050622D736F6C64657220706173746520FC
:10013E00005368686821204E6F2070697A7A6120BA
:10014E002000616C6C6F77656420696E2068657243
:10015E00652E0070726F66696C65206C6F616465E8
:10016E006420200053797374656D20526561647943
:10017E0020202020005072657373205374617274B6
:10018E0020202020200078782020202020202020D1
:10019E002020202020200020202020202020202071
:1001AE00202020202020200041542050524553452D
:1001BE0054204D454E552020004154204355535454
:1001CE004F4D204D454E5520200041726520796FD0
:1001DE007520737572653F202020004572726F7214
:1001EE002C2070726F66696C657320006E6F7420C0
:1001FE006C6F616465642020202020200050726F97
:10020E00636573732061626F727465642000576159
:10021E00697420746F20636F6F6C2020202000495A
:10022E0053522069732072756E6E696E67202000BE
:10023E005265666C6F772041626F7274656421201F
:10024E0000537461746520300053746174652031FD
:0B025E0000C0F9A4B0999282F88090D3
:10026900C00078B10000D8FCD00022C000C00179DC
:100279002D78A6D8FED9FADAF6D001D00022D29389
:10028900120269C29322A2E792B6A2E692B4A2E54B
:1002990092B3A2E492B2120287120269A2E392B661
:1002A900A2E292B4A2E192B3A2E092B21202872230
:1002B900D29102028FC29102028FC293C292743309
:1002C9001202BE74331202BE74321202BE742812B4
:1002D90002BE740C1202BE74011202BEC0027A027E
:1002E900120274D00222E49360061202B9A380F6C6
:1002F90022444044800202BEC0E0E8C4540F4430A6
:0E0309001202B9E8540F44301202B9D0E022BB
:10031700C0E0C0D0C000C001C002E4F543F544F519
:1003270045F546F5477A20E53EA2E77904783BE6AE
:1003370033F608D9FA79057843E636D4F608D9F9B9
:10034700DAE5D002D001D000D0D0D0E022C0E0C0A2
:10035700D0C000C001C002E4F543F544F545F546B9
:10036700F5477A20E53EA2E77904783BE633F608BD
:10037700D9FA79057843C0D0E6243320E70224D0A0
:1003870020E30224FDD0D033F608D9EADAD6D0022A
:10039700D001D000D0D0D0E022C0E0C0D0C000C093
:1003A70001C0027A207905C37847E613C0D030E749
:1003B7000224D030E30224FDF618D0D0D9EC79041A
:1003C700783EE613F618D9FADADBD002D001D0006E
:1003D700D0D0D0E022C0E0C0D0E53B253FF53BE5DB
:1003E7003C3540F53CE53D3541F53DE53E3542F5CB
:1003F7003ED0D0D0E022C0E0C0D0C3E53B953FF56A
:100407003BE53C9540F53CE53D9541F53DE53E95A1
:1004170042F53ED0D0D0E022C0E0C0D0C3E53B9546
:100427003FE53C9540E53D9541E53E95429200D03C
:10043700D0D0E022C0E0C0D0C3E53F953BE5409572
:100447003CE541953DE542953E9200D0D0D0E02273
:10045700C0E0C0D0C200C3E53F953B7014E54095AE
:100467003C700EE541953D7008E542953E7002D21D
:1004770000D0D0D0E02212045720000302043B2210
:1004870012045720000302041F22C0E0C0F0C0D0AE
:10049700C000C001C002C003E53B853FF0A4F8A936
:1004A700F0E53C853FF0A429F9E435F0FAE53B8512
:1004B70040F0A429F9E5F03AFAE433FBE53D853F3E
:1004C700F0A42AFAE5F03BFBE53C8540F0A42AFAC4
:1004D700E5F03BFBE53B8541F0A42AFAE5F03BFB61
:1004E700E53E853FF0A42BFBE53D8540F0A42BFBC3
:1004F700E53C8541F0A42BFBE53B8542F0A42BFBB3
:100507008B3E8A3D893C883BD003D002D001D00086
:10051700D0D0D0F0D0E022C0E0C0D0C000C001C031
:1005270002C003C0047C20E4F8F9FAFBC3E53B33BF
:10053700F53BE53C33F53CE53D33F53DE53E33F52D
:100547003EE833F8E933F9EA33FAEB33FBC3E895CE
:100557003FE99540EA9541EB95424013E8953FF80E
:10056700E99540F9EA9541FAEB9542FB433B01DCFB
:10057700BBD004D003D002D001D000D0D0D0E0222D
:100587007A2D79FA78A6D8FED9FADAF62275F064C8
:1005970084F9E5F075F00A84C445F0F8227548003F
:1005A700754A00754C00754E008000C0E074011458
:1005B7001202FCD0E0C083C082C0E0900095120216
:1005C700EFD0E0D082D083C0E07401141202FAD0D9
:1005D700E0C083C082C0E09000A61202EFD0E0D056
:1005E70082D08320A412C0027A32120274D0022071
:1005F700A40630A4FD02092020A612C0027A3212F6
:100607000274D00220A60630A6FD02092020A512FA
:10061700C0027A32120274D00220A50630A5FD026C
:100627000920C2A078011213EE78F01213EEE954F4
:1006370003F53778551213EE8936D2A085363B85F8
:10064700373C753D00753E00753FFB75400F7541A2
:1006570000754200120491753FFF75400375410014
:1006670075420012051E753FE87540037541007518
:10067700420012051E853C37853B36E536B400023D
:100687008061C2A078011213EE78F01213EEE954DC
:1006970003F53778551213EE8936D2A085363B8598
:1006A700373C753D00753E00753FFB75400F754142
:1006B70000754200120491753FFF754003754100B4
:1006C70075420012051E753FE875400375410075B8
:1006D700420012051E853C37853B36E536B400A23D
:1006E7000209200205B2C0E07401141202FCD0E036
:1006F700C083C082C0E09001721202EFD0E0D082C6
:10070700D083C0E07401141202FAD0E0C083C08223
:10071700C0E09001831202EFD0E0D082D083C2A064
:1007270078011213EE78F01213EEE95403F53778D7
:10073700551213EE8936D2A085363B85373C753D79
:1007470000753E00753FFB75400F7541007542000F
:10075700120491753FFF7540037541007542001201
:10076700051E753FE8754003754100754200120587
:100777001E853C37853B36E536B400028061C2A052
:1007870078011213EE78F01213EEE95403F5377877
:10079700551213EE8936D2A085363B85373C753D19
:1007A70000753E00753FFB75400F754100754200AF
:1007B700120491753FFF75400375410075420012A1
:1007C700051E753FE8754003754100754200120527
:1007D7001E853C37853B36E536B400A2020920204A
:1007E700A412C0027A32120274D00220A40630A4E6
:1007F700FD0208BFC2A078011213EE78A01213EE13
:10080700E95403F53778551213EE8936D2A08536A9
:100817003B85373C753D00753E00753FFB75400FC6
:10082700754100754200120491753FFF75400375CD
:10083700410075420012051E753FE875400375417A
:100847000075420012051E853C37853B36E536B4F8
:1008570000028061C2A078011213EE78A01213EE95
:10086700E95403F53778551213EE8936D2A0853649
:100877003B85373C753D00753E00753FFB75400F66
:10088700754100754200120491753FFF754003756D
:10089700410075420012051E753FE875400375411A
:1008A7000075420012051E853C37853B36E536B498
:1008B70000A20208BF0206EDE548B400028015E574
:1008C7004AB40002800EE54CB400028007E54EB43E
:1008D70000408000C0E07401141202FCD0E0C08325
:1008E700C082C0E09001E91202EFD0E0D082D0834D
:1008F700C0E07401141202FAD0E0C083C082C0E0E5
:100907009001FA1202EFD0E0D082D0837552000234
:1009170005B27401F552021D9FC0E0740114120262
:10092700FCD0E0C083C082C0E09000B71202EFD0D5
:10093700E0D082D083C0E07401141202FAD0E0C084
:1009470083C082C0E09000C81202EFD0E0D082D00E
:100957008320A612C0027A32120274D00220A606A1
:1009670030A6FD02098420A512C0027A3212027451
:10097700D00220A50630A5FD020AAA809CC0E0741B
:1009870001141202FCD0E0C083C082C0E09001B61F
:100997001202EFD0E0D082D083C0E07401141202BB
:1009A700FAD0E0C083C082C0E09001A51202EFD068
:1009B700E0D082D08320A512C0027A32120274D00E
:1009C7000220A50630A5FD020AAA20A412C0027AB9
:1009D70032120274D00220A40630A4FD020BD0C24A
:1009E700A078011213EE78F01213EEE95403F537ED
:1009F70078551213EE8936D2A085363B85373C757C
:100A07003D00753E00753FFB75400F75410075420F
:100A170000120491753FFF75400375410075420050
:100A270012051E753FE875400375410075420012B7
:100A3700051E853C37853B36E536B400028061C22A
:100A4700A078011213EE78F01213EEE95403F5378C
:100A570078551213EE8936D2A085363B85373C751B
:100A67003D00753E00753FFB75400F7541007542AF
:100A770000120491753FFF754003754100754200F0
:100A870012051E753FE87540037541007542001257
:100A9700051E853C37853B36E536B400A2020920A2
:100AA700020984C0E07401141202FCD0E0C083C0C4
:100AB70082C0E09001C71202EFD0E0D082D083C09D
:100AC700E07401141202FAD0E0C083C082C0E09043
:100AD70001A51202EFD0E0D082D08320A612C00277
:100AE7007A32120274D00220A60630A6FD020984CB
:100AF70020A412C0027A32120274D00220A4063057
:100B0700A4FD020FACC2A078011213EE78F0121305
:100B1700EEE95403F53778551213EE8936D2A085DE
:100B2700363B85373C753D00753E00753FFB75408C
:100B37000F754100754200120491753FFF75400320
:100B470075410075420012051E753FE87540037533
:100B5700410075420012051E853C37853B36E53658
:100B6700B400028061C2A078011213EE78F012136C
:100B7700EEE95403F53778551213EE8936D2A0857E
:100B8700363B85373C753D00753E00753FFB75402C
:100B97000F754100754200120491753FFF754003C0
:100BA70075410075420012051E753FE875400375D3
:100BB700410075420012051E853C37853B36E536F8
:100BC700B400A2020920020AAAC0E07401141202AA
:100BD700FCD0E0C083C082C0E090011D1202EFD0BC
:100BE700E0D082D083C0E07401141202FAD0E0C0D2
:100BF70083C082C0E090012E1202EFD0E0D082D0F5
:100C07008320A612C0027A32120274D00220A606EE
:100C170030A6FD020CF620A512C0027A3212027429
:100C2700D00220A50630A5FD020DE4C2A07801126E
:100C370013EE78F01213EEE95403F53778551213D3
:100C4700EE8936D2A085363B85373C753D00753E2B
:100C570000753FFB75400F75410075420012049106
:100C6700753FFF75400375410075420012051E75FB
:100C77003FE875400375410075420012051E853C2B
:100C870037853B36E536B400028061C2A078011291
:100C970013EE78F01213EEE95403F5377855121373
:100CA700EE8936D2A085363B85373C753D00753ECB
:100CB70000753FFB75400F754100754200120491A6
:100CC700753FFF75400375410075420012051E759B
:100CD7003FE875400375410075420012051E853CCB
:100CE70037853B36E536B400A2020920020BD02037
:100CF700A512C0027A32120274D00220A50630A5CE
:100D0700FD020DE420A412C0027A32120274D0024E
:100D170020A40630A4FD020F19C2A078011213EE19
:100D270078F01213EEE95403F53778551213EE896C
:100D370036D2A085363B85373C753D00753E00753C
:100D47003FFB75400F754100754200120491753FD6
:100D5700FF75400375410075420012051E753FE897
:100D670075400375410075420012051E853C3785A5
:100D77003B36E536B400028061C2A078011213EE5B
:100D870078F01213EEE95403F53778551213EE890C
:100D970036D2A085363B85373C753D00753E0075DC
:100DA7003FFB75400F754100754200120491753F76
:100DB700FF75400375410075420012051E753FE837
:100DC70075400375410075420012051E853C378545
:100DD7003B36E536B400A2020920020CF620A61223
:100DE700C0027A32120274D00220A60630A6FD0293
:100DF7000CF620A412C0027A32120274D00220A488
:100E07000630A4FD020ED2C2A078011213EE78F0CC
:100E17001213EEE95403F53778551213EE8936D2DB
:100E2700A085363B85373C753D00753E00753FFB19
:100E370075400F754100754200120491753FFF75AB
:100E4700400375410075420012051E753FE8754065
:100E57000375410075420012051E853C37853B36F8
:100E6700E536B400028061C2A078011213EE78F073
:100E77001213EEE95403F53778551213EE8936D27B
:100E8700A085363B85373C753D00753E00753FFBB9
:100E970075400F754100754200120491753FFF754B
:100EA700400375410075420012051E753FE8754005
:100EB7000375410075420012051E853C37853B3698
:100EC700E536B400A2020920020DE4C0E074011463
:100ED7001202FCD0E0C083C082C0E090012E120253
:100EE700EFD0E0D082D083C0E07401141202FAD0B0
:100EF700E0C083C082C0E09001611202EFD0E0D071
:100F070082D083754878754A96754C14754EE602FB
:100F170006EDC0E07401141202FCD0E0C083C08269
:100F2700C0E090011D1202EFD0E0D082D083C0E074
:100F37007401141202FAD0E0C083C082C0E09001AD
:100F4700611202EFD0E0D082D083754878754AA04D
:100F5700740FF54C754EF50206EDC0E074011412DE
:100F670002FCD0E0C083C082C0E090013F1202EFD4
:100F7700D0E0D082D083C0E07401141202FAD0E02E
:100F8700C083C082C0E09001501202EFD0E0D0824F
:100F9700D083741EF54874C8F54A7414F54C74F57B
:100FA700F54E0206EDC0E07401141202FCD0E0C059
:100FB70083C082C0E09000C81202EFD0E0D082D098
:100FC70083C0E07401141202FAD0E0C083C082C06B
:100FD700E09001A51202EFD0E0D082D08320A412C6
:100FE700C0027A32120274D00220A40630A4FD0295
:100FF70010C28000C2A078011213EE78F01213EE2F
:10100700E95403F53778551213EE8936D2A08536A1
:101017003B85373C753D00753E00753FFB75400FBE
:10102700754100754200120491753FFF75400375C5
:10103700410075420012051E753FE8754003754172
:101047000075420012051E853C37853B36E536B4F0
:1010570000028061C2A078011213EE78F01213EE3D
:10106700E95403F53778551213EE8936D2A0853641
:101077003B85373C753D00753E00753FFB75400F5E
:10108700754100754200120491753FFF7540037565
:10109700410075420012051E753FE8754003754112
:1010A7000075420012051E853C37853B36E536B490
:1010B70000A20210BF020FAC020920C0E0740114A5
:1010C7001202FCD0E0C083C082C0E09000D91202B7
:1010D700EFD0E0D082D083E54A75F06484F9E5F07B
:1010E70075F00A84C445F0F8895BC0E074011412F6
:1010F70002FAD0E0C000A85B120301D000885BC0F1
:10110700E07403141202FAD0E0C000A85B120301D6
:10111700D00020A622C0027A32120274D00220A682
:101127001630A6FDE54A2401B4FF06E4F54A02108D
:10113700C2F54AE40210C220A522C0027A32120286
:1011470074D00220A51630A5FDE54A24FFB4000699
:10115700E4F54A0210C2F54AE40210C230A40302C1
:1011670010C230A4FDC0E07401141202FCD0E0C02C
:1011770083C082C0E09000EA1202EFD0E0D082D0B4
:1011870083E54875F06484F9E5F075F00A84C44591
:10119700F0F8895BC0E07401141202FAD0E0C000D5
:1011A700A85B120301D000885BC0E074031412022D
:1011B700FAD0E0C000A85B120301D00020A622C02D
:1011C700027A32120274D00220A61630A6FDE54834
:1011D7002401B4FF06E4F548021169F548E4021159
:1011E7006920A522C0027A32120274D00220A51605
:1011F70030A5FDE54824FFB40006E4F5480211696F
:10120700F548E402116930A40302116930A4FDC056
:10121700E07401141202FCD0E0C083C082C0E090E9
:10122700010C1202EFD0E0D082D083E54E75F06456
:1012370084F9E5F075F00A84C445F0F8895BC0E0ED
:101247007401141202FAD0E0C000A85B120301D0A7
:1012570000885BC0E07403141202FAD0E0C000A853
:101267005B120301D00020A622C0027A3212027458
:10127700D00220A61630A6FDE54E2401B4FF06E4F1
:10128700F54E021213F54EE402121320A522C002F6
:101297007A32120274D00220A51630A5FDE54E243D
:1012A700FFB40006E4F54E021213F54EE4021213E2
:1012B70030A40302121330A4FDC0E074011412021B
:1012C700FCD0E0C083C082C0E09000FB1202EFD0E8
:1012D700E0D082D083E54C75F06484F9E5F075F0D1
:1012E7000A84C445F0F8895BC0E07401141202FA5D
:1012F700D0E0C000A85B120301D000885BC0E07497
:1013070003141202FAD0E0C000A85B120301D00058
:1013170020A622C0027A32120274D00220A616300A
:10132700A6FDE54C2401B4FF06E4F54C0212BDF519
:101337004CE40212BD20A522C0027A32120274D0F8
:101347000220A51630A5FDE54C24FFB40006E4F500
:101357004C0212BDF54CE40212BD30A4030212BDCB
:10136700C0E07401141202FCD0E0C083C082C0E068
:101377009001D81202EFD0E0D082D083C0E0740190
:10138700141202FAD0E0C083C082C0E09001A51217
:1013970002EFD0E0D082D08330A6030213670206A3
:0113A700ED58
:1013A800C0E0E8C4540F44301213D6E8540F443058
:1013B8001213D6D0E02279DE78A6D8FED9FA438770
:1013C80080759852759B00759AF4759B1E2230990A
:1013D800FDC299F59922E49360061213D6A380F60C
:1013E80022D2A2C2A322C0E079007A08E833F89298
:1013F800A1D2A3A2A2E933F9C2A3DAF0D0E022482D
:10140800656C6C6F2C20576F726C64210D0A007923
:10141800DE78A6D8FED9FA32C0E07407141202FAB0
:10142800D0E0C000A847120301D000C000A84612AF
:101438000301D000C000A845120301D000C000A8D5
:1014480044120301D000C000A843120301D000C019
:10145800E07407141202FAD0E0E54754F0C46003C0
:10146800021505C0E074201202B9D0E0E547540F18
:101478006003021505C0E074201202B9D0E0E54609
:1014880054F0C46003021505C0E074201202B9D0FC
:10149800E0E546540F6003021505C0E0742012020F
:1014A800B9D0E0E54554F0C46003021505C0E07406
:1014B800201202B9D0E0E545540F6003021505C0BB
:1014C800E074201202B9D0E0E54454F0C46003028D
:1014D8001505C0E074201202B9D0E0E544540F604D
:1014E80003021505C0E074201202B9D0E0E54354A8
:1014F800F0C47009C0E074201202B9D0E022C0E044
:101508007407141202FCD0E0C000A847120301D0EF
:1015180000C000A846120301D000C000A84512036D
:1015280001D000C000A844120301D000C000A843A5
:10153800120301D000C0E07407141202FCD0E0E5E9
:101548004754F0C460030215EBC0E074201202B9DE
:10155800D0E0E547540F60030215EBC0E074201299
:1015680002B9D0E0E54654F0C460030215EBC0E0D0
:1015780074201202B9D0E0E546540F60030215EB5F
:10158800C0E074201202B9D0E0E54554F0C460030D
:101598000215EBC0E074201202B9D0E0E545540F03
:1015A80060030215EBC0E074201202B9D0E0E544F4
:1015B80054F0C460030215EBC0E074201202B9D0E5
:1015C800E0E544540F60030215EBC0E074201202FA
:1015D800B9D0E0E54354F0C47009C0E074201202A9
:1015E800B9D0E022C000A8471213A8D000C000A8B4
:1015F800461213A8D000C000A8451213A8D000C0F6
:1016080000A8441213A8D000C000A8431213A8D001
:1016180000740D1213D6740A1213D622C2A07801D0
:101628001213EE78801213EEE95403F5337855124D
:1016380013EE8932D2A085323B85333C753D007567
:101648003E00753FFD75400F75410075420012045C
:1016580091753FFF75400375410075420012051EE4
:10166800753F0A75400075410075420012051E75E8
:101678003F117540017541007542001203FD853B1D
:1016880032853C3312141722C2A078011213EE7867
:10169800901213EEE95403F53778551213EE893694
:1016A800D2A085363B85373C753D00753E00753FB9
:1016B800FB75400F754100754200120491753FFF9C
:1016C80075400375410075420012051E853B36853D
:1016D8003C3785363B85373C753D00753E00753F88
:1016E80087754009754100754200120491753FCD18
:1016F80075400075410075420012051E753F6475FE
:10170800400075410075420012051E85323F853341
:10171800407541007542001203FD853B34853C3518
:101728002285343B85353C753D00753E0012031714
:1017380085433885443922300111C201121624121A
:0C1748001690121729121420121AD42235
:10175400C2A078011213EE78B01213EEE95403F527
:101764003778551213EE8936D2A085363B85373C3F
:10177400753D00753E00753FFB75400F7541007562
:101784004200120491753FFF754003754100754294
:101794000012051E753FE87540037541007542004F
:1017A40012051E853C37853B36E536B28CB4000203
:1017B400801FC0E07401141202FCD0E0C083C08218
:1017C400C0E090023E1202EFD0E0D082D083755286
:1017D40005E552B40041C0E07401141202FCD0E0EB
:1017E400C083C082C0E090024F1202EFD0E0D082EA
:1017F400D083C0E07401141202FAD0E0C083C08226
:10180400C0E09001A51202EFD0E0D082D08375F53C
:10181400000205A4021D9FB40170D202C20275F534
:10182400FFC0E07401141202FCD0E0C083C082C087
:10183400E090003E1202EFD0E0D082D083C0E0748A
:1018440009141202FAD0E0E53A1213D6C0E0740C7F
:10185400141202FAD0E0C083C082C0E09000931258
:1018640002EFD0E0D082D083C0E07401141202FAF7
:10187400D0E0E5541213D6755500E54AC3953450AB
:1018840006753A00755202021D9FB40270D202120C
:101894001B05C20275F533C0E07401141202FCD0BA
:1018A400E0C083C082C0E090004F1202EFD0E0D0CD
:1018B40082D083C0E07409141202FAD0E0E53A122F
:1018C40013D6C0E0740C141202FAD0E0C083C082B4
:1018D400C0E09000931202EFD0E0D082D083C0E049
:1018E4007401141202FAD0E0E5541213D6E548C389
:1018F400953A5006755203753A00021D9FB4037C55
:10190400C0E07405141202FAD0E0C000785C12033F
:1019140001D00075F5FFC0E07401141202FCD0E0A0
:10192400C083C082C0E09000601202EFD0E0D08299
:10193400D083C0E07409141202FAD0E0E53A12131D
:10194400D6C0E0740C141202FAD0E0C083C082C086
:10195400E09000931202EFD0E0D082D083C0E07414
:1019640001141202FAD0E0E5541213D6E54EC395E1
:10197400345006753A00755204021D9FB4046D7507
:10198400F533C0E07401141202FCD0E0C083C082BD
:10199400C0E09000711202EFD0E0D082D083C0E0AA
:1019A4007409141202FAD0E0E53A1213D6C0E074B6
:1019B4000C141202FAD0E0C083C082C0E0900093FD
:1019C4001202EFD0E0D082D083C0E074011412027E
:1019D400FAD0E0E5541213D6E54CC3D205955C5019
:1019E40008C205755205753A00021D9FB4056FD2F1
:1019F40003121B05C20375F500C0E0740114120242
:101A0400FCD0E0C083C082C0E09000821202EFD01C
:101A1400E0D082D083C0E07409141202FAD0E0E569
:101A24003A1213D6C0E0740C141202FAD0E0C08348
:101A3400C082C0E09000931202EFD0E0D082D08345
:101A4400C0E07401141202FAD0E0E5541213D6E592
:101A54003495565006753A00755200021D9FD20403
:101A6400121B05C204021D9FA2E09283A2E192858B
:101A7400A2E29287A2E392C4A2E492C5A2E5928470
:101A8400A2E69286A2E792A722D281D280D282E5F0
:101A94005AB4000BE557121A6CC281055A8020B45F
:101AA400010BE558121A6CC280055A8012B4020C5C
:101AB400E559121A6CC282755A008003755A0022C5
:101AC4007400F55A7411F5387401F539121AD422D8
:101AD40090025FE538540F93F557E538C4540F93DB
:101AE400F558E539540F93F55922E58954F044012A
:101AF400F589758CEA758AE875F4EA75F2E8D2A975
:101B040022800032E589540F4410F589E591540090
:101B14004480F591758D00758B0075F50075F300A3
:101B2400D28E3275C80075CDA975CC9A75CBA975BE
:101B3400CA9AE4F530F531D2ADD2CA22C2CFC0E0A0
:101B4400C0D0121A8D0530E53070020531E530B48D
:101B5400E81DE531B40318D201E4F530F531E53A76
:101B64002401D4F53A300507E55C2401D4F55CD0B2
:101B7400D0D0E032759F01759C00759D0122759E41
:101B840000C0E0C2A078011213EE78B01213EEE99F
:101B94005403F53778551213EE8936D2A085363BB7
:101BA40085373C753D00753E00753FFB75400F75EC
:101BB4004100754200120491753FFF754003754161
:101BC4000075420012051E753FE87540037541001B
:101BD40075420012051E853C37853B36E536B40058
:101BE400028061C2A078011213EE78B01213EEE9FC
:101BF4005403F53778551213EE8936D2A085363B57
:101C040085373C753D00753E00753FFB75400F758B
:101C14004100754200120491753FFF754003754100
:101C24000075420012051E753FE8754003754100BA
:101C340075420012051E853C37853B36E536B400F7
:101C4400A2021D2DC2A078011213EE78A01213EE89
:101C5400E95403F53778551213EE8936D2A0853648
:101C64003B85373C753D00753E00753FFB75400F65
:101C7400754100754200120491753FFF754003756C
:101C8400410075420012051E753FE8754003754119
:101C94000075420012051E853C37853B36E536B497
:101CA40000028061C2A078011213EE78A01213EE34
:101CB400E95403F53778551213EE8936D2A08536E8
:101CC4003B85373C753D00753E00753FFB75400F05
:101CD400754100754200120491753FFF754003750C
:101CE400410075420012051E753FE87540037541B9
:101CF4000075420012051E853C37853B36E536B437
:101D040000A2021D09E4C0E07401141202FAD0E03A
:101D1400C083C082C0E090022D1202EFD0E0D082D6
:101D2400D083E552755201803D755205C0E07401BF
:101D3400141202FCD0E0C083C082C0E090020B12F7
:101D440002EFD0E0D082D083C0E07401141202FA12
:101D5400D0E0C083C082C0E090021C1202EFD0E049
:101D6400D082D0838000D0E03275817F121B78123C
:101D74001AC4121AEE121B08121B27C202C203C293
:101D840004755C0075520075E60075E700758E11E8
:101D9400D2AF1213BE1213E91202C312173F021775
:031DA4005480F870
:00000001FF
