:030000000241E4D6
:0100030032CA
:03000B0002416C43
:0100130032BA
:01001B0032B2
:0100230032AA
:03002B000241A9E6
:01003B003292
:10003C0020202020202020202050726568656174CB
:10004C0000202020202020202020536F616B2020B6
:10005C00200020202020202020202052616D703292
:10006C00706B002020202020202020205265666C00
:10007C006F772000202020202020202020436F6F2D
:10008C006C696E6700730057656C636F6D6521203A
:10009C00202020202020200053656C656374206F85
:1000AC007074696F6E202020005072657365742027
:1000BC0050726F66696C652000437573746F6D20A8
:1000CC0050726F66696C652000536F616B205465CC
:1000DC006D702020202020202000536F616B205455
:1000EC00696D6520202020202020005265666C6FF1
:1000FC00772054696D652020202020005265666CA5
:10010C006F772054656D70202020202000534143D0
:10011C0033303520736F6C64657220200050622D73
:10012C00736F6C64657220706173746500536868DA
:10013C006821204E6F2070697A7A61202000616CF2
:10014C006C6F77656420696E20686572652E00702F
:10015C00726F66696C65206C6F6164656420200049
:10016C0053797374656D2052656164792020202069
:10017C0000507265737320537461727420202020B8
:10018C0020007878202020202020202020202020D3
:10019C002020002020202020202020202020202073
:1001AC0020202000415420505245534554204D45A9
:1001BC004E55202000415420435553544F4D204D53
:1001CC00454E5520200041726520796F752073755E
:1001DC0072653F202020004572726F722C20707265
:1001EC006F66696C657320006E6F74206C6F616450
:1001FC0065642020202020200050726F636573738B
:10020C002061626F72746564200057616974207498
:10021C006F20636F6F6C202020200049535220699F
:10022C00732072756E6E696E672020005265666C65
:10023C006F772041626F727465642120003F00C3A8
:10024C00DDCCDFDAC1D4B000CCDFD8B0CBB0C40089
:10025C00D7DDCCDFA5C0B0A5CBDFB0B900DACCDBE5
:10026C00B000B9B0D8DDB9E900BEBADDC4DE00B368
:10027C00AAD9BAD100BEDAB9C4A5B5CCDFBCD6DDDB
:10028C0000CCDFD8B0BEC2C4A5CCDFDBB0CCB1B2E1
:10029C00D900B6BDC4D1A5CCDFDBB0CCB1B2D9008E
:1002AC00BFB0B9A5C3DDCCDFDAC1D4B000BFB0B9E3
:1002BC00A5B9B2D100DACCDBB0A5B9B2D100DACC99
:1002CC00DBB0A5C3DDCCDFDAC1D4B000BFD9B9DE59
:1002DC00B000CCDFCCDEA5BFD9B9DEB0A5CDDFB088
:1002EC00BDC400C9B0A5CBDFB0C2B1B000B1D7B3AB
:1002FC00C4DEA5B2DDA5CBB100CCDFDBB0CCB1B296
:10030C00D9A5DBB0C3DEB2C2C4DE00BCBDC3D1A56F
:10031C00C2C3DEB2B000CCDFDABDA5BDB9B0C4003B
:10032C007878202020202020202020202020202011
:10033C0000202020202020202020202020202020D1
:10034C002000B1C2C4A5CCDFDABEDEDDC4A5C5C6B3
:10035C00ADB000B1C2C4A5B6BDC4D1A5C5C6ADB0C3
:10036C0000B1B0A5ADB0A5BCADB100AAD7B0A5CCBD
:10037C00DFDBB0CCB1B2D9BDDE009CDD4C5ABD0B7D
:10038C00CC2BDD4C00CCBD0BBCDB5A7AEC0BCC2B54
:10039C008C009BAA0B4C5A7E0B5A9B0B9D00B1B246
:1003AC00A5AABDA5B1B0A5B2BDDEA5D7C6DDB9DE87
:1003BC0000DACCDBB0A5B1CEDEB0C3B2C4DE003FF8
:1003CC00005374617465203000537461746520317E
:1003DC0000C0F9A4B0999282F8809075630275669A
:1003EC0006756464756500D28C22C28C75630075C9
:1003FC00640022E563B400028042B4010AD5643C77
:10040C00756300C28C8035B4022DE5666029E56504
:10041C00B4001A8000D56424756464756501C28CBF
:10042C001238E81238E81238E81566800F75650046
:0D043C00120767D28C8005C28C7563002208
:10044900C00078B10000D8FCD00022C000C00179FA
:100459002D78A6D8FED9FADAF6D001D00022D293A7
:10046900120449C29322A2E792B6A2E692B4A2E587
:1004790092B3A2E492B2120467120449A2E392B6BB
:10048900A2E292B4A2E192B3A2E092B2120467226C
:10049900D29102046FC29102046FC293C292743363
:1004A90012049E743312049E743212049E7428122C
:1004B900049E740C12049E740112049EC0027A02F6
:1004C900120454D00222E4936006120499A380F620
:1004D900224440448002049EC0E0E8C4540F4430E2
:0E04E900120499E8540F4430120499D0E02216
:1004F700C0E0C0D0C000C001C002E4F546F547F532
:1005070048F549F54A7A20E541A2E77904783EE6BD
:1005170033F608D9FA79057846E636D4F608D9F9D4
:10052700DAE5D002D001D000D0D0D0E022C0E0C0C0
:10053700D0C000C001C002E4F546F547F548F549CB
:10054700F54A7A20E541A2E77904783EE633F608D2
:10055700D9FA79057846C0D0E6243320E70224D0BB
:1005670020E30224FDD0D033F608D9EADAD6D00248
:10057700D001D000D0D0D0E022C0E0C0D0C000C0B1
:1005870001C0027A207905C3784AE613C0D030E764
:100597000224D030E30224FDF618D0D0D9EC790438
:1005A7007841E613F618D9FADADBD002D001D00089
:1005B700D0D0D0E022C0E0C0D0E53E2542F53EE5F0
:1005C7003F3543F53FE5403544F540E5413545F5D1
:1005D70041D0D0D0E022C0E0C0D0C3E53E9542F57F
:1005E7003EE53F9543F53FE5409544F540E54195A8
:1005F70045F541D0D0D0E022C0E0C0D0C3E53E955C
:1006070042E53F9543E5409544E54195459200D045
:10061700D0D0E022C0E0C0D0C3E542953EE5439587
:100627003FE5449540E54595419200D0D0D0E02282
:10063700C0E0C0D0C200C3E542953E7014E54395C3
:100647003F700EE54495407008E54595417002D22C
:1006570000D0D0D0E02212063720000302061B226A
:100667001206372000030205FF22C0E0C0F0C0D009
:10067700C000C001C002C003E53E8542F0A4F8A94E
:10068700F0E53F8542F0A429F9E435F0FAE53E8527
:1006970043F0A429F9E5F03AFAE433FBE540854253
:1006A700F0A42AFAE5F03BFBE53F8543F0A42AFADC
:1006B700E5F03BFBE53E8544F0A42AFAE5F03BFB79
:1006C700E5418542F0A42BFBE5408543F0A42BFBD5
:1006D700E53F8544F0A42BFBE53E8545F0A42BFBC5
:1006E7008B418A40893F883ED003D002D001D00099
:1006F700D0D0D0F0D0E022C0E0C0D0C000C001C050
:1007070002C003C0047C20E4F8F9FAFBC3E53E33DA
:10071700F53EE53F33F53FE54033F540E54133F539
:1007270041E833F8E933F9EA33FAEB33FBC3E895E9
:1007370042E99543EA9544EB95454013E89542F81D
:10074700E99543F9EA9544FAEB9545FB433E01DC0D
:10075700BBD004D003D002D001D000D0D0D0E0224B
:100767007A2D79FA78A6D8FED9FADAF62275F064E6
:1007770084F9E5F075F00A84C445F0F822754B005A
:10078700754D00754F007551008000C0E07401146D
:100797001204DCD0E0C083C082C0E0900093120452
:1007A700CFD0E0D082D083C0E07401141204DAD035
:1007B700E0C083C082C0E09000A41204CFD0E0D094
:1007C70082D08320A412C0027A32120454D00220AD
:1007D700A40630A4FD020BA820A612C0027A32128A
:1007E7000454D00220A60630A6FD020BA820A512AD
:1007F700C0027A32120454D00220A50630A5FD02A9
:100807000BA8C2A078011238CF78F01238CFE9547C
:1008170003F53978551238CF8938D2A085383E8507
:10082700393F7540007541007542FB75430F7544AC
:10083700007545001206717542FF75430375440044
:100847007545001206FE7542E87543037544007549
:1008570045001206FE853F39853E38E538B400026B
:100867008061C2A078011238CF78F01238CFE954EE
:1008770003F53978551238CF8938D2A085383E85A7
:10088700393F7540007541007542FB75430F75444C
:10089700007545001206717542FF754303754400E4
:1008A7007545001206FE7542E875430375440075E9
:1008B70045001206FE853F39853E38E538B400A26B
:1008C700020BA8020792C0E07401141204DCD0E006
:1008D700C083C082C0E090016C1204CFD0E0D08208
:1008E700D083C0E07401141204DAD0E0C083C08260
:1008F700C0E090017D1204CFD0E0D082D083C2A0A7
:1009070078011238CF78F01238CFE95403F53978E7
:10091700551238CF8938D2A085383E85393F754082
:10092700007541007542FB75430F7544007545001E
:100937001206717542FF7543037544007545001231
:1009470006FE7542E87543037544007545001206B7
:10095700FE853F39853E38E538B400028061C2A084
:1009670078011238CF78F01238CFE95403F5397887
:10097700551238CF8938D2A085383E85393F754022
:10098700007541007542FB75430F754400754500BE
:100997001206717542FF75430375440075450012D1
:1009A70006FE7542E8754303754400754500120657
:1009B700FE853F39853E38E538B400A2020BA820F2
:1009C700A412C0027A32120454D00220A40630A422
:1009D700FD020A9FC2A078011238CF78A01238CF43
:1009E700E95403F53978551238CF8938D2A08538BC
:1009F7003E85393F7540007541007542FB75430FD1
:100A07007544007545001206717542FF75430375FD
:100A170044007545001206FE7542E87543037544A8
:100A2700007545001206FE853F39853E38E538B426
:100A370000028061C2A078011238CF78A01238CFA7
:100A4700E95403F53978551238CF8938D2A085385B
:100A57003E85393F7540007541007542FB75430F70
:100A67007544007545001206717542FF754303759D
:100A770044007545001206FE7542E8754303754448
:100A8700007545001206FE853F39853E38E538B4C6
:100A970000A2020A9F0208CDE54BB400028015E5CB
:100AA7004DB40002800EE54FB400028007E551B453
:100AB70000408000C0E07401141204DCD0E0C08361
:100AC700C082C0E09001E31204CFD0E0D082D0838F
:100AD700C0E07401141204DAD0E0C083C082C0E021
:100AE7009001F41204CFD0E0D082D0837555000274
:100AF7000792C0E07401141204DAD0E0C083C08208
:100B0700C0E090019F1204CFD0E0D082D083753C23
:100B1700007401F55575630175643CD28C753E010F
:100B2700753F007540007541001204F7123ABD7514
:100B37003E01753F007540007541001204F7123AF7
:100B4700BD854B3E753F007540007541001204F7A7
:100B5700123ABD854D3E753F007540007541001244
:100B670004F7123ABD854F3E753F00754000754149
:100B7700001204F7123ABD85513E753F00754000DB
:100B87007541001204F7123ABD753E00753F0075B6
:100B970040007541001204F7123ABD1240A102420B
:100BA7001CC0E07401141204DCD0E0C083C082C012
:100BB700E09000B51204CFD0E0D082D083C0E074BB
:100BC70001141204DAD0E0C083C082C0E09000C5EF
:100BD7001204CFD0E0D082D08320A612C0027A328E
:100BE700120454D00220A60630A6FD020CD120A57F
:100BF70012C0027A32120454D00220A50630A5FD95
:100C0700020E13C2A078011238CF78B01238CFE99C
:100C17005403F53978551238CF8938D2A085383E34
:100C270085393F7540007541007542FB75430F7567
:100C370044007545001206717542FF7543037544FC
:100C4700007545001206FE7542E8754303754400BA
:100C57007545001206FE853F39853E38E538B400F4
:100C6700028061C2A078011238CF78B01238CFE97C
:100C77005403F53978551238CF8938D2A085383ED4
:100C870085393F7540007541007542FB75430F7507
:100C970044007545001206717542FF75430375449C
:100CA700007545001206FE7542E87543037544005A
:100CB7007545001206FE853F39853E38E538B40094
:100CC700A2020CCE020BA8021CE4C0E074011412AD
:100CD70004DCD0E0C083C082C0E09001B01204CF32
:100CE700D0E0D082D083C0E07401141204DAD0E0DF
:100CF700C083C082C0E090019F1204CFD0E0D082B1
:100D0700D083C0E07410141204DCD0E0C083C0822A
:100D1700C0E09002491204CFD0E0D082D08320A552
:100D270012C0027A32120454D00220A50630A5FD63
:100D3700020E1320A412C0027A32120454D00220E9
:100D4700A40630A4FD020F55C2A078011238CF784F
:100D5700F01238CFE95403F53978551238CF89386E
:100D6700D2A085383E85393F7540007541007542F0
:100D7700FB75430F7544007545001206717542FFF8
:100D87007543037544007545001206FE7542E87504
:100D970043037544007545001206FE853F39853EBD
:100DA70038E538B400028061C2A078011238CF78E4
:100DB700F01238CFE95403F53978551238CF89380E
:100DC700D2A085383E85393F754000754100754290
:100DD700FB75430F7544007545001206717542FF98
:100DE7007543037544007545001206FE7542E875A4
:100DF70043037544007545001206FE853F39853E5D
:100E070038E538B400A2020BA8020CD1C0E0740187
:100E1700141204DCD0E0C083C082C0E09001C1128C
:100E270004CFD0E0D082D083C0E07401141204DA7A
:100E3700D0E0C083C082C0E090019F1204CFD0E011
:100E4700D082D083C0E07410141204DCD0E0C083D9
:100E5700C082C0E09002491204CFD0E0D082D08394
:100E670020A612C0027A32120454D00220A60630FD
:100E7700A6FD020CD120A412C0027A32120454D06B
:100E87000220A40630A4FD0213A0C2A078011238E4
:100E9700CF78F01238CFE95403F53978551238CFA7
:100EA7008938D2A085383E85393F754000754100A5
:100EB7007542FB75430F7544007545001206717541
:100EC70042FF7543037544007545001206FE7542DF
:100ED700E87543037544007545001206FE853F39E2
:100EE700853E38E538B400028061C2A07801123827
:100EF700CF78F01238CFE95403F53978551238CF47
:100F07008938D2A085383E85393F75400075410044
:100F17007542FB75430F75440075450012067175E0
:100F270042FF7543037544007545001206FE75427E
:100F3700E87543037544007545001206FE853F3981
:100F4700853E38E538B400A2020BA8020E13C0E0B4
:100F57007401141204DCD0E0C083C082C0E09001A9
:100F6700191204CFD0E0D082D083C0E074011412EC
:100F770004DAD0E0C083C082C0E09001291204CF18
:100F8700D0E0D082D08320A612C0027A3212045455
:100F9700D00220A60630A6FD02107B20A512C002B3
:100FA7007A32120454D00220A50630A5FD0211A101
:100FB700C2A078011238CF78F01238CFE95403F580
:100FC7003978551238CF8938D2A085383E85393FD0
:100FD7007540007541007542FB75430F75440075F8
:100FE70045001206717542FF754303754400754548
:100FF700001206FE7542E875430375440075450007
:101007001206FE853F39853E38E538B40002806117
:10101700C2A078011238CF78F01238CFE95403F51F
:101027003978551238CF8938D2A085383E85393F6F
:101037007540007541007542FB75430F7544007597
:1010470045001206717542FF7543037544007545E7
:10105700001206FE7542E8754303754400754500A6
:101067001206FE853F39853E38E538B400A2020BEB
:10107700A8020F5520A512C0027A32120454D002DA
:1010870020A50630A5FD0211A120A412C0027A32C4
:10109700120454D00220A40630A4FD02130EC2A0ED
:1010A70078011238CF78F01238CFE95403F5397840
:1010B700551238CF8938D2A085383E85393F7540DB
:1010C700007541007542FB75430F75440075450077
:1010D7001206717542FF754303754400754500128A
:1010E70006FE7542E8754303754400754500120610
:1010F700FE853F39853E38E538B400028061C2A0DD
:1011070078011238CF78F01238CFE95403F53978DF
:10111700551238CF8938D2A085383E85393F75407A
:10112700007541007542FB75430F75440075450016
:101137001206717542FF7543037544007545001229
:1011470006FE7542E87543037544007545001206AF
:10115700FE853F39853E38E538B400A2020BA8C0AA
:10116700E07410141204DCD0E0C083C082C0E090A9
:1011770002491204CFD0E0D082D083C0E0741014AB
:101187001204DAD0E0C083C082C0E090019F12044D
:10119700CFD0E0D082D08302107B20A612C0027A83
:1011A70032120454D00220A60630A6FD02107B207E
:1011B700A412C0027A32120454D00220A40630A42A
:1011C700FD0212C7C2A078011238CF78F01238CFCB
:1011D700E95403F53978551238CF8938D2A08538C4
:1011E7003E85393F7540007541007542FB75430FD9
:1011F7007544007545001206717542FF7543037506
:1012070044007545001206FE7542E87543037544B0
:10121700007545001206FE853F39853E38E538B42E
:1012270000028061C2A078011238CF78F01238CF5F
:10123700E95403F53978551238CF8938D2A0853863
:101247003E85393F7540007541007542FB75430F78
:101257007544007545001206717542FF75430375A5
:1012670044007545001206FE7542E8754303754450
:10127700007545001206FE853F39853E38E538B4CE
:1012870000A2020BA8C0E07410141204DAD0E0C068
:1012970083C082C0E09002491204CFD0E0D082D050
:1012A70083C0E07410141204DCD0E0C083C082C095
:1012B700E090019F1204CFD0E0D082D0830211A129
:1012C700C0E07401141204DCD0E0C083C082C0E027
:1012D7009001291204CFD0E0D082D083C0E07401FE
:1012E700141204DAD0E0C083C082C0E090015B1220
:1012F70004CFD0E0D082D083754B78754D96754F6B
:10130700147551E60208CDC0E07401141204DCD054
:10131700E0C083C082C0E09001191204CFD0E0D0B2
:1013270082D083C0E07401141204DAD0E0C083C015
:1013370082C0E090015B1204CFD0E0D082D08375E9
:101347004B78754DA0754F0F7551F50208CDC0E06C
:101357007401141204DCD0E0C083C082C0E09001A5
:10136700391204CFD0E0D082D083C0E074011412C8
:1013770004DAD0E0C083C082C0E090014A1204CFF3
:10138700D0E0D082D083741EF54B74C8F54D741429
:10139700F54F74F5F5510208CDC0E074011412043D
:1013A700DCD0E0C083C082C0E09000C51204CFD07B
:1013B700E0D082D083C0E07401141204DAD0E0C018
:1013C70083C082C0E090019F1204CFD0E0D082D0CA
:1013D7008320A412C0027A32120454D00220A40639
:1013E70030A4FD0214B68000C2A078011238CF786D
:1013F700F01238CFE95403F53978551238CF8938C8
:10140700D2A085383E85393F754000754100754249
:10141700FB75430F7544007545001206717542FF51
:101427007543037544007545001206FE7542E8755D
:1014370043037544007545001206FE853F39853E16
:1014470038E538B400028061C2A078011238CF783D
:10145700F01238CFE95403F53978551238CF893867
:10146700D2A085383E85393F7540007541007542E9
:10147700FB75430F7544007545001206717542FFF1
:101487007543037544007545001206FE7542E875FD
:1014970043037544007545001206FE853F39853EB6
:1014A70038E538B400A20214B30213A0020BA8C097
:1014B700E07401141204DCD0E0C083C082C0E09065
:1014C70000D51204CFD0E0D082D083E54D75F0640B
:1014D70084F9E5F075F00A84C445F0F8895EC0E048
:1014E7007401141204DAD0E0C000A85E1204E1D03F
:1014F70000885EC0E07403141204DAD0E0C000A8CC
:101507005E1204E1D00020A611C0027A3212045400
:10151700D00220A60530A6FD8003021601C2A078DE
:10152700011238CF78D01238CFE95403F5397855FE
:101537001238CF8938D2A085383E85393F754000AB
:101547007541007542FB75430F75440075450012E0
:1015570006717542FF754303754400754500120611
:10156700FE7542E87543037544007545001206FE93
:10157700853F39853E38E538B40060C2A07801124E
:1015870038CF78C01238CFE95403F5397855123877
:10159700CF8938D2A085383E85393F7540007541DF
:1015A700007542FB75430F754400754500120671BF
:1015B7007542FF7543037544007545001206FE75B5
:1015C70042E87543037544007545001206FE853FE2
:1015D70039853E38E538B40008800CE54D24648031
:1015E7000AE54D240A8004E54D2401B4FF06E4F51D
:1015F7004D0214B6F54DE40214B620A523C0027AB5
:1016070032120454D00220A51730A5FDE54DC3942E
:1016170001B40006E4F54D0214B6F54DE40214B624
:1016270030A4030214B630A4FDC0E0740114120400
:10163700DCD0E0C083C082C0E09000E61204CFD0C7
:10164700E0D082D083E54B75F06484F9E5F075F05E
:101657000A84C445F0F8895EC0E07401141204DA04
:10166700D0E0C000A85E1204E1D000885EC0E0743C
:1016770003141204DAD0E0C000A85E1204E1D0001F
:1016870020A611C0027A32120454D00220A60530D7
:10169700A6FD800302177BC2A078011238CF78D04D
:1016A7001238CFE95403F53978551238CF8938D233
:1016B700A085383E85393F7540007541007542FB6E
:1016C70075430F7544007545001206717542FF7525
:1016D70043037544007545001206FE7542E87543DD
:1016E700037544007545001206FE853F39853E386F
:1016F700E538B40060C2A078011238CF78C012383C
:10170700CFE95403F53978551238CF8938D2A085F7
:10171700383E85393F7540007541007542FB75437A
:101727000F7544007545001206717542FF75430336
:101737007544007545001206FE7542E8754303754A
:1017470044007545001206FE853F39853E38E53869
:10175700B40008800CE54B2464800AE54B240A801A
:1017670004E54B2401B4FF06E4F54B02162DF54BB7
:10177700E402162D20A522C0027A32120454D002A8
:1017870020A51630A5FDE54B24FFB40006E4F54B74
:1017970002162DF54BE402162D30A40302162D3048
:1017A700A4FDC0E07401141204DCD0E0C083C08241
:1017B700C0E09001081204CFD0E0D082D083E55179
:1017C70075F06484F9E5F075F00A84C445F0F8898A
:1017D7005EC0E07401141204DAD0E0C000A85E1203
:1017E70004E1D000885EC0E07403141204DAD0E08C
:1017F700C000A85E1204E1D00020A611C0027A3210
:10180700120454D00220A60530A6FD80030218F466
:10181700C2A078011238CF78D01238CFE95403F537
:101827003978551238CF8938D2A085383E85393F67
:101837007540007541007542FB75430F754400758F
:1018470045001206717542FF7543037544007545DF
:10185700001206FE7542E87543037544007545009E
:101867001206FE853F39853E38E538B40060C2A0D0
:1018770078011238CF78C01238CFE95403F5397898
:10188700551238CF8938D2A085383E85393F754003
:10189700007541007542FB75430F7544007545009F
:1018A7001206717542FF75430375440075450012B2
:1018B70006FE7542E8754303754400754500120638
:1018C700FE853F39853E38E538B40008800CE55180
:1018D7002464800AE551240A8004E5512401B4FFF9
:1018E70006E4F5510217A6F551E40217A620A52232
:1018F700C0027A32120454D00220A51630A5FDE5A5
:101907005124FFB40006E4F5510217A6F551E4028D
:1019170017A630A4030217A630A4FDC0E074011473
:101927001204DCD0E0C083C082C0E09000F712044C
:10193700CFD0E0D082D083E54F75F06484F9E5F02D
:1019470075F00A84C445F0F8895EC0E0740114128A
:1019570004DAD0E0C000A85E1204E1D000885EC0BF
:10196700E07403141204DAD0E0C000A85E1204E1A8
:10197700D00020A611C0027A32120454D00220A649
:101987000530A6FD8003021A6DC2A078011238CF78
:1019970078D01238CFE95403F53978551238CF8902
:1019A70038D2A085383E85393F75400075410075AE
:1019B70042FB75430F754400754500120671754269
:1019C700FF7543037544007545001206FE7542E82E
:1019D7007543037544007545001206FE853F39853A
:1019E7003E38E538B40060C2A078011238CF78C01D
:1019F7001238CFE95403F53978551238CF8938D2E0
:101A0700A085383E85393F7540007541007542FB1A
:101A170075430F7544007545001206717542FF75D1
:101A270043037544007545001206FE7542E8754389
:101A3700037544007545001206FE853F39853E381B
:101A4700E538B40008800CE54F2464800AE54F248C
:101A57000A8004E54F2401B4FF06E4F54F02191F7D
:101A6700F54FE402191F20A522C0027A321204544E
:101A7700D00220A51630A5FDE54F24FFB40006E4EB
:101A8700F54F02191FF54FE402191F30A40302197D
:101A97001FC0E07401141204DCD0E0C083C082C010
:101AA700E09001D21204CFD0E0D082D083C0E0749E
:101AB70001141204DAD0E0C083C082C0E090019F15
:101AC7001204CFD0E0D082D08330A403021A980248
:021AD70008CD38
:101AD900754B00754D00754F00755100020792C096
:101AE900E07401141204DCD0E0C083C082C0E0902D
:101AF900027B1204CFD0E0D082D083C0E0740114FD
:101B09001204DAD0E0C083C082C0E09002811204DE
:101B1900CFD0E0D082D08320A412C0027A3212043E
:101B290054D00220A40630A4FD02220520A612C02A
:101B3900027A32120454D00220A60630A6FD0222EF
:101B49000520A512C0027A32120454D00220A5063B
:101B590030A5FD022205C2A078011238CF78F01213
:101B690038CFE95403F53978551238CF8938D2A0DE
:101B790085383E85393F7540007541007542FB75D2
:101B8900430F7544007545001206717542FF754390
:101B9900037544007545001206FE7542E875430356
:101BA9007544007545001206FE853F39853E38E5C6
:101BB90038B400028061C2A078011238CF78F012DF
:101BC90038CFE95403F53978551238CF8938D2A07E
:101BD90085383E85393F7540007541007542FB7572
:101BE900430F7544007545001206717542FF754330
:101BF900037544007545001206FE7542E8754303F6
:101C09007544007545001206FE853F39853E38E565
:101C190038B400A2022205C2A078011238CF78B0E8
:101C29001238CFE95403F53978551238CF8938D2AB
:101C3900A085383E85393F7540007541007542FBE6
:101C490075430F7544007545001206717542FF759D
:101C590043037544007545001206FE7542E8754355
:101C6900037544007545001206FE853F39853E38E7
:101C7900E538B400028061C2A078011238CF78B08B
:101C89001238CFE95403F53978551238CF8938D24B
:101C9900A085383E85393F7540007541007542FB86
:101CA90075430F7544007545001206717542FF753D
:101CB90043037544007545001206FE7542E87543F5
:101CC900037544007545001206FE853F39853E3887
:101CD900E538B400A2020792021AE8C0E0740114C0
:101CE9001204DCD0E0C083C082C0E0900317120464
:101CF900CFD0E0D082D083C0E07401141204DAD0CE
:101D0900E0C083C082C0E09003221204CFD0E0D0AB
:101D190082D083C2A078011238CF78F01238CFE987
:101D29005403F53978551238CF8938D2A085383E11
:101D390085393F7540007541007542FB75430F7544
:101D490044007545001206717542FF7543037544D9
:101D5900007545001206FE7542E875430375440097
:101D69007545001206FE853F39853E38E538B400D1
:101D7900028061C2A078011238CF78F01238CFE919
:101D89005403F53978551238CF8938D2A085383EB1
:101D990085393F7540007541007542FB75430F75E4
:101DA90044007545001206717542FF754303754479
:101DB900007545001206FE7542E875430375440037
:101DC9007545001206FE853F39853E38E538B40071
:101DD900A202220520A412C0027A32120454D002AF
:101DE90020A40630A4FD021F77C2A078011238CFC3
:101DF90078A01238CFE95403F53978551238CF89CC
:101E090038D2A085383E85393F7540007541007547
:101E190042FB75430F754400754500120671754202
:101E2900FF7543037544007545001206FE7542E8C7
:101E39007543037544007545001206FE853F3985D3
:101E49003E38E538B400028061C2A078011238CF6B
:101E590078A01238CFE95403F53978551238CF896B
:101E690038D2A085383E85393F75400075410075E7
:101E790042FB75430F7544007545001206717542A2
:101E8900FF7543037544007545001206FE7542E867
:101E99007543037544007545001206FE853F398573
:101EA9003E38E538B400A2021F77C2A07801123883
:101EB900CF78B01238CFE95403F53978551238CFB5
:101EC9008938D2A085383E85393F75400075410073
:101ED9007542FB75430F754400754500120671750F
:101EE90042FF7543037544007545001206FE7542AD
:101EF900E87543037544007545001206FE853F39B0
:101F0900853E38E538B400028061C2A078011238F4
:101F1900CF78B01238CFE95403F53978551238CF54
:101F29008938D2A085383E85393F75400075410012
:101F39007542FB75430F75440075450012067175AE
:101F490042FF7543037544007545001206FE75424C
:101F5900E87543037544007545001206FE853F394F
:101F6900853E38E538B400A2020792021CE4E54B2D
:101F7900B400028018E54DB400028011E54FB400A9
:101F890002800AE551B400028003022095C0E07482
:101F990001141204DCD0E0C083C082C0E090037752
:101FA9001204CFD0E0D082D083C0E07401141204AF
:101FB900DAD0E0C083C082C0E09003861204CFD09B
:101FC900E0D082D083755500C2A078011238CF784D
:101FD900B01238CFE95403F53978551238CF89381A
:101FE900D2A085383E85393F75400075410075425C
:101FF900FB75430F7544007545001206717542FF64
:102009007543037544007545001206FE7542E8756F
:1020190043037544007545001206FE853F39853E28
:1020290038E538B400028061C2A078011238CF784F
:10203900B01238CFE95403F53978551238CF8938B9
:10204900D2A085383E85393F7540007541007542FB
:10205900FB75430F7544007545001206717542FF03
:102069007543037544007545001206FE7542E8750F
:1020790043037544007545001206FE853F39853EC8
:1020890038E538B400A2021F96021AE8C0E07401CC
:10209900141204DAD0E0C083C082C0E090033D127C
:1020A90004CFD0E0D082D083C2A078011238CF7893
:1020B900B01238CFE95403F53978551238CF893839
:1020C900D2A085383E85393F75400075410075427B
:1020D900FB75430F7544007545001206717542FF83
:1020E9007543037544007545001206FE7542E8758F
:1020F90043037544007545001206FE853F39853E48
:1021090038E538B400028061C2A078011238CF786E
:10211900B01238CFE95403F53978551238CF8938D8
:10212900D2A085383E85393F75400075410075421A
:10213900FB75430F7544007545001206717542FF22
:102149007543037544007545001206FE7542E8752E
:1021590043037544007545001206FE853F39853EE7
:1021690038E538B400A2022095753C007401F55594
:1021790075630175643CD28C753E01753F007540ED
:10218900007541001204F7123ABD753E01753F0012
:102199007540007541001204F7123ABD854B3E7532
:1021A9003F007540007541001204F7123ABD854D94
:1021B9003E753F007540007541001204F7123ABDA3
:1021C900854F3E753F007540007541001204F712B6
:1021D9003ABD85513E753F007540007541001204B6
:1021E900F7123ABD753E00753F0075400075410014
:1021F9001204F7123ABD1240A102421CC0E0740158
:10220900141204DCD0E0C083C082C0E090028D12B9
:1022190004CFD0E0D082D083C0E07401141204DA74
:10222900D0E0C083C082C0E090029E1204CFD0E00B
:10223900D082D08320A612C0027A32120454D0026E
:1022490020A60630A6FD02232B20A512C0027A3251
:10225900120454D00220A50630A5FD02252EC2A0E5
:1022690078011238CF78B01238CFE95403F53978AC
:10227900551238CF8938D2A085383E85393F754007
:10228900007541007542FB75430F754400754500A3
:102299001206717542FF75430375440075450012B6
:1022A90006FE7542E875430375440075450012063C
:1022B900FE853F39853E38E538B400028061C2A009
:1022C90078011238CF78B01238CFE95403F539784C
:1022D900551238CF8938D2A085383E85393F7540A7
:1022E900007541007542FB75430F75440075450043
:1022F9001206717542FF7543037544007545001256
:1023090006FE7542E87543037544007545001206DB
:10231900FE853F39853E38E538B400A20222050220
:102329002205C0E07401141204DCD0E0C083C0822D
:10233900C0E090034E1204CFD0E0D082D083C0E039
:102349007401141204DAD0E0C083C082C0E09003A3
:102359003D1204CFD0E0D082D083C0E074101412B3
:1023690004DCD0E0C083C082C0E09003CB1204CF6C
:10237900D0E0D082D08320A512C0027A3212045450
:10238900D00220A50630A5FD02252E20A412C002E8
:102399007A32120454D00220A40630A4FD02273157
:1023A900C2A078011238CF78F01238CFE95403F57A
:1023B9003978551238CF8938D2A085383E85393FCA
:1023C9007540007541007542FB75430F75440075F2
:1023D90045001206717542FF754303754400754542
:1023E900001206FE7542E875430375440075450001
:1023F9001206FE853F39853E38E538B40002806112
:10240900C2A078011238CF78F01238CFE95403F519
:102419003978551238CF8938D2A085383E85393F69
:102429007540007541007542FB75430F7544007591
:1024390045001206717542FF7543037544007545E1
:10244900001206FE7542E8754303754400754500A0
:102459001206FE853F39853E38E538B400A20222CE
:1024690005C2A078011238CF78B01238CFE95403E9
:10247900F53978551238CF8938D2A085383E853953
:102489003F7540007541007542FB75430F75440067
:102499007545001206717542FF7543037544007551
:1024A90045001206FE7542E87543037544007545FB
:1024B900001206FE853F39853E38E538B4000280B2
:1024C90061C2A078011238CF78B01238CFE954032D
:1024D900F53978551238CF8938D2A085383E8539F3
:1024E9003F7540007541007542FB75430F75440007
:1024F9007545001206717542FF75430375440075F1
:1025090045001206FE7542E875430375440075459A
:10251900001206FE853F39853E38E538B400A2022F
:10252900232B02232BC0E07401141204DCD0E0C079
:1025390083C082C0E090035F1204CFD0E0D082D084
:1025490083C0E07401141204DAD0E0C083C082C0F1
:10255900E090033D1204CFD0E0D082D083C0E07474
:1025690010141204DCD0E0C083C082C0E09003CB19
:102579001204CFD0E0D082D08320A612C0027A32D2
:10258900120454D00220A60630A6FD02232B20A453
:1025990012C0027A32120454D00220A40630A4FDDB
:1025A900023002C2A078011238CF78F01238CFE990
:1025B9005403F53978551238CF8938D2A085383E79
:1025C90085393F7540007541007542FB75430F75AC
:1025D90044007545001206717542FF754303754441
:1025E900007545001206FE7542E8754303754400FF
:1025F9007545001206FE853F39853E38E538B40039
:10260900028061C2A078011238CF78F01238CFE980
:102619005403F53978551238CF8938D2A085383E18
:1026290085393F7540007541007542FB75430F754B
:1026390044007545001206717542FF7543037544E0
:10264900007545001206FE7542E87543037544009E
:102659007545001206FE853F39853E38E538B400D8
:10266900A2022205C2A078011238CF78B01238CF61
:10267900E95403F53978551238CF8938D2A085380D
:102689003E85393F7540007541007542FB75430F22
:102699007544007545001206717542FF754303754F
:1026A90044007545001206FE7542E87543037544FA
:1026B900007545001206FE853F39853E38E538B478
:1026C90000028061C2A078011238CF78B01238CFE9
:1026D900E95403F53978551238CF8938D2A08538AD
:1026E9003E85393F7540007541007542FB75430FC2
:1026F9007544007545001206717542FF75430375EF
:1027090044007545001206FE7542E8754303754499
:10271900007545001206FE853F39853E38E538B417
:1027290000A202252E02252EC0E07401141204DC39
:10273900D0E0C083C082C0E09002D81204CFD0E0BC
:10274900D082D083C0E07401141204DAD0E0C083CF
:10275900C082C0E09002DE1204CFD0E0D082D083E4
:1027690020A612C0027A32120454D00220A60630E2
:10277900A6FD02291820A512C0027A32120454D0EB
:102789000220A50630A5FD022AFFC2A07801123851
:10279900CF78F01238CFE95403F53978551238CF8C
:1027A9008938D2A085383E85393F7540007541008A
:1027B9007542FB75430F7544007545001206717526
:1027C90042FF7543037544007545001206FE7542C4
:1027D900E87543037544007545001206FE853F39C7
:1027E900853E38E538B400028061C2A0780112380C
:1027F900CF78F01238CFE95403F53978551238CF2C
:102809008938D2A085383E85393F75400075410029
:102819007542FB75430F75440075450012067175C5
:1028290042FF7543037544007545001206FE754263
:10283900E87543037544007545001206FE853F3966
:10284900853E38E538B400A2022205C2A0780112FB
:1028590038CF78B01238CFE95403F53978551238A2
:10286900CF8938D2A085383E85393F7540007541FA
:10287900007542FB75430F754400754500120671DA
:102889007542FF7543037544007545001206FE75D0
:1028990042E87543037544007545001206FE853FFD
:1028A90039853E38E538B400028061C2A07801124A
:1028B90038CF78B01238CFE95403F5397855123842
:1028C900CF8938D2A085383E85393F75400075419A
:1028D900007542FB75430F7544007545001206717A
:1028E9007542FF7543037544007545001206FE7570
:1028F90042E87543037544007545001206FE853F9D
:1029090039853E38E538B400A20227310227312043
:10291900A512C0027A32120454D00220A50630A5AD
:10292900FD022AFF20A412C0027A32120454D002F6
:1029390020A40630A4FD022DEEC2A078011238CFE2
:1029490078F01238CFE95403F53978551238CF8920
:1029590038D2A085383E85393F75400075410075EC
:1029690042FB75430F7544007545001206717542A7
:10297900FF7543037544007545001206FE7542E86C
:102989007543037544007545001206FE853F398578
:102999003E38E538B400028061C2A078011238CF10
:1029A90078F01238CFE95403F53978551238CF89C0
:1029B90038D2A085383E85393F754000754100758C
:1029C90042FB75430F754400754500120671754247
:1029D900FF7543037544007545001206FE7542E80C
:1029E9007543037544007545001206FE853F398518
:1029F9003E38E538B400A2022205C0E07410141272
:102A090004DCD0E0C083C082C0E09003CB1204CFC5
:102A1900D0E0D082D083C0E07410141204DAD0E080
:102A2900C083C082C0E090033D1204CFD0E0D082C1
:102A3900D083C2A078011238CF78B01238CFE954C8
:102A490003F53978551238CF8938D2A085383E85B3
:102A5900393F7540007541007542FB75430F754458
:102A6900007545001206717542FF754303754400F0
:102A79007545001206FE7542E875430375440075F5
:102A890045001206FE853F39853E38E538B4000217
:102A99008061C2A078011238CF78B01238CFE954DA
:102AA90003F53978551238CF8938D2A085383E8553
:102AB900393F7540007541007542FB75430F7544F8
:102AC900007545001206717542FF75430375440090
:102AD9007545001206FE7542E87543037544007595
:102AE90045001206FE853F39853E38E538B400A217
:102AF90002291802291820A612C0027A3212045497
:102B0900D00220A60630A6FD02291820A412C00270
:102B19007A32120454D00220A40630A4FD022CE615
:102B2900C2A078011238CF78F01238CFE95403F5F2
:102B39003978551238CF8938D2A085383E85393F42
:102B49007540007541007542FB75430F754400756A
:102B590045001206717542FF7543037544007545BA
:102B6900001206FE7542E875430375440075450079
:102B79001206FE853F39853E38E538B4000280618A
:102B8900C2A078011238CF78F01238CFE95403F592
:102B99003978551238CF8938D2A085383E85393FE2
:102BA9007540007541007542FB75430F754400750A
:102BB90045001206717542FF75430375440075455A
:102BC900001206FE7542E875430375440075450019
:102BD9001206FE853F39853E38E538B400A2022247
:102BE90005C0E07410141204DAD0E0C083C082C0BA
:102BF900E09003CB1204CFD0E0D082D083C0E07440
:102C090010141204DCD0E0C083C082C0E090033D00
:102C19001204CFD0E0D082D083C2A078011238CF7D
:102C290078B01238CFE95403F53978551238CF897D
:102C390038D2A085383E85393F7540007541007509
:102C490042FB75430F7544007545001206717542C4
:102C5900FF7543037544007545001206FE7542E889
:102C69007543037544007545001206FE853F398595
:102C79003E38E538B400028061C2A078011238CF2D
:102C890078B01238CFE95403F53978551238CF891D
:102C990038D2A085383E85393F75400075410075A9
:102CA90042FB75430F754400754500120671754264
:102CB900FF7543037544007545001206FE7542E829
:102CC9007543037544007545001206FE853F398535
:102CD9003E38E538B400A2022AFF022AFFC0E07498
:102CE90001141204DCD0E0C083C082C0E09002DE8F
:102CF9001204CFD0E0D082D083C0E0740114120452
:102D0900DAD0E0C083C082C0E09003051204CFD0BE
:102D1900E0D082D083C2A078011238CF78B01238BF
:102D2900CFE95403F53978551238CF8938D2A085BF
:102D3900383E85393F7540007541007542FB754342
:102D49000F7544007545001206717542FF754303FE
:102D59007544007545001206FE7542E87543037512
:102D690044007545001206FE853F39853E38E53831
:102D7900B400028061C2A078011238CF78B012384D
:102D8900CFE95403F53978551238CF8938D2A0855F
:102D9900383E85393F7540007541007542FB7543E2
:102DA9000F7544007545001206717542FF7543039E
:102DB9007544007545001206FE7542E875430375B2
:102DC90044007545001206FE853F39853E38E538D1
:102DD900B400A2022CE6754B78754D96754F1475A3
:102DE90051E6021CE4C0E07401141204DCD0E0C016
:102DF90083C082C0E09002D81204CFD0E0D082D044
:102E090083C0E07401141204DAD0E0C083C082C028
:102E1900E09003051204CFD0E0D082D083C2A0781D
:102E2900011238CF78B01238CFE95403F539785503
:102E39001238CF8938D2A085383E85393F75400090
:102E49007541007542FB75430F75440075450012C5
:102E590006717542FF7543037544007545001206F6
:102E6900FE7542E87543037544007545001206FE78
:102E7900853F39853E38E538B400028061C2A078C3
:102E8900011238CF78B01238CFE95403F5397855A3
:102E99001238CF8938D2A085383E85393F75400030
:102EA9007541007542FB75430F7544007545001265
:102EB90006717542FF754303754400754500120696
:102EC900FE7542E87543037544007545001206FE18
:102ED900853F39853E38E538B400A2022DEE754BA1
:102EE90078754DA0754F0F7551F5021CE4C0E0745B
:102EF90001141204DCD0E0C083C082C0E09002EF6C
:102F09001204CFD0E0D082D083C0E074011412043F
:102F1900DAD0E0C083C082C0E09002F91204CFD0B9
:102F2900E0D082D083C2A078011238CF78B01238AD
:102F3900CFE95403F53978551238CF8938D2A085AD
:102F4900383E85393F7540007541007542FB754330
:102F59000F7544007545001206717542FF754303EC
:102F69007544007545001206FE7542E87543037500
:102F790044007545001206FE853F39853E38E5381F
:102F8900B400028061C2A078011238CF78B012383B
:102F9900CFE95403F53978551238CF8938D2A0854D
:102FA900383E85393F7540007541007542FB7543D0
:102FB9000F7544007545001206717542FF7543038C
:102FC9007544007545001206FE7542E875430375A0
:102FD90044007545001206FE853F39853E38E538BF
:102FE900B400A2022EF6741EF54B74C8F54D741484
:102FF900F54F74F5F5510208CDC0E07401141204BF
:10300900DCD0E0C083C082C0E090029E1204CFD021
:10301900E0D082D083C0E07401141204DAD0E0C099
:1030290083C082C0E090033D1204CFD0E0D082D0AB
:1030390083C2A078011238CF78B01238CFE954038F
:10304900F53978551238CF8938D2A085383E853977
:103059003F7540007541007542FB75430F7544008B
:103069007545001206717542FF7543037544007575
:1030790045001206FE7542E875430375440075451F
:10308900001206FE853F39853E38E538B4000280D6
:1030990061C2A078011238CF78B01238CFE9540351
:1030A900F53978551238CF8938D2A085383E853917
:1030B9003F7540007541007542FB75430F7544002B
:1030C9007545001206717542FF7543037544007515
:1030D90045001206FE7542E87543037544007545BF
:1030E900001206FE853F39853E38E538B400A20254
:1030F900300220A412C0027A32120454D00220A451
:103109000630A4FD0231D98000C2A078011238CF5F
:1031190078F01238CFE95403F53978551238CF8948
:1031290038D2A085383E85393F7540007541007514
:1031390042FB75430F7544007545001206717542CF
:10314900FF7543037544007545001206FE7542E894
:103159007543037544007545001206FE853F3985A0
:103169003E38E538B400028061C2A078011238CF38
:1031790078F01238CFE95403F53978551238CF89E8
:1031890038D2A085383E85393F75400075410075B4
:1031990042FB75430F75440075450012067175426F
:1031A900FF7543037544007545001206FE7542E834
:1031B9007543037544007545001206FE853F398540
:1031C9003E38E538B400A20231D6023002022205A7
:1031D900C0E07401141204DCD0E0C083C082C0E0F6
:1031E9009002AC1204CFD0E0D082D083C2A0780183
:1031F9001238CF78B01238CFE95403F5397855121F
:1032090038CF8938D2A085383E85393F7540007559
:1032190041007542FB75430F754400754500120660
:10322900717542FF7543037544007545001206FE2A
:103239007542E87543037544007545001206FE851D
:103249003F39853E38E538B400028061C2A0780173
:103259001238CF78B01238CFE95403F539785512BE
:1032690038CF8938D2A085383E85393F75400075F9
:1032790041007542FB75430F754400754500120600
:10328900717542FF7543037544007545001206FECA
:103299007542E87543037544007545001206FE85BD
:1032A9003F39853E38E538B400A20231D9E54D757C
:1032B900F06484F9E5F075F00A84C445F0F8895E94
:1032C900C0E07401141204DAD0E0C000A85E120450
:1032D900E1D000885EC0E07403141204DAD0E0C0C3
:1032E90000A85E1204E1D00020A622C0027A3212A0
:1032F9000454D00220A61630A6FDE54D2401B4FFE2
:1033090006E4F54D0231D9F54DE40231D920A52263
:10331900C0027A32120454D00220A51630A5FDE568
:103329004D24FFB40006E4F54D0231D9F54DE40210
:1033390031D930A4030231D930A4FDC0E07401149D
:103349001204DCD0E0C083C082C0E09002B912044C
:10335900CFD0E0D082D083E54B75F06484F9E5F0F5
:1033690075F00A84C445F0F8895EC0E0740114124E
:1033790004DAD0E0C000A85E1204E1D000885EC083
:10338900E07403141204DAD0E0C000A85E1204E16C
:10339900D000C2A078011238CF78B01238CFE954E2
:1033A90003F53978551238CF8938D2A085383E854A
:1033B900393F7540007541007542FB75430F7544EF
:1033C900007545001206717542FF75430375440087
:1033D9007545001206FE7542E8754303754400758C
:1033E90045001206FE853F39853E38E538B40002AE
:1033F9008061C2A078011238CF78B01238CFE95471
:1034090003F53978551238CF8938D2A085383E85E9
:10341900393F7540007541007542FB75430F75448E
:10342900007545001206717542FF75430375440026
:103439007545001206FE7542E8754303754400752B
:1034490045001206FE853F39853E38E538B400A2AD
:1034590002334120A622C0027A32120454D002203B
:10346900A61630A6FDE54B2401B4FF06E4F54B0290
:103479003341F54BE402334120A522C0027A3212CE
:103489000454D00220A51630A5FDE54B24FFB40055
:1034990006E4F54B023341F54BE402334130A40312
:1034A90002334130A4FDC0E07401141204DCD0E001
:1034B900C083C082C0E09002CA1204CFD0E0D0829B
:1034C900D083E55175F06484F9E5F075F00A84C498
:1034D90045F0F8895EC0E07401141204DAD0E0C046
:1034E90000A85E1204E1D000885EC0E074031412E3
:1034F90004DAD0E0C000A85E1204E1D000C2A078CE
:10350900011238CF78B01238CFE95403F53978551C
:103519001238CF8938D2A085383E85393F754000A9
:103529007541007542FB75430F75440075450012DE
:1035390006717542FF75430375440075450012060F
:10354900FE7542E87543037544007545001206FE91
:10355900853F39853E38E538B400028061C2A078DC
:10356900011238CF78B01238CFE95403F5397855BC
:103579001238CF8938D2A085383E85393F75400049
:103589007541007542FB75430F754400754500127E
:1035990006717542FF7543037544007545001206AF
:1035A900FE7542E87543037544007545001206FE31
:1035B900853F39853E38E538B400A20234AC20A6EF
:1035C90022C0027A32120454D00220A61630A6FD77
:1035D900E5512401B4FF06E4F5510234ACF551E498
:1035E9000234AC20A522C0027A32120454D002203F
:1035F900A51630A5FDE55124FFB40006E4F55102F6
:1036090034ACF551E40234AC30A4030234AC30A438
:10361900FDC0E07401141204DCD0E0C083C082C094
:10362900E09002C11204CFD0E0D082D083E54F757B
:10363900F06484F9E5F075F00A84C445F0F8895E10
:10364900C0E07401141204DAD0E0C000A85E1204CC
:10365900E1D000885EC0E07403141204DAD0E0C03F
:1036690000A85E1204E1D000C2A078011238CF7818
:10367900B01238CFE95403F53978551238CF893863
:10368900D2A085383E85393F7540007541007542A5
:10369900FB75430F7544007545001206717542FFAD
:1036A9007543037544007545001206FE7542E875B9
:1036B90043037544007545001206FE853F39853E72
:1036C90038E538B400028061C2A078011238CF7899
:1036D900B01238CFE95403F53978551238CF893803
:1036E900D2A085383E85393F754000754100754245
:1036F900FB75430F7544007545001206717542FF4D
:103709007543037544007545001206FE7542E87558
:1037190043037544007545001206FE853F39853E11
:1037290038E538B400A202361720A622C0027A3240
:10373900120454D00220A61630A6FDE54F2401B488
:10374900FF06E4F54F023617F54FE402361720A5B8
:1037590022C0027A32120454D00220A51630A5FDE7
:10376900E54F24FFB40006E4F54F023617F54FE4A0
:1037790002361730A403023617C0E074011412048C
:10378900DCD0E0C083C082C0E090036D1204CFD0CA
:10379900E0D082D083C0E07401141204DAD0E0C012
:1037A90083C082C0E090033D1204CFD0E0D082D024
:1037B9008330A4028003023886C2A078011238CF70
:1037C90078B01238CFE95403F53978551238CF89D2
:1037D90038D2A085383E85393F754000754100755E
:1037E90042FB75430F754400754500120671754219
:1037F900FF7543037544007545001206FE7542E8DE
:103809007543037544007545001206FE853F3985E9
:103819003E38E538B400028061C2A078011238CF81
:1038290078B01238CFE95403F53978551238CF8971
:1038390038D2A085383E85393F75400075410075FD
:1038490042FB75430F7544007545001206717542B8
:10385900FF7543037544007545001206FE7542E87D
:103869007543037544007545001206FE853F398589
:103879003E38E538B400A2023782023782021CE4DE
:10388900C0E0E8C4540F44301238B7E8540F44304C
:103899001238B7D0E02279DE78A6D8FED9FA438764
:1038A90080759852759B00759AF4759B1E22309904
:1038B900FDC299F59922E49360061238B7A380F600
:1038C90022D2A2C2A322C0E079007A08E833F89292
:1038D900A1D2A3A2A2E933F9C2A3DAF0D0E02279F6
:1038E900DE78A6D8FED9FA22C0E07407141204DAE9
:1038F900D0E0C000A84A1204E1D000C000A84912D3
:1039090004E1D000C000A8481204E1D000C000A81A
:10391900471204E1D000C000A8461204E1D000C05B
:10392900E07407141204DAD0E0E54A54F0C46003E5
:103939000239D6C0E07420120499D0E0E54A540F48
:1039490060030239D6C0E07420120499D0E0E54939
:1039590054F0C460030239D6C0E07420120499D02F
:10396900E0E549540F60030239D6C0E0742012041F
:1039790099D0E0E54854F0C460030239D6C0E07438
:1039890020120499D0E0E548540F60030239D6C0EB
:10399900E07420120499D0E0E54754F0C4600302B2
:1039A90039D6C0E07420120499D0E0E547540F607D
:1039B900030239D6C0E07420120499D0E0E54654D8
:1039C900F0C47009C0E07420120499D0E022C0E06C
:1039D9007407141204DCD0E0C000A84A1204E1D034
:1039E90000C000A8491204E1D000C000A848120490
:1039F900E1D000C000A8471204E1D000C000A846E9
:103A09001204E1D000C0E07407141204DCD0E0E530
:103A19004A54F0C46003023ABCC0E074201204990D
:103A2900D0E0E54A540F6003023ABCC0E0742012AA
:103A39000499D0E0E54954F0C46003023ABCC0E0FF
:103A49007420120499D0E0E549540F6003023ABC8E
:103A5900C0E07420120499D0E0E54854F0C4600332
:103A6900023ABCC0E07420120499D0E0E548540F32
:103A79006003023ABCC0E07420120499D0E0E54723
:103A890054F0C46003023ABCC0E07420120499D017
:103A9900E0E547540F6003023ABCC0E07420120409
:103AA90099D0E0E54654F0C47009C0E074201204CE
:103AB90099D0E022C000A84A123889D000C000A8D5
:103AC90049123889D000C000A848123889D000C0EE
:103AD90000A847123889D000C000A846123889D0FA
:103AE90000740D1238B7740A1238B722C2A07801CF
:103AF9001238CF78801238CFE95403F5337855124C
:103B090038CF8932D2A085323E85333F7540007562
:103B190041007542FD75430F754400754500120655
:103B2900717542FF7543037544007545001206FE21
:103B390075420A7543007544007545001206FE7505
:103B490042117543017544007545001205DD853E36
:103B590032853F3322C2A078011238CF78901238CB
:103B6900CFE95403F53978551238CF8938D2A08571
:103B7900383E85393F7540007541007542FD7543F2
:103B89000F7544007545001206717542FF754303B0
:103B99007544007545001206FE853E38853F398516
:103BA900383E85393F754000754100754287754338
:103BB900097544007545001206717542CD754300BB
:103BC9007544007545001206FE754264754300751B
:103BD90044007545001206FE85324285334375441B
:103BE900007545001205BC853E36853F3722853470
:103BF9003E85353F7540007541001204F785463A08
:103C090085473B22300217C202123AF5123B5E1277
:103C19003C28123BF71238F1124081123ABD22C0FA
:103C2900E0C385683E85693F75400075410085366A
:103C3900428537437544007545001205BC853E68C9
:103C4900853F691567E567701E75670575420575D6
:103C590043007544007545001206FE853E34853FD4
:0A3C690035756800756900D0E0228F
:103C7300C2A078011238CF78B01238CFE95403F5D7
:103C83003978551238CF8938D2A085383E85393FE7
:103C93007540007541007542FB75430F754400750F
:103CA30045001206717542FF75430375440075455F
:103CB300001206FE7542E87543037544007545001E
:103CC3001206FE853F39853E38E538B40002801F71
:103CD300C0E07401141204DCD0E0C083C082C0E0F1
:103CE3009002381204CFD0E0D082D083755505E519
:103CF30055B40041C0E07401141204DCD0E0C08369
:103D0300C082C0E09003CD1204CFD0E0D082D08334
:103D1300C0E07401141204DAD0E0C083C082C0E0B2
:103D230090019F1204CFD0E0D082D08375F50002BA
:103D3300078402421CB401028003023DF475F5FFBF
:103D4300C0E07401141204DCD0E0C083C082C0E080
:103D530090003C1204CFD0E0D082D083C0E0740541
:103D6300141204DAD0E0C083C082C0E09000911244
:103D730004CFD0E0D082D083E53C120774E9C0E0E1
:103D83007401141204DAD0E0C000F81204E1D00088
:103D9300E8C0E07403141204DAD0E0C000F812049F
:103DA300E1D000E53CB43C2E7432C395345002801C
:103DB30025755500C0E07401141204DCD0E0C08303
:103DC300C082C0E09002381204CFD0E0D082D0830A
:103DD3001238E802421C755800E54DC39534500E65
:103DE300753C0075550275630175643CD28C0242C3
:103DF3001CB402028003023E7A75F533C0E07401FD
:103E0300141204DCD0E0C083C082C0E090004D12E5
:103E130004CFD0E0D082D083C0E07405141204DA5A
:103E2300D0E0C083C082C0E09000911204CFD0E004
:103E3300D082D083E53C120774E9C0E07401141208
:103E430004DAD0E0C000F81204E1D000E8C0E07466
:103E530003141204DAD0E0C000F81204E1D000E544
:103E63004BC3953C500E755503756301756428D299
:103E73008C753C0002421CB403028003023F0075B0
:103E8300F5FFC0E07401141204DCD0E0C083C082EB
:103E9300C0E090005E1204CFD0E0D082D083C0E0B7
:103EA3007405141204DAD0E0C083C082C0E090002D
:103EB300911204CFD0E0D082D083E53C120774E99D
:103EC300C0E07401141204DAD0E0C000F81204E177
:103ED300D000E8C0E07403141204DAD0E0C000F8A4
:103EE3001204E1D000E551C39534500E753C0075C2
:103EF3005504756301756428D28C02421CB4040214
:103F03008003023F8A75F533C0E07401141204DCA8
:103F1300D0E0C083C082C0E090006F1204CFD0E035
:103F2300D082D083C0E07405141204DAD0E0C083D9
:103F3300C082C0E09000911204CFD0E0D082D08341
:103F4300E53C120774E9C0E07401141204DAD0E00E
:103F5300C000F81204E1D000E8C0E07403141204B6
:103F6300DAD0E0C000F81204E1D000E54FC3D20379
:103F7300953C5010C2037555057563017564C8D22D
:103F83008C753C0002421CB40502800302400E758E
:103F9300F500C0E07401141204DCD0E0C083C082D9
:103FA300C0E09000801204CFD0E0D082D083C0E084
:103FB3007405141204DAD0E0C083C082C0E090001C
:103FC300911204CFD0E0D082D083E53C120774E98C
:103FD300C0E07401141204DAD0E0C000F81204E166
:103FE300D000E8C0E07403141204DAD0E0C000F893
:103FF3001204E1D000E534C39559500C753C0075AB
:1040030055061203E712409B02421CE563B400F815
:1040130075550002421CA2E09283A2E19285A2E2BE
:104023009287A2E392C4A2E492C5A2E59284A2E697
:104033009286A2E792A722D281D280D282E55DB492
:10404300000BE55A124019C281055D8020B4010BB3
:10405300E55B124019C280055D8012B4020CE55C79
:10406300124019C282755D008003755D00227400E1
:10407300F55D7411F53A7401F53B1240812290030A
:10408300DDE53A540F93F55AE53AC4540F93F55BC3
:10409300E53B540F93F55C22755F00D20422C20402
:1040A30022E55FB4000F755AF0755BFE755CC6754B
:1040B3005F01024154B4010F755AF0755BF6755CEC
:1040C300CE755F02024154B4020F755AF0755BF668
:1040D300755CD6755F03024154B4030F755AF075CE
:1040E3005BF6755CE6755F04024154B4040F755AC0
:1040F300F0755BF6755CC7755F05024154B4050F37
:10410300755AF0755BF7755CC6755F06024154B46A
:10411300060F755AF1755BF6755CC6755F0702414C
:1041230054B4070F755AF2755BF6755CC6755F0874
:10413300024154B4080F755AF4755BF6755CC67585
:104143005F09024154755AF8755BF6755CC6755F75
:104153000022E58954F04401F589758CEA758AE8F3
:1041630075F4EA75F2E8D2A922B2B732E589540FA1
:104173004410F589E59154004480F591758D0075DF
:104183008B0075F50075F300D28E3275C80075CDBE
:10419300A975CC9A75CBA975CA9AE4F530F531F5B2
:1041A3003DD2ADD2CA22C2CFC0E0C0D00530E53087
:1041B30070020531E530B46420E531B4001BD2024E
:1041C3003004031240A4E4F530F531053DE53DB478
:1041D3000A07753D00D201053C12403AD0D0D0E029
:1041E3003275817F12407112409B12415512416F0B
:1041F30012418E1203F675670575680075690075BF
:10420300550075593C75E60075E700758E11D2AF00
:1042130012389F1238CA1204A3123C0D1203FF0274
:044223003C7380F573
:00000001FF
