:03000000021D15C9
:0100030032CA
:03000B00021AA234
:0100130032BA
:01001B0032B2
:0100230032AA
:03002B00021ADDD9
:03003B00021B2A7B
:10003E0020202020202020202050726568656174C9
:10004E0000202020202020202020536F616B2020B4
:10005E00200020202020202020202052616D703290
:10006E00706B002020202020202020205265666CFE
:10007E006F772000202020202020202020436F6F2B
:10008E006C696E6700730057656C636F6D65212038
:10009E00202020202020200053656C656374206F83
:1000AE007074696F6E202020005072657365742025
:1000BE0050726F66696C65202000437573746F6DA6
:1000CE002050726F66696C65202000536F616B2043
:1000DE0054656D702020202020202000536F616B0E
:1000EE002054696D65202020202020200052656656
:1000FE006C6F772054696D6520202020200052659A
:10010E00666C6F772054656D702020202020005380
:10011E00414333303520736F6C64657220202000AC
:10012E0050622D736F6C64657220706173746520FC
:10013E00005368686821204E6F2070697A7A6120BA
:10014E002000616C6C6F77656420696E2068657243
:10015E00652E0070726F66696C65206C6F616465E8
:10016E006420200053797374656D20526561647943
:10017E0020202020005072657373205374617274B6
:10018E0020202020200078782020202020202020D1
:10019E002020202020200020202020202020202071
:1001AE00202020202020200041542050524553452D
:1001BE0054204D454E552020004154204355535454
:1001CE004F4D204D454E5520200041726520796FD0
:1001DE007520737572653F202020004572726F7214
:1001EE002C2070726F66696C657320006E6F7420C0
:1001FE006C6F616465642020202020200050726F97
:10020E00636573732061626F727465642000576159
:10021E00697420746F20636F6F6C2020202000495A
:10022E0053522069732072756E6E696E67202000BE
:10023E00537461746520300053746174652031000D
:0A024E00C0F9A4B0999282F88090E4
:10025800C00078B10000D8FCD00022C000C00179ED
:100268002D78A6D8FED9FADAF6D001D00022D2939A
:10027800120258C29322A2E792B6A2E692B4A2E56D
:1002880092B3A2E492B2120276120258A2E392B694
:10029800A2E292B4A2E192B3A2E092B21202762252
:1002A800D29102027EC29102027EC293C29274333C
:1002B8001202AD74331202AD74321202AD742812F8
:1002C80002AD740C1202AD74011202ADC0027A02C2
:1002D800120263D00222E49360061202A8A380F6F9
:1002E80022444044800202ADC0E0E8C4540F4430C8
:0E02F8001202A8E8540F44301202A8D0E022EF
:10030600C0E0C0D0C000C001C002E4F543F544F52A
:1003160045F546F5477A20E53EA2E77904783BE6BF
:1003260033F608D9FA79057843E636D4F608D9F9CA
:10033600DAE5D002D001D000D0D0D0E022C0E0C0B3
:10034600D0C000C001C002E4F543F544F545F546CA
:10035600F5477A20E53EA2E77904783BE633F608CE
:10036600D9FA79057843C0D0E6243320E70224D0B1
:1003760020E30224FDD0D033F608D9EADAD6D0023B
:10038600D001D000D0D0D0E022C0E0C0D0C000C0A4
:1003960001C0027A207905C37847E613C0D030E75A
:1003A6000224D030E30224FDF618D0D0D9EC79042B
:1003B600783EE613F618D9FADADBD002D001D0007F
:1003C600D0D0D0E022C0E0C0D0E53B253FF53BE5EC
:1003D6003C3540F53CE53D3541F53DE53E3542F5DC
:1003E6003ED0D0D0E022C0E0C0D0C3E53B953FF57B
:1003F6003BE53C9540F53CE53D9541F53DE53E95B3
:1004060042F53ED0D0D0E022C0E0C0D0C3E53B9557
:100416003FE53C9540E53D9541E53E95429200D04D
:10042600D0D0E022C0E0C0D0C3E53F953BE5409583
:100436003CE541953DE542953E9200D0D0D0E02284
:10044600C0E0C0D0C200C3E53F953B7014E54095BF
:100456003C700EE541953D7008E542953E7002D22E
:1004660000D0D0D0E02212044620000302042A2243
:1004760012044620000302040E22C0E0C0F0C0D0E1
:10048600C000C001C002C003E53B853FF0A4F8A947
:10049600F0E53C853FF0A429F9E435F0FAE53B8523
:1004A60040F0A429F9E5F03AFAE433FBE53D853F4F
:1004B600F0A42AFAE5F03BFBE53C8540F0A42AFAD5
:1004C600E5F03BFBE53B8541F0A42AFAE5F03BFB72
:1004D600E53E853FF0A42BFBE53D8540F0A42BFBD4
:1004E600E53C8541F0A42BFBE53B8542F0A42BFBC4
:1004F6008B3E8A3D893C883BD003D002D001D00098
:10050600D0D0D0F0D0E022C0E0C0D0C000C001C042
:1005160002C003C0047C20E4F8F9FAFBC3E53B33D0
:10052600F53BE53C33F53CE53D33F53DE53E33F53E
:100536003EE833F8E933F9EA33FAEB33FBC3E895DF
:100546003FE99540EA9541EB95424013E8953FF81F
:10055600E99540F9EA9541FAEB9542FB433B01DC0C
:10056600BBD004D003D002D001D000D0D0D0E0223E
:100576007A2D79FA78A6D8FED9FADAF62275F064D9
:1005860084F9E5F075F00A84C445F0F82275480050
:10059600754A00754C00754E008000C0E074011469
:1005A6001202EBD0E0C083C082C0E0900095120238
:1005B600DED0E0D082D083C0E07401141202E9D00C
:1005C600E0C083C082C0E09000A61202DED0E0D078
:1005D60082D08320A412C0027A32120263D0022093
:1005E600A40630A4FD02090F20A612C0027A321218
:1005F6000263D00220A60630A6FD02090F20A5122E
:10060600C0027A32120263D00220A50630A5FD028E
:10061600090FC2A078011213C778F01213C7E95464
:1006260003F53778551213C78936D2A085363B8530
:10063600373C753D00753E00753FFB75400F7541B3
:1006460000754200120480753FFF75400375410036
:1006560075420012050D753FE8754003754100753A
:10066600420012050D853C37853B36E536B400025F
:100676008061C2A078011213C778F01213C7E9543B
:1006860003F53778551213C78936D2A085363B85D0
:10069600373C753D00753E00753FFB75400F754153
:1006A60000754200120480753FFF754003754100D6
:1006B60075420012050D753FE875400375410075DA
:1006C600420012050D853C37853B36E536B400A25F
:1006D60002090F0205A1C0E07401141202EBD0E07A
:1006E600C083C082C0E09001721202DED0E0D082E8
:1006F600D083C0E07401141202E9D0E0C083C08246
:10070600C0E09001831202DED0E0D082D083C2A086
:1007160078011213C778F01213C7E95403F5377836
:10072600551213C78936D2A085363B85373C753DB1
:1007360000753E00753FFB75400F75410075420020
:10074600120480753FFF7540037541007542001223
:10075600050D753FE87540037541007542001205A9
:100766000D853C37853B36E536B400028061C2A074
:1007760078011213C778F01213C7E95403F53778D6
:10078600551213C78936D2A085363B85373C753D51
:1007960000753E00753FFB75400F754100754200C0
:1007A600120480753FFF75400375410075420012C3
:1007B600050D753FE8754003754100754200120549
:1007C6000D853C37853B36E536B400A202090F207D
:1007D600A412C0027A32120263D00220A40630A408
:1007E600FD0208AEC2A078011213C778A01213C783
:1007F600E95403F53778551213C78936D2A08536E2
:100806003B85373C753D00753E00753FFB75400FD7
:10081600754100754200120480753FFF75400375EF
:10082600410075420012050D753FE875400375419C
:100836000075420012050D853C37853B36E536B41A
:1008460000028061C2A078011213C778A01213C7F4
:10085600E95403F53778551213C78936D2A0853681
:100866003B85373C753D00753E00753FFB75400F77
:10087600754100754200120480753FFF754003758F
:10088600410075420012050D753FE875400375413C
:100896000075420012050D853C37853B36E536B4BA
:1008A60000A20208AE0206DCE548B400028015E5A7
:1008B6004AB40002800EE54CB400028007E54EB44F
:1008C60000408000C0E07401141202EBD0E0C08347
:1008D600C082C0E09001E91202DED0E0D082D0836F
:1008E600C0E07401141202E9D0E0C083C082C0E007
:1008F6009001FA1202DED0E0D082D0837552000257
:1009060005A17401F552021D3EC0E07401141202E5
:10091600EBD0E0C083C082C0E09000B71202DED008
:10092600E0D082D083C0E07401141202E9D0E0C0A6
:1009360083C082C0E09000C81202DED0E0D082D030
:100946008320A612C0027A32120263D00220A606C3
:1009560030A6FD02097320A512C0027A3212026384
:10096600D00220A50630A5FD020A99809CC0E0743D
:1009760001141202EBD0E0C083C082C0E09001B641
:100986001202DED0E0D082D083C0E07401141202DD
:10099600E9D0E0C083C082C0E09001A51202DED09B
:1009A600E0D082D08320A512C0027A32120263D030
:1009B6000220A50630A5FD020A9920A412C0027ADB
:1009C60032120263D00220A40630A4FD020BBFC27D
:1009D600A078011213C778F01213C7E95403F5374C
:1009E60078551213C78936D2A085363B85373C75B4
:1009F6003D00753E00753FFB75400F754100754221
:100A060000120480753FFF75400375410075420072
:100A160012050D753FE875400375410075420012D9
:100A2600050D853C37853B36E536B400028061C24C
:100A3600A078011213C778F01213C7E95403F537EB
:100A460078551213C78936D2A085363B85373C7553
:100A56003D00753E00753FFB75400F7541007542C0
:100A660000120480753FFF75400375410075420012
:100A760012050D753FE87540037541007542001279
:100A8600050D853C37853B36E536B400A202090FD5
:100A9600020973C0E07401141202EBD0E0C083C0F7
:100AA60082C0E09001C71202DED0E0D082D083C0BF
:100AB600E07401141202E9D0E0C083C082C0E09065
:100AC60001A51202DED0E0D082D08320A612C00299
:100AD6007A32120263D00220A60630A6FD020973FE
:100AE60020A412C0027A32120263D00220A4063079
:100AF600A4FD020F9BC2A078011213C778F012134F
:100B0600C7E95403F53778551213C78936D2A0853D
:100B1600363B85373C753D00753E00753FFB75409D
:100B26000F754100754200120480753FFF75400342
:100B360075410075420012050D753FE87540037555
:100B4600410075420012050D853C37853B36E5367A
:100B5600B400028061C2A078011213C778F01213A4
:100B6600C7E95403F53778551213C78936D2A085DD
:100B7600363B85373C753D00753E00753FFB75403D
:100B86000F754100754200120480753FFF754003E2
:100B960075410075420012050D753FE875400375F5
:100BA600410075420012050D853C37853B36E5361A
:100BB600B400A202090F020A99C0E07401141202DD
:100BC600EBD0E0C083C082C0E090011D1202DED0EF
:100BD600E0D082D083C0E07401141202E9D0E0C0F4
:100BE60083C082C0E090012E1202DED0E0D082D017
:100BF6008320A612C0027A32120263D00220A60611
:100C060030A6FD020CE520A512C0027A321202635C
:100C1600D00220A50630A5FD020DD3C2A078011290
:100C260013C778F01213C7E95403F5377855121332
:100C3600C78936D2A085363B85373C753D00753E63
:100C460000753FFB75400F75410075420012048028
:100C5600753FFF75400375410075420012050D751D
:100C66003FE875400375410075420012050D853C4D
:100C760037853B36E536B400028061C2A0780112A2
:100C860013C778F01213C7E95403F53778551213D2
:100C9600C78936D2A085363B85373C753D00753E03
:100CA60000753FFB75400F754100754200120480C8
:100CB600753FFF75400375410075420012050D75BD
:100CC6003FE875400375410075420012050D853CED
:100CD60037853B36E536B400A202090F020BBF206A
:100CE600A512C0027A32120263D00220A50630A5F0
:100CF600FD020DD320A412C0027A32120263D00282
:100D060020A40630A4FD020F08C2A078011213C762
:100D160078F01213C7E95403F53778551213C789CB
:100D260036D2A085363B85373C753D00753E00754D
:100D36003FFB75400F754100754200120480753FF8
:100D4600FF75400375410075420012050D753FE8B9
:100D560075400375410075420012050D853C3785C7
:100D66003B36E536B400028061C2A078011213C793
:100D760078F01213C7E95403F53778551213C7896B
:100D860036D2A085363B85373C753D00753E0075ED
:100D96003FFB75400F754100754200120480753F98
:100DA600FF75400375410075420012050D753FE859
:100DB60075400375410075420012050D853C378567
:100DC6003B36E536B400A202090F020CE520A61256
:100DD600C0027A32120263D00220A60630A6FD02B5
:100DE6000CE520A412C0027A32120263D00220A4BB
:100DF6000630A4FD020EC1C2A078011213C778F016
:100E06001213C7E95403F53778551213C78936D23A
:100E1600A085363B85373C753D00753E00753FFB2A
:100E260075400F754100754200120480753FFF75CD
:100E3600400375410075420012050D753FE8754087
:100E46000375410075420012050D853C37853B361A
:100E5600E536B400028061C2A078011213C778F0AB
:100E66001213C7E95403F53778551213C78936D2DA
:100E7600A085363B85373C753D00753E00753FFBCA
:100E860075400F754100754200120480753FFF756D
:100E9600400375410075420012050D753FE8754027
:100EA6000375410075420012050D853C37853B36BA
:100EB600E536B400A202090F020DD3C0E074011496
:100EC6001202EBD0E0C083C082C0E090012E120275
:100ED600DED0E0D082D083C0E07401141202E9D0E3
:100EE600E0C083C082C0E09001611202DED0E0D093
:100EF60082D083754878754A96754C14754EE6020D
:100F060006DCC0E07401141202EBD0E0C083C0829C
:100F1600C0E090011D1202DED0E0D082D083C0E096
:100F26007401141202E9D0E0C083C082C0E09001CF
:100F3600611202DED0E0D082D083754878754AA06F
:100F4600740FF54C754EF50206DCC0E07401141200
:100F560002EBD0E0C083C082C0E090013F1202DE07
:100F6600D0E0D082D083C0E07401141202E9D0E050
:100F7600C083C082C0E09001501202DED0E0D08271
:100F8600D083741EF54874C8F54A7414F54C74F58C
:100F9600F54E0206DCC0E07401141202EBD0E0C08C
:100FA60083C082C0E09000C81202DED0E0D082D0BA
:100FB60083C0E07401141202E9D0E0C083C082C08D
:100FC600E09001A51202DED0E0D082D08320A412E8
:100FD600C0027A32120263D00220A40630A4FD02B7
:100FE60010B18000C2A078011213C778F01213C79F
:100FF600E95403F53778551213C78936D2A08536DA
:101006003B85373C753D00753E00753FFB75400FCF
:10101600754100754200120480753FFF75400375E7
:10102600410075420012050D753FE8754003754194
:101036000075420012050D853C37853B36E536B412
:1010460000028061C2A078011213C778F01213C79C
:10105600E95403F53778551213C78936D2A0853679
:101066003B85373C753D00753E00753FFB75400F6F
:10107600754100754200120480753FFF7540037587
:10108600410075420012050D753FE8754003754134
:101096000075420012050D853C37853B36E536B4B2
:1010A60000A20210AE020F9B02090FC0E0740114E9
:1010B6001202EBD0E0C083C082C0E09000D91202D9
:1010C600DED0E0D082D083E54A75F06484F9E5F09D
:1010D60075F00A84C445F0F8895BC0E07401141207
:1010E60002E9D0E0C000A85B1202F0D000885BC025
:1010F600E07403141202E9D0E0C000A85B1202F00B
:10110600D00020A622C0027A32120263D00220A6A4
:101116001630A6FDE54A2401B4FF06E4F54A02109E
:10112600B1F54AE40210B120A522C0027A321202B9
:1011360063D00220A51630A5FDE54A24FFB40006BB
:10114600E4F54A0210B1F54AE40210B130A40302F4
:1011560010B130A4FDC0E07401141202EBD0E0C05F
:1011660083C082C0E09000EA1202DED0E0D082D0D6
:1011760083E54875F06484F9E5F075F00A84C445A2
:10118600F0F8895BC0E07401141202E9D0E0C000F7
:10119600A85B1202F0D000885BC0E0740314120250
:1011A600E9D0E0C000A85B1202F0D00020A622C061
:1011B600027A32120263D00220A61630A6FDE54856
:1011C6002401B4FF06E4F548021158F548E402117B
:1011D6005820A522C0027A32120263D00220A51638
:1011E60030A5FDE54824FFB40006E4F54802115891
:1011F600F548E402115830A40302115830A4FDC08A
:10120600E07401141202EBD0E0C083C082C0E0900B
:10121600010C1202DED0E0D082D083E54E75F06478
:1012260084F9E5F075F00A84C445F0F8895BC0E0FE
:101236007401141202E9D0E0C000A85B1202F0D0DB
:1012460000885BC0E07403141202E9D0E0C000A875
:101256005B1202F0D00020A622C0027A321202638C
:10126600D00220A61630A6FDE54E2401B4FF06E402
:10127600F54E021202F54EE402120220A522C00229
:101286007A32120263D00220A51630A5FDE54E245F
:10129600FFB40006E4F54E021202F54EE402120215
:1012A60030A40302120230A4FDC0E074011412023D
:1012B600EBD0E0C083C082C0E09000FB1202DED01B
:1012C600E0D082D083E54C75F06484F9E5F075F0E2
:1012D6000A84C445F0F8895BC0E07401141202E97F
:1012E600D0E0C000A85B1202F0D000885BC0E074BA
:1012F60003141202E9D0E0C000A85B1202F0D0008D
:1013060020A622C0027A32120263D00220A616302C
:10131600A6FDE54C2401B4FF06E4F54C0212ACF53B
:101326004CE40212AC20A522C0027A32120263D02B
:101336000220A51630A5FDE54C24FFB40006E4F511
:101346004C0212ACF54CE40212AC30A4030212AC0F
:10135600C0E07401141202EBD0E0C083C082C0E08A
:101366009001D81202DED0E0D082D083C0E07401B2
:10137600141202E9D0E0C083C082C0E09001A51239
:1013860002DED0E0D082D08330A6030213560206D6
:01139600DC7A
:1013970079DE78A6D8FED9FA438780759852759B6F
:1013A70000759AF4759B1E223099FDC299F5992212
:1013B700E49360061213AFA380F622D2A2C2A3223F
:1013C700C0E079007A08E833F892A1D2A3A2A2E993
:1013D70033F9C2A3DAF0D0E02248656C6C6F2C2099
:1013E700576F726C64210D0A0079DE78A6D8FED992
:1013F700FA32C0E07407141202E9D0E0C000A8472F
:101407001202F0D000C000A8461202F0D000C000BF
:10141700A8451202F0D000C000A8441202F0D00084
:10142700C000A8431202F0D000C0E07407141202F3
:10143700E9D0E0E54754F0C460030214DEC0E0746D
:10144700201202A8D0E0E547540F60030214DEC063
:10145700E074201202A8D0E0E54654F0C46003020D
:1014670014DEC0E074201202A8D0E0E546540F60F5
:10147700030214DEC0E074201202A8D0E0E5455450
:10148700F0C460030214DEC0E074201202A8D0E0AA
:10149700E545540F60030214DEC0E074201202A871
:1014A700D0E0E54454F0C460030214DEC0E07420C9
:1014B7001202A8D0E0E544540F60030214DEC0E036
:1014C70074201202A8D0E0E54354F0C47009C0E0CC
:1014D70074201202A8D0E022C0E07407141202EBB5
:1014E700D0E0C000A8471202F0D000C000A8461202
:1014F70002F0D000C000A8451202F0D000C000A83A
:10150700441202F0D000C000A8431202F0D000C07D
:10151700E07407141202EBD0E0E54754F0C460030F
:101527000215C4C0E074201202A8D0E0E547540FAA
:1015370060030215C4C0E074201202A8D0E0E5469B
:1015470054F0C460030215C4C0E074201202A8D08E
:10155700E0E546540F60030215C4C0E07420120290
:10156700A8D0E0E54554F0C460030215C4C0E07498
:10157700201202A8D0E0E545540F60030215C4C04D
:10158700E074201202A8D0E0E54454F0C4600302DE
:1015970015C4C0E074201202A8D0E0E544540F60DF
:1015A700030215C4C0E074201202A8D0E0E543543A
:1015B700F0C47009C0E074201202A8D0E022C00075
:1015C700A847121625740D1213AF740A1213AFD061
:1015D70000C000A846121625740D1213AF740A1224
:1015E70013AFD000C000A845121625740D1213AF13
:1015F700740A1213AFD000C000A844121625740D48
:101607001213AF740A1213AFD000C000A84312160A
:1016170025740D1213AF740A1213AFD00022C0E065
:10162700E8C4540F44301213AFE8540F4430121378
:10163700AFD0E022C2A078011213C778801213C777
:10164700E95403F53778551213C78936D2A0853682
:101657003B85373C753D00753E00753FFB75400F78
:10166700754100754200120480753FFF7540037590
:10167700410075420012050D753FE875400375413D
:101687000075420012050D853C37853B3685363B94
:1016970085373C753D00753C00753F6475400075A6
:1016A7004100754200120480753F11754001754174
:1016B700007542001203EC853B32853C3322C2A001
:1016C70078011213C778901213C7E95403F53778D6
:1016D700551213C78936D2A085363B85373C753DF1
:1016E70000753E00753FFB75400F75410075420060
:1016F700120480753FFF7540037541007542001263
:10170700050D853B36853C3785363B85373C753D32
:1017170000753E00753F87754009754100754200A9
:10172700120480753FCD7540007541007542001267
:10173700050D753F6475400075410075420012053F
:101747000D85323F8533408534418535421203CBC1
:10175700853B34853C352285343B85343C753D00DB
:10176700753E001203068543388544392230010E41
:0F177700C20112163B1216C512175E121A6F220C
:10178600E552B4003EC0E07401141202EBD0E0C092
:1017960083C082C0E090023E1202DED0E0D082D04A
:1017A60083C0E07401141202E9D0E0C083C082C095
:1017B600E09001A51202DED0E0D082D08375F5005C
:1017C600021D3EC0E07401141202EBD0E0C083C0DB
:1017D60082C0E09002461202DED0E0D082D083B40E
:1017E600016C75F5FFC0E07401141202EBD0E0C085
:1017F60083C082C0E090003E1202DED0E0D082D0EC
:1018060083C0E07409141202E9D0E0E53A1213AF7E
:10181600C0E0740C141202E9D0E0C083C082C0E0BC
:101826009000931202DED0E0D082D083C0E0740133
:10183600141202E9D0E0E5541213AF755500E54ADB
:10184600C395545006753A00755202021D3EB40205
:101856006975F533C0E07401141202EBD0E0C08361
:10186600C082C0E090004F1202DED0E0D082D0836A
:10187600C0E07409141202E9D0E0E53A1213AFC0D1
:10188600E0740C141202E9D0E0C083C082C0E0907C
:1018960000931202DED0E0D082D083C0E07401143F
:1018A6001202E9D0E0E5541213AFE548C3953A5069
:1018B60006755203753A00021D3EB4036975F5FFBD
:1018C600C0E07401141202EBD0E0C083C082C0E015
:1018D6009000601202DED0E0D082D083C0E07409AE
:1018E600141202E9D0E0E53A1213AFC0E0740C140A
:1018F6001202E9D0E0C083C082C0E09000931202D9
:10190600DED0E0D082D083C0E07401141202E9D0A8
:10191600E0E5541213AFE54EC395545006753A00F0
:10192600755204021D3EB40469755314C0E0740177
:10193600141202EBD0E0C083C082C0E090007112A6
:1019460002DED0E0D082D083C0E07409141202E92E
:10195600D0E0E53A1213AFC0E0740C141202E9D0DD
:10196600E0C083C082C0E09000931202DED0E0D0D7
:1019760082D083C0E07401141202E9D0E0E554126B
:1019860013AFE54CC3953A5006755205753A0002F9
:101996001D3EB40569755300C0E07401141202EBD4
:1019A600D0E0C083C082C0E09000821202DED0E0A8
:1019B600D082D083C0E07409141202E9D0E0E53A7F
:1019C6001213AFC0E0740C141202E9D0E0C083C059
:1019D60082C0E09000931202DED0E0D082D083C0B5
:1019E600E07401141202E9D0E0E5541213AFE55693
:1019F600C395545006753A00755200021D3E021DED
:101A06003BA2E09283A2E19285A2E29287A2E392B0
:101A1600C4A2E492C5A2E59284A2E69286A2E792C7
:101A2600A722D281D280D282E55AB4000BE55712A2
:101A36001A07C281055A8020B4010BE558121A070D
:101A4600C280055A8012B4020CE559121A07C282E6
:101A5600755A008003755A00227400F55A7411F500
:101A6600387401F539121A6F2290024EE538540F78
:101A760093F557E538C4540F93F558E539540F9349
:101A8600F55922E58954F04401F589758CEA758A81
:101A9600E875F4EA75F2E8D2A9D28C22800032E524
:101AA60089540F4410F589E59154004480F59175E9
:101AB6008D00758B0075F50075F300D28E3275C8F2
:101AC6000075CDA975CC9A75CBA975CA9AE4F5307F
:101AD600F531D2ADD2CA22C2CFC0E0C0D0121A2888
:101AE6000530E53070150531C000A843121625747F
:101AF6000D1213AF740A1213AFD000E530B4C81537
:101B0600E531B40010D201B28CE4F530F531E53A96
:101B16002401D4F53AD0D0D0E032759F01759C00EF
:101B2600759D0122759E00C0E0C2A078011213C700
:101B360078B01213C7E95403F53778551213C789DD
:101B460036D2A085363B85373C753D00753E00751F
:101B56003FFB75400F754100754200120480753FCA
:101B6600FF75400375410075420012050D753FE88B
:101B760075400375410075420012050D853C378599
:101B86003B36E536B400028061C2A078011213C765
:101B960078B01213C7E95403F53778551213C7897D
:101BA60036D2A085363B85373C753D00753E0075BF
:101BB6003FFB75400F754100754200120480753F6A
:101BC600FF75400375410075420012050D753FE82B
:101BD60075400375410075420012050D853C378539
:101BE6003B36E536B400A2021CD5C2A0780112131A
:101BF600C778A01213C7E95403F53778551213C7EF
:101C06008936D2A085363B85373C753D00753E004A
:101C1600753FFB75400F75410075420012048075D3
:101C26003FFF75400375410075420012050D753F73
:101C3600E875400375410075420012050D853C3775
:101C4600853B36E536B400028061C2A078011213E6
:101C5600C778A01213C7E95403F53778551213C78E
:101C66008936D2A085363B85373C753D00753E00EA
:101C7600753FFB75400F7541007542001204807573
:101C86003FFF75400375410075420012050D753F13
:101C9600E875400375410075420012050D853C3715
:101CA600853B36E536B400A2021CB1E4C0E07401FF
:101CB600141202E9D0E0C083C082C0E090022D1267
:101CC60002DED0E0D082D083E552755201803D75A8
:101CD6005205C0E07401141202EBD0E0C083C0824A
:101CE600C0E090020B1202DED0E0D082D083C0E0CA
:101CF6007401141202E9D0E0C083C082C0E09002F1
:101D06001C1202DED0E0D082D0838000D0E0327593
:101D1600817F121B20121A5F121A89121AA5121A33
:101D2600C475520075E60075E700758E11D2AF12C4
:101D360013C21202B2020593121774021786021D0D
:011D46003E5E
:00000001FF
