:03000000021C4699
:0100030032CA
:03000B00021BD401
:0100130032BA
:01001B0032B2
:0100230032AA
:03002B00021C11A3
:01003B003292
:10003C0020202020202020202050726568656174CB
:10004C0000202020202020202020536F616B2020B6
:10005C00200020202020202020202052616D703292
:10006C00706B002020202020202020205265666C00
:10007C006F772000202020202020202020436F6F2D
:10008C006C696E6700730057656C636F6D6521203A
:10009C00202020202020200053656C656374206F85
:1000AC007074696F6E202020005072657365742027
:1000BC0050726F66696C65202000437573746F6DA8
:1000CC002050726F66696C65202000536F616B2045
:1000DC0054656D702020202020202000536F616B10
:1000EC002054696D65202020202020200052656658
:1000FC006C6F772054696D6520202020200052659C
:10010C00666C6F772054656D702020202020005382
:10011C00414333303520736F6C64657220202000AE
:10012C0050622D736F6C64657220706173746520FE
:10013C00005368686821204E6F2070697A7A6120BC
:10014C002000616C6C6F77656420696E2068657245
:10015C00652E0070726F66696C65206C6F616465EA
:10016C006420200053797374656D20526561647945
:10017C0020202020005072657373205374617274B8
:10018C0020202020200078782020202020202020D3
:10019C002020202020200020202020202020202073
:1001AC00202020202020200041542050524553452F
:1001BC0054204D454E552020004154204355535456
:1001CC004F4D204D454E5520200041726520796FD2
:1001DC007520737572653F202020004572726F7216
:1001EC002C2070726F66696C657320006E6F7420C2
:1001FC006C6F616465642020202020200050726F99
:10020C00636573732061626F72746564200057615B
:10021C00697420746F20636F6F6C2020202000495C
:10022C0053522069732072756E6E696E67202000C0
:10023C005265666C6F772041626F72746564212021
:10024C0000537461746520300053746174652031FF
:0B025C0000C0F9A4B0999282F88090D5
:10026700C00078B10000D8FCD00022C000C00179DE
:100277002D78A6D8FED9FADAF6D001D00022D2938B
:10028700120267C29322A2E792B6A2E692B4A2E54F
:1002970092B3A2E492B2120285120267A2E392B667
:1002A700A2E292B4A2E192B3A2E092B21202852234
:1002B700D29102028DC29102028DC293C29274330F
:1002C7001202BC74331202BC74321202BC742812BC
:1002D70002BC740C1202BC74011202BCC0027A0286
:1002E700120272D00222E49360061202B7A380F6CC
:1002F70022444044800202BCC0E0E8C4540F4430AA
:0E0307001202B7E8540F44301202B7D0E022C1
:10031500C0E0C0D0C000C001C002E4F544F545F519
:1003250046F547F5487A20E53FA2E77904783CE6AB
:1003350033F608D9FA79057844E636D4F608D9F9BA
:10034500DAE5D002D001D000D0D0D0E022C0E0C0A4
:10035500D0C000C001C002E4F544F545F546F547B7
:10036500F5487A20E53FA2E77904783CE633F608BC
:10037500D9FA79057844C0D0E6243320E70224D0A1
:1003850020E30224FDD0D033F608D9EADAD6D0022C
:10039500D001D000D0D0D0E022C0E0C0D0C000C095
:1003A50001C0027A207905C37848E613C0D030E74A
:1003B5000224D030E30224FDF618D0D0D9EC79041C
:1003C500783FE613F618D9FADADBD002D001D0006F
:1003D500D0D0D0E022C0E0C0D0E53C2540F53CE5DA
:1003E5003D3541F53DE53E3542F53EE53F3543F5C5
:1003F5003FD0D0D0E022C0E0C0D0C3E53C9540F569
:100405003CE53D9541F53DE53E9542F53EE53F959B
:1004150043F53FD0D0D0E022C0E0C0D0C3E53C9545
:1004250040E53D9541E53E9542E53F95439200D037
:10043500D0D0E022C0E0C0D0C3E540953CE5419571
:100445003DE542953EE543953F9200D0D0D0E02270
:10045500C0E0C0D0C200C3E540953C7014E54195AD
:100465003D700EE542953E7008E543953F7002D21A
:1004750000D0D0D0E0221204552000030204392216
:1004850012045520000302041D22C0E0C0F0C0D0B4
:10049500C000C001C002C003E53C8540F0A4F8A936
:1004A500F0E53D8540F0A429F9E435F0FAE53C8511
:1004B50041F0A429F9E5F03AFAE433FBE53E85403D
:1004C500F0A42AFAE5F03BFBE53D8541F0A42AFAC4
:1004D500E5F03BFBE53C8542F0A42AFAE5F03BFB61
:1004E500E53F8540F0A42BFBE53E8541F0A42BFBC1
:1004F500E53D8542F0A42BFBE53C8543F0A42BFBB1
:100505008B3F8A3E893D883CD003D002D001D00084
:10051500D0D0D0F0D0E022C0E0C0D0C000C001C033
:1005250002C003C0047C20E4F8F9FAFBC3E53C33C0
:10053500F53CE53D33F53DE53E33F53EE53F33F529
:100545003FE833F8E933F9EA33FAEB33FBC3E895CF
:1005550040E99541EA9542EB95434013E89540F80B
:10056500E99541F9EA9542FAEB9543FB433C01DCF9
:10057500BBD004D003D002D001D000D0D0D0E0222F
:100585007A2D79FA78A6D8FED9FADAF62275F064CA
:1005950084F9E5F075F00A84C445F0F82275490040
:1005A500754B00754D00754F008000C0E074011457
:1005B5001202FAD0E0C083C082C0E090009312021C
:1005C500EDD0E0D082D083C0E07401141202F8D0DF
:1005D500E0C083C082C0E09000A41202EDD0E0D05C
:1005E50082D08320A412C0027A32120272D0022075
:1005F500A40630A4FD02092120A612C0027A3212F7
:100605000272D00220A60630A6FD02092120A512FD
:10061500C0027A32120272D00220A50630A5FD0270
:100625000921C2A078011213EE78F01213EEE954F5
:1006350003F53778551213EE8936D2A085363C85F9
:10064500373D753E00753F007540FB75410F75429E
:100655000075430012048F7540FF75410375420014
:1006650075430012051C7540E87541037542007518
:10067500430012051C853D37853C36E536B400023E
:100685008061C2A078011213EE78F01213EEE954DE
:1006950003F53778551213EE8936D2A085363C8599
:1006A500373D753E00753F007540FB75410F75423E
:1006B5000075430012048F7540FF754103754200B4
:1006C50075430012051C7540E875410375420075B8
:1006D500430012051C853D37853C36E536B400A23E
:1006E5000209210205B0C0E07401141202FAD0E03B
:1006F500C083C082C0E09001701202EDD0E0D082CC
:10070500D083C0E07401141202F8D0E0C083C08227
:10071500C0E09001811202EDD0E0D082D083C2A06A
:1007250078011213EE78F01213EEE95403F53778D9
:10073500551213EE8936D2A085363C85373D753E78
:1007450000753F007540FB75410F7542007543000C
:1007550012048F7540FF7541037542007543001201
:10076500051C7540E8754103754200754300120587
:100775001C853D37853C36E536B400028061C2A054
:1007850078011213EE78F01213EEE95403F5377879
:10079500551213EE8936D2A085363C85373D753E18
:1007A50000753F007540FB75410F754200754300AC
:1007B50012048F7540FF75410375420075430012A1
:1007C500051C7540E8754103754200754300120527
:1007D5001C853D37853C36E536B400A2020921204B
:1007E500A412C0027A32120272D00220A40630A4EA
:1007F500FD0208BDC2A078011213EE78A01213EE17
:10080500E95403F53778551213EE8936D2A08536AB
:100815003C85373D753E00753F007540FB75410FC2
:1008250075420075430012048F7540FF75410375CD
:10083500420075430012051C7540E8754103754279
:100845000075430012051C853D37853C36E536B4F9
:1008550000028061C2A078011213EE78A01213EE97
:10086500E95403F53778551213EE8936D2A085364B
:100875003C85373D753E00753F007540FB75410F62
:1008850075420075430012048F7540FF754103756D
:10089500420075430012051C7540E8754103754219
:1008A5000075430012051C853D37853C36E536B499
:1008B50000A20208BD0206EBE549B400028015E579
:1008C5004BB40002800EE54DB400028007E54FB43D
:1008D50000408000C0E07401141202FAD0E0C08329
:1008E500C082C0E09001E71202EDD0E0D082D08353
:1008F500C0E07401141202F8D0E0C083C082C0E0E9
:100905009001F81202EDD0E0D082D0837553000239
:1009150005B07401F553121BB4021C7EC0E07401CE
:10092500141202FAD0E0C083C082C0E09000B51274
:1009350002EDD0E0D082D083C0E07401141202F839
:10094500D0E0C083C082C0E09000C61202EDD0E0C6
:10095500D082D08320A612C0027A32120272D0024F
:1009650020A60630A6FD02098520A512C0027A320E
:10097500120272D00220A50630A5FD020AAB809CAA
:10098500C0E07401141202FAD0E0C083C082C0E056
:100995009001B41202EDD0E0D082D083C0E07401A2
:1009A500141202F8D0E0C083C082C0E09001A31207
:1009B50002EDD0E0D082D08320A512C0027A321297
:1009C5000272D00220A50630A5FD020AAB20A412B2
:1009D500C0027A32120272D00220A40630A4FD02AF
:1009E5000BD1C2A078011213EE78F01213EEE95480
:1009F50003F53778551213EE8936D2A085363C8536
:100A0500373D753E00753F007540FB75410F7542DA
:100A15000075430012048F7540FF75410375420050
:100A250075430012051C7540E87541037542007554
:100A3500430012051C853D37853C36E536B400027A
:100A45008061C2A078011213EE78F01213EEE9541A
:100A550003F53778551213EE8936D2A085363C85D5
:100A6500373D753E00753F007540FB75410F75427A
:100A75000075430012048F7540FF754103754200F0
:100A850075430012051C7540E875410375420075F4
:100A9500430012051C853D37853C36E536B400A27A
:100AA500020921020985C0E07401141202FAD0E09E
:100AB500C083C082C0E09001C51202EDD0E0D082B3
:100AC500D083C0E07401141202F8D0E0C083C08264
:100AD500C0E09001A31202EDD0E0D082D08320A621
:100AE50012C0027A32120272D00220A60630A6FD8A
:100AF50002098520A412C0027A32120272D00220A5
:100B0500A40630A4FD020FACC2A078011213EE7842
:100B1500F01213EEE95403F53778551213EE8936C2
:100B2500D2A085363C85373D753E00753F00754042
:100B3500FB75410F75420075430012048F7540FF28
:100B450075410375420075430012051C7540E87533
:100B5500410375420075430012051C853D37853CF0
:100B650036E536B400028061C2A078011213EE7832
:100B7500F01213EEE95403F53778551213EE893662
:100B8500D2A085363C85373D753E00753F007540E2
:100B9500FB75410F75420075430012048F7540FFC8
:100BA50075410375420075430012051C7540E875D3
:100BB500410375420075430012051C853D37853C90
:100BC50036E536B400A2020921020AABC0E0740181
:100BD500141202FAD0E0C083C082C0E090011B125B
:100BE50002EDD0E0D082D083C0E07401141202F887
:100BF500D0E0C083C082C0E090012C1202EDD0E0AD
:100C0500D082D08320A612C0027A32120272D0029C
:100C150020A60630A6FD020CF720A512C0027A32E6
:100C2500120272D00220A50630A5FD020DE5C2A074
:100C350078011213EE78F01213EEE95403F53778C4
:100C4500551213EE8936D2A085363C85373D753E63
:100C550000753F007540FB75410F754200754300F7
:100C650012048F7540FF75410375420075430012EC
:100C7500051C7540E8754103754200754300120572
:100C85001C853D37853C36E536B400028061C2A03F
:100C950078011213EE78F01213EEE95403F5377864
:100CA500551213EE8936D2A085363C85373D753E03
:100CB50000753F007540FB75410F75420075430097
:100CC50012048F7540FF754103754200754300128C
:100CD500051C7540E8754103754200754300120512
:100CE5001C853D37853C36E536B400A20209210254
:100CF5000BD120A512C0027A32120272D00220A5B1
:100D05000630A5FD020DE520A412C0027A321202BA
:100D150072D00220A40630A4FD020F1AC2A07801E9
:100D25001213EE78F01213EEE95403F537785512E5
:100D350013EE8936D2A085363C85373D753E007564
:100D45003F007540FB75410F754200754300120465
:100D55008F7540FF75410375420075430012051CF0
:100D65007540E875410375420075430012051C8501
:100D75003D37853C36E536B400028061C2A0780176
:100D85001213EE78F01213EEE95403F53778551285
:100D950013EE8936D2A085363C85373D753E007504
:100DA5003F007540FB75410F754200754300120405
:100DB5008F7540FF75410375420075430012051C90
:100DC5007540E875410375420075430012051C85A1
:100DD5003D37853C36E536B400A2020921020CF701
:100DE50020A612C0027A32120272D00220A6063064
:100DF500A6FD020CF720A412C0027A32120272D0AC
:100E05000220A40630A4FD020ED3C2A0780112135D
:100E1500EE78F01213EEE95403F53778551213EE18
:100E25008936D2A085363C85373D753E00753F0035
:100E35007540FB75410F75420075430012048F75AF
:100E450040FF75410375420075430012051C75404E
:100E5500E875410375420075430012051C853D3751
:100E6500853C36E536B400028061C2A078011213D4
:100E7500EE78F01213EEE95403F53778551213EEB8
:100E85008936D2A085363C85373D753E00753F00D5
:100E95007540FB75410F75420075430012048F754F
:100EA50040FF75410375420075430012051C7540EE
:100EB500E875410375420075430012051C853D37F1
:100EC500853C36E536B400A2020921020DE5C0E0F5
:100ED5007401141202FAD0E0C083C082C0E0900110
:100EE5002C1202EDD0E0D082D083C0E07401141240
:100EF50002F8D0E0C083C082C0E090015F1202ED2D
:100F0500D0E0D082D083754978754B96754D1475B0
:100F15004FE60206EBC0E07401141202FAD0E0C0FD
:100F250083C082C0E090011B1202EDD0E0D082D0D8
:100F350083C0E07401141202F8D0E0C083C082C0FF
:100F4500E090015F1202EDD0E0D082D08375497840
:100F5500754BA0754D0F754FF50206EBC0E074019A
:100F6500141202FAD0E0C083C082C0E090013D12A5
:100F750002EDD0E0D082D083C0E07401141202F8F3
:100F8500D0E0C083C082C0E090014E1202EDD0E0F7
:100F9500D082D083741EF54974C8F54B7414F54D91
:100FA50074F5F54F0206EBC0E07401141202FAD095
:100FB500E0C083C082C0E09000C61202EDD0E0D050
:100FC50082D083C0E07401141202F8D0E0C083C05F
:100FD50082C0E09001A31202EDD0E0D082D0832040
:100FE500A412C0027A32120272D00220A40630A4E2
:100FF500FD0210C28000C2A078011213EE78F01233
:1010050013EEE95403F53778551213EE8936D2A05D
:1010150085363C85373D753E00753F007540FB754F
:10102500410F75420075430012048F7540FF7541ED
:101035000375420075430012051C7540E8754103B0
:1010450075420075430012051C853D37853C36E524
:1010550036B400028061C2A078011213EE78F01256
:1010650013EEE95403F53778551213EE8936D2A0FD
:1010750085363C85373D753E00753F007540FB75EF
:10108500410F75420075430012048F7540FF75418D
:101095000375420075430012051C7540E875410350
:1010A50075420075430012051C853D37853C36E5C4
:1010B50036B400A20210BF020FAC020921C0E074D1
:1010C50001141202FAD0E0C083C082C0E09000D7BC
:1010D5001202EDD0E0D082D083E54B75F06484F93F
:1010E500E5F075F00A84C445F0F8895CC0E0740148
:1010F500141202F8D0E0C000A85C1202FFD00088EC
:101105005CC0E07403141202F8D0E0C000A85C12C1
:1011150002FFD00020A622C0027A32120272D0024B
:1011250020A61630A6FDE54B2401B4FF06E4F54BD9
:101135000210C2F54BE40210C220A522C0027A3289
:10114500120272D00220A51630A5FDE54B24FFB48E
:101155000006E4F54B0210C2F54BE40210C230A4C0
:10116500030210C230A4FDC0E07401141202FAD0CB
:10117500E0C083C082C0E09000E81202EDD0E0D06C
:1011850082D083E54975F06484F9E5F075F00A8449
:10119500C445F0F8895CC0E07401141202F8D0E08F
:1011A500C000A85C1202FFD000885CC0E074031484
:1011B5001202F8D0E0C000A85C1202FFD00020A601
:1011C50022C0027A32120272D00220A61630A6FD83
:1011D500E5492401B4FF06E4F549021169F549E43E
:1011E50002116920A522C0027A32120272D00220B1
:1011F500A51630A5FDE54924FFB40006E4F549022E
:101205001169F549E402116930A40302116930A49A
:10121500FDC0E07401141202FAD0E0C083C082C0A0
:10122500E090010A1202EDD0E0D082D083E54F753F
:10123500F06484F9E5F075F00A84C445F0F8895C3A
:10124500C0E07401141202F8D0E0C000A85C1202DC
:10125500FFD000885CC0E07403141202F8D0E0C02F
:1012650000A85C1202FFD00020A622C0027A32122A
:101275000272D00220A61630A6FDE54F2401B4FF68
:1012850006E4F54F021213F54FE402121320A522CE
:10129500C0027A32120272D00220A51630A5FDE5F1
:1012A5004F24FFB40006E4F54F021213F54FE40294
:1012B500121330A40302121330A4FDC0E07401140C
:1012C5001202FAD0E0C083C082C0E09000F9120299
:1012D500EDD0E0D082D083E54D75F06484F9E5F07A
:1012E50075F00A84C445F0F8895CC0E074011412F5
:1012F50002F8D0E0C000A85C1202FFD000885CC0F4
:10130500E07403141202F8D0E0C000A85C1202FFDA
:10131500D00020A622C0027A32120272D00220A684
:101325001630A6FDE54D2401B4FF06E4F54D021285
:10133500BDF54DE40212BD20A522C0027A3212028B
:1013450072D00220A51630A5FDE54D24FFB4000698
:10135500E4F54D0212BDF54DE40212BD30A40302C1
:1013650012BDC0E07401141202FAD0E0C083C0823D
:10137500C0E09001D61202EDD0E0D082D083C0E06B
:101385007401141202F8D0E0C083C082C0E090015D
:10139500A31202EDD0E0D082D08330A603021367FA
:1013A5000206EBC0E0E8C4540F44301213D6E854EB
:1013B5000F44301213D6D0E02279DE78A6D8FED9B4
:1013C500FA438780759852759B00759AF4759B1E34
:1013D500223099FDC299F59922E49360061213D63D
:1013E500A380F622D2A2C2A322C0E079007A08E83F
:1013F50033F892A1D2A3A2A2E933F9C2A3DAF0D0BD
:10140500E02279DE78A6D8FED9FA32C0E074071456
:101415001202F8D0E0C000A8481202FFD000C000B8
:10142500A8471202FFD000C000A8461202FFD00054
:10143500C000A8451202FFD000C000A8441202FF58
:10144500D000C0E07407141202F8D0E0E54854F06B
:10145500C460030214F5C0E074201202B7D0E0E5C1
:1014650048540F60030214F5C0E074201202B7D08F
:10147500E0E54754F0C460030214F5C0E07420129F
:1014850002B7D0E0E547540F60030214F5C0E074DD
:10149500201202B7D0E0E54654F0C460030214F50B
:1014A500C0E074201202B7D0E0E546540F60030295
:1014B50014F5C0E074201202B7D0E0E54554F0C43D
:1014C50060030214F5C0E074201202B7D0E0E545D0
:1014D500540F60030214F5C0E074201202B7D0E087
:1014E500E54454F0C47009C0E074201202B7D0E09E
:1014F50022C0E07407141202FAD0E0C000A8481216
:1015050002FFD000C000A8471202FFD000C000A80B
:10151500461202FFD000C000A8451202FFD000C04D
:1015250000A8441202FFD000C0E07407141202FAAA
:10153500D0E0E54854F0C460030215DBC0E0742038
:101545001202B7D0E0E548540F60030215DBC0E096
:1015550074201202B7D0E0E54754F0C460030215C9
:10156500DBC0E074201202B7D0E0E547540F6003FA
:101575000215DBC0E074201202B7D0E0E54654F056
:10158500C460030215DBC0E074201202B7D0E0E5A9
:1015950046540F60030215DBC0E074201202B7D079
:1015A500E0E54554F0C460030215DBC0E074201289
:1015B50002B7D0E0E545540F60030215DBC0E074C7
:1015C500201202B7D0E0E54454F0C47009C0E074BD
:1015D500201202B7D0E022C000A8481213A8D000FC
:1015E500C000A8471213A8D000C000A8461213A82F
:1015F500D000C000A8451213A8D000C000A844120E
:1016050013A8D000740D1213D6740A1213D622C271
:10161500A078011213EE78801213EEE95403F53326
:1016250078551213EE8932D2A085323C85333D754B
:101635003E00753F007540FD75410F7542007543CD
:101645000012048F7540FF75410375420075430014
:1016550012051C75400A754100754200754300125C
:10166500051C754011754101754200754300120353
:10167500FB853C32853D3322C2A078011213EE78FA
:10168500901213EEE95403F53778551213EE8936A7
:10169500D2A085363C85373D753E00753F007540C7
:1016A500FD75410F75420075430012048F7540FFAB
:1016B50075410375420075430012051C853C36854E
:1016C5003D3785363C85373D753E00753F00754095
:1016D5008775410975420075430012048F7540CD29
:1016E50075410075420075430012051C754064750F
:1016F500410075420075430012051C853240853353
:10170500417542007543001203FB853C34853D3528
:101715002285343C85353D753E00753F0012031525
:1017250085443885453922300211C2021216141239
:0C173500167D121716121410121B7B22D6
:10174100C2A078011213EE78B01213EEE95403F53A
:101751003778551213EE8936D2A085363C85373D50
:10176100753E00753F007540FB75410F7542007570
:10177100430012048F7540FF7541037542007543A4
:101781000012051C7540E875410375420075430060
:1017910012051C853D37853C36E536B40002801FB5
:1017A100C0E07401141202FAD0E0C083C082C0E02C
:1017B10090023C1202EDD0E0D082D083755305E552
:1017C10053B40041C0E07401141202FAD0E0C083A6
:1017D100C082C0E090024D1202EDD0E0D082D083F1
:1017E100C0E07401141202F8D0E0C083C082C0E0EE
:1017F1009001A31202EDD0E0D082D08375F50002F2
:1018010005A2021C7EB4016F75F5FFC0E0740114DE
:101811001202FAD0E0C083C082C0E090003C120204
:10182100EDD0E0D082D083C0E07409141202F8D068
:10183100E0E53A1213D6C0E0740C141202F8D0E0BD
:10184100C083C082C0E09000911202EDD0E0D0824E
:10185100D083C0E07401141202F8D0E0E5551213F0
:10186100D6755600E54BC395345009753A0075534A
:1018710002121BB4021C7EB40202800302191ED2A2
:1018810003121BD4C20375F533C0E07401141202B4
:10189100FAD0E0C083C082C0E090004D1202EDD0CA
:1018A100E0D082D083C0E07409141202F8D0E0E5E0
:1018B1003A1213D6C0E0740C141202F8D0E0C083BF
:1018C100C082C0E09000911202EDD0E0D082D083BE
:1018D100C0E07401141202F8D0E0E5551213D6E508
:1018E1003A120592C0E07401141202F8D0E0E9C086
:1018F10000F81202FFD000C0E07403141202F8D005
:10190100E0E8C000F81202FFD000E549C3953A5063
:1019110009755303121BB4753A00021C7EB403020D
:1019210080030219BDE53A120592C0E07401141258
:1019310002F8D0E0E9C000F81202FFD000C0E07464
:1019410003141202F8D0E0E8C000F81202FFD00040
:1019510075F5FFC0E07401141202FAD0E0C083C033
:1019610082C0E090005E1202EDD0E0D082D083C050
:10197100E07409141202F8D0E0E53A1213D6C0E07F
:10198100740C141202F8D0E0C083C082C0E0900051
:10199100911202EDD0E0D082D083C0E07401141224
:1019A10002F8D0E0E5551213D6E54FC3953450093E
:1019B100753A00755304121BB4021C7EB4040280F4
:1019C10003021A6075F533C0E07401141202FAD0F3
:1019D100E0C083C082C0E090006F1202EDD0E0D081
:1019E10082D083C0E07409141202F8D0E0E53A1203
:1019F10013D6C0E0740C141202F8D0E0C083C08288
:101A0100C0E09000911202EDD0E0D082D083C0E01E
:101A11007401141202F8D0E0E5551213D6E53A121A
:101A21000592C0E07401141202F8D0E0E9C000F898
:101A31001202FFD000C0E07403141202F8D0E0E8F3
:101A4100C000F81202FFD000E54DC3D206953A500E
:101A51000BC206755305121BB4753A00021C7EB405
:101A610005028003021B06D204121BD4C20475F5C1
:101A710000C0E07401141202FAD0E0C083C082C039
:101A8100E09000801202EDD0E0D082D083C0E074FB
:101A910009141202F8D0E0E53A1213D6C0E0740C32
:101AA100141202F8D0E0C083C082C0E0900091120D
:101AB10002EDD0E0D082D083C0E07401141202F8AC
:101AC100D0E0E5551213D6E53A120592C0E0740153
:101AD100141202F8D0E0E9C000F81202FFD000C0F1
:101AE100E07403141202F8D0E0E8C000F81202FF1B
:101AF100D000E534C395575009753A007553061265
:101B01001BB4021C7ED205121BD4C2057553000200
:101B11001C7EA2E09283A2E19285A2E29287A2E3D7
:101B210092C4A2E492C5A2E59284A2E69286A2E7BB
:101B310092A722D281D280D282E55BB4000BE55814
:101B4100121B13C281055B8020B4010BE559121BE6
:101B510013C280055B8012B4020CE55A121B13C23A
:101B610082755B008003755B00227400F55B741164
:101B7100F5387401F539121B7B2290025DE538546A
:101B81000F93F558E538C4540F93F559E539540FBF
:101B910093F55A22C28C755E00755F0022E55EB432
:101BA1000002800EB40108D55F08755E00C28C7515
:101BB1005E0022755E01755F28D28C22E58954F0A2
:101BC1004401F589758CEA758AE875F4EA75F2E8DD
:101BD100D2A922B2B732E589540F4410F589E591B3
:101BE10054004480F591758D00758B0075F5007575
:101BF100F300D28E3275C80075CDA975CC9A75CB1C
:101C0100A975CA9AE4F530F531F53BD2ADD2CA22B5
:101C1100C2CFC0E0C0D0121B340530E530700205E0
:101C210031E530B4C81AE531B40015D202E4F5301B
:101C3100F531053BE53BB40507753B00D201053A9B
:101C4100D0D0D0E03275817F121B6B121BBD121BED
:101C5100D7121BF6121B95C203C204C205753A00C6
:101C6100755D0075530075573C75E60075E70075A5
:101C71008E11D2AF1213BE1213E91202C112172C28
:081C8100121B9E02174180F5C1
:00000001FF
